Component: ARM Compiler 5.06 update 6 (build 750) Tool: armlink [4d35ed]

==============================================================================

Section Cross References

    startup_stm32f103x6.o(RESET) refers to startup_stm32f103x6.o(STACK) for __initial_sp
    startup_stm32f103x6.o(RESET) refers to startup_stm32f103x6.o(.text) for Reset_Handler
    startup_stm32f103x6.o(RESET) refers to stm32f1xx_it.o(i.NMI_Handler) for NMI_Handler
    startup_stm32f103x6.o(RESET) refers to stm32f1xx_it.o(i.HardFault_Handler) for HardFault_Handler
    startup_stm32f103x6.o(RESET) refers to stm32f1xx_it.o(i.MemManage_Handler) for MemManage_Handler
    startup_stm32f103x6.o(RESET) refers to stm32f1xx_it.o(i.BusFault_Handler) for BusFault_Handler
    startup_stm32f103x6.o(RESET) refers to stm32f1xx_it.o(i.UsageFault_Handler) for UsageFault_Handler
    startup_stm32f103x6.o(RESET) refers to stm32f1xx_it.o(i.SVC_Handler) for SVC_Handler
    startup_stm32f103x6.o(RESET) refers to stm32f1xx_it.o(i.DebugMon_Handler) for DebugMon_Handler
    startup_stm32f103x6.o(RESET) refers to stm32f1xx_it.o(i.PendSV_Handler) for PendSV_Handler
    startup_stm32f103x6.o(RESET) refers to stm32f1xx_it.o(i.SysTick_Handler) for SysTick_Handler
    startup_stm32f103x6.o(RESET) refers to stm32f1xx_it.o(i.DMA1_Channel4_IRQHandler) for DMA1_Channel4_IRQHandler
    startup_stm32f103x6.o(RESET) refers to stm32f1xx_it.o(i.DMA1_Channel5_IRQHandler) for DMA1_Channel5_IRQHandler
    startup_stm32f103x6.o(RESET) refers to stm32f1xx_it.o(i.DMA1_Channel6_IRQHandler) for DMA1_Channel6_IRQHandler
    startup_stm32f103x6.o(RESET) refers to stm32f1xx_it.o(i.DMA1_Channel7_IRQHandler) for DMA1_Channel7_IRQHandler
    startup_stm32f103x6.o(RESET) refers to stm32f1xx_it.o(i.TIM3_IRQHandler) for TIM3_IRQHandler
    startup_stm32f103x6.o(RESET) refers to stm32f1xx_it.o(i.USART1_IRQHandler) for USART1_IRQHandler
    startup_stm32f103x6.o(RESET) refers to stm32f1xx_it.o(i.USART2_IRQHandler) for USART2_IRQHandler
==============================================================================

Removing Unused input sections from the image.

    Removing main.o(.rev16_text), (4 bytes).
    Removing main.o(.revsh_text), (4 bytes).
    Removing main.o(.rrx_text), (6 bytes).
    Removing main.o(i.USAR_UART_IDLECallback), (2 bytes).
    Removing gpio.o(.rev16_text), (4 bytes).
    Removing gpio.o(.revsh_text), (4 bytes).
    Removing gpio.o(.rrx_text), (6 bytes).
    Removing dma.o(.rev16_text), (4 bytes).
    Removing dma.o(.revsh_text), (4 bytes).
    Removing dma.o(.rrx_text), (6 bytes).
    Removing tim.o(.rev16_text), (4 bytes).
    Removing tim.o(.revsh_text), (4 bytes).
    Removing tim.o(.rrx_text), (6 bytes).
    Removing tim.o(i.HAL_TIM_Base_MspDeInit), (36 bytes).
    Removing usart.o(.rev16_text), (4 bytes).
    Removing usart.o(.revsh_text), (4 bytes).
    Removing usart.o(.rrx_text), (6 bytes).
    Removing usart.o(i.HAL_UART_MspDeInit), (112 bytes).
==============================================================================

Image Symbol Table

    Local Symbols

    Symbol Name                              Value     Ov Type        Size  Object(Section)

    ../Core/Src/dma.c                        0x00000000   Number         0  dma.o ABSOLUTE
    ../Core/Src/gpio.c                       0x00000000   Number         0  gpio.o ABSOLUTE
    ../Core/Src/main.c                       0x00000000   Number         0  main.o ABSOLUTE
    ../Core/Src/stm32f1xx_hal_msp.c          0x00000000   Number         0  stm32f1xx_hal_msp.o ABSOLUTE
    ../Core/Src/stm32f1xx_it.c               0x00000000   Number         0  stm32f1xx_it.o ABSOLUTE
    ../Core/Src/system_stm32f1xx.c           0x00000000   Number         0  system_stm32f1xx.o ABSOLUTE
    ../Core/Src/tim.c                        0x00000000   Number         0  tim.o ABSOLUTE
    ../Core/Src/usart.c                      0x00000000   Number         0  usart.o ABSOLUTE
    ../Drivers/STM32F1xx_HAL_Driver/Src/stm32f1xx_hal.c 0x00000000   Number         0  stm32f1xx_hal.o ABSOLUTE
    ../Drivers/STM32F1xx_HAL_Driver/Src/stm32f1xx_hal_cortex.c 0x00000000   Number         0  stm32f1xx_hal_cortex.o ABSOLUTE
    ../Drivers/STM32F1xx_HAL_Driver/Src/stm32f1xx_hal_dma.c 0x00000000   Number         0  stm32f1xx_hal_dma.o ABSOLUTE
    ../Drivers/STM32F1xx_HAL_Driver/Src/stm32f1xx_hal_exti.c 0x00000000   Number         0  stm32f1xx_hal_exti.o ABSOLUTE
    ../Drivers/STM32F1xx_HAL_Driver/Src/stm32f1xx_hal_flash.c 0x00000000   Number         0  stm32f1xx_hal_flash.o ABSOLUTE
    ../Drivers/STM32F1xx_HAL_Driver/Src/stm32f1xx_hal_flash_ex.c 0x00000000   Number         0  stm32f1xx_hal_flash_ex.o ABSOLUTE
    ../Drivers/STM32F1xx_HAL_Driver/Src/stm32f1xx_hal_gpio.c 0x00000000   Number         0  stm32f1xx_hal_gpio.o ABSOLUTE
    ../Drivers/STM32F1xx_HAL_Driver/Src/stm32f1xx_hal_gpio_ex.c 0x00000000   Number         0  stm32f1xx_hal_gpio_ex.o ABSOLUTE
    ../Drivers/STM32F1xx_HAL_Driver/Src/stm32f1xx_hal_pwr.c 0x00000000   Number         0  stm32f1xx_hal_pwr.o ABSOLUTE
    ../Drivers/STM32F1xx_HAL_Driver/Src/stm32f1xx_hal_rcc.c 0x00000000   Number         0  stm32f1xx_hal_rcc.o ABSOLUTE
    ../Drivers/STM32F1xx_HAL_Driver/Src/stm32f1xx_hal_rcc_ex.c 0x00000000   Number         0  stm32f1xx_hal_rcc_ex.o ABSOLUTE
    ../Drivers/STM32F1xx_HAL_Driver/Src/stm32f1xx_hal_tim.c 0x00000000   Number         0  stm32f1xx_hal_tim.o ABSOLUTE
    ../Drivers/STM32F1xx_HAL_Driver/Src/stm32f1xx_hal_tim_ex.c 0x00000000   Number         0  stm32f1xx_hal_tim_ex.o ABSOLUTE
    ../Drivers/STM32F1xx_HAL_Driver/Src/stm32f1xx_hal_uart.c 0x00000000   Number         0  stm32f1xx_hal_uart.o ABSOLUTE
    ../clib/microlib/division.c              0x00000000   Number         0  uldiv.o ABSOLUTE
    ../clib/microlib/division.c              0x00000000   Number         0  uidiv.o ABSOLUTE
    ../clib/microlib/init/entry.s            0x00000000   Number         0  entry7a.o ABSOLUTE
    ../clib/microlib/init/entry.s            0x00000000   Number         0  entry9a.o ABSOLUTE
    ../clib/microlib/init/entry.s            0x00000000   Number         0  entry11a.o ABSOLUTE
    ../clib/microlib/init/entry.s            0x00000000   Number         0  entry11b.o ABSOLUTE
    ../clib/microlib/init/entry.s            0x00000000   Number         0  entry8b.o ABSOLUTE
    ../clib/microlib/init/entry.s            0x00000000   Number         0  entry8a.o ABSOLUTE
    ../clib/microlib/init/entry.s            0x00000000   Number         0  entry10b.o ABSOLUTE
    ../clib/microlib/init/entry.s            0x00000000   Number         0  entry5.o ABSOLUTE
    ../clib/microlib/init/entry.s            0x00000000   Number         0  entry.o ABSOLUTE
    ../clib/microlib/init/entry.s            0x00000000   Number         0  entry10a.o ABSOLUTE
    ../clib/microlib/init/entry.s            0x00000000   Number         0  entry7b.o ABSOLUTE
    ../clib/microlib/init/entry.s            0x00000000   Number         0  entry2.o ABSOLUTE
    ../clib/microlib/init/entry.s            0x00000000   Number         0  entry9b.o ABSOLUTE
    ../clib/microlib/longlong.c              0x00000000   Number         0  llushr.o ABSOLUTE
    ../clib/microlib/longlong.c              0x00000000   Number         0  llshl.o ABSOLUTE
    ../clib/microlib/longlong.c              0x00000000   Number         0  llsshr.o ABSOLUTE
    ../clib/microlib/malloc/malloc.c         0x00000000   Number         0  malloc.o ABSOLUTE
    ../clib/microlib/malloc/malloc.c         0x00000000   Number         0  mallocra.o ABSOLUTE
    ../clib/microlib/malloc/malloc.c         0x00000000   Number         0  malloca.o ABSOLUTE
    ../clib/microlib/malloc/malloc.c         0x00000000   Number         0  mallocr.o ABSOLUTE
    ../clib/microlib/malloc/mvars.c          0x00000000   Number         0  mvars.o ABSOLUTE
    ../clib/microlib/printf/printf.c         0x00000000   Number         0  printf7.o ABSOLUTE
    ../clib/microlib/printf/printf.c         0x00000000   Number         0  printf8.o ABSOLUTE
    ../clib/microlib/printf/printf.c         0x00000000   Number         0  printf2.o ABSOLUTE
    ../clib/microlib/printf/printf.c         0x00000000   Number         0  printf3.o ABSOLUTE
    ../clib/microlib/printf/printf.c         0x00000000   Number         0  printf1.o ABSOLUTE
    ../clib/microlib/printf/printf.c         0x00000000   Number         0  printf4.o ABSOLUTE
    ../clib/microlib/printf/printf.c         0x00000000   Number         0  printf5.o ABSOLUTE
    ../clib/microlib/printf/printf.c         0x00000000   Number         0  printf0.o ABSOLUTE
    ../clib/microlib/printf/printf.c         0x00000000   Number         0  printfa.o ABSOLUTE
    ../clib/microlib/printf/printf.c         0x00000000   Number         0  printf6.o ABSOLUTE
    ../clib/microlib/printf/printf.c         0x00000000   Number         0  printfb.o ABSOLUTE
    ../clib/microlib/string/memcpy.c         0x00000000   Number         0  memcpyb.o ABSOLUTE
    ../clib/microlib/string/memcpy.c         0x00000000   Number         0  memcpya.o ABSOLUTE
    ../clib/microlib/string/memset.c         0x00000000   Number         0  memseta.o ABSOLUTE
    ../clib/microlib/stubs.s                 0x00000000   Number         0  iusefp.o ABSOLUTE
    ../fplib/microlib/fpadd.c                0x00000000   Number         0  dadd.o ABSOLUTE
    ../fplib/microlib/fpdiv.c                0x00000000   Number         0  ddiv.o ABSOLUTE
    ../fplib/microlib/fpepilogue.c           0x00000000   Number         0  depilogue.o ABSOLUTE
    ../fplib/microlib/fpfix.c                0x00000000   Number         0  dfixul.o ABSOLUTE
    ../fplib/microlib/fpmul.c                0x00000000   Number         0  dmul.o ABSOLUTE
    ..\Core\Src\dma.c                        0x00000000   Number         0  dma.o ABSOLUTE
    ..\Core\Src\drive.c                      0x00000000   Number         0  drive.o ABSOLUTE
    ..\Core\Src\flash.c                      0x00000000   Number         0  flash.o ABSOLUTE
    ..\Core\Src\gpio.c                       0x00000000   Number         0  gpio.o ABSOLUTE
    ..\Core\Src\main.c                       0x00000000   Number         0  main.o ABSOLUTE
    ..\Core\Src\message.c                    0x00000000   Number         0  message.o ABSOLUTE
    ..\Core\Src\stm32f1xx_hal_msp.c          0x00000000   Number         0  stm32f1xx_hal_msp.o ABSOLUTE
    ..\Core\Src\stm32f1xx_it.c               0x00000000   Number         0  stm32f1xx_it.o ABSOLUTE
    ..\Core\Src\system_stm32f1xx.c           0x00000000   Number         0  system_stm32f1xx.o ABSOLUTE
    ..\Core\Src\tim.c                        0x00000000   Number         0  tim.o ABSOLUTE
    ..\Core\Src\usart.c                      0x00000000   Number         0  usart.o ABSOLUTE
    ..\Drivers\STM32F1xx_HAL_Driver\Src\stm32f1xx_hal.c 0x00000000   Number         0  stm32f1xx_hal.o ABSOLUTE
    ..\Drivers\STM32F1xx_HAL_Driver\Src\stm32f1xx_hal_cortex.c 0x00000000   Number         0  stm32f1xx_hal_cortex.o ABSOLUTE
    ..\Drivers\STM32F1xx_HAL_Driver\Src\stm32f1xx_hal_dma.c 0x00000000   Number         0  stm32f1xx_hal_dma.o ABSOLUTE
    ..\Drivers\STM32F1xx_HAL_Driver\Src\stm32f1xx_hal_exti.c 0x00000000   Number         0  stm32f1xx_hal_exti.o ABSOLUTE
    ..\Drivers\STM32F1xx_HAL_Driver\Src\stm32f1xx_hal_flash.c 0x00000000   Number         0  stm32f1xx_hal_flash.o ABSOLUTE
    ..\Drivers\STM32F1xx_HAL_Driver\Src\stm32f1xx_hal_flash_ex.c 0x00000000   Number         0  stm32f1xx_hal_flash_ex.o ABSOLUTE
    ..\Drivers\STM32F1xx_HAL_Driver\Src\stm32f1xx_hal_gpio.c 0x00000000   Number         0  stm32f1xx_hal_gpio.o ABSOLUTE
    ..\Drivers\STM32F1xx_HAL_Driver\Src\stm32f1xx_hal_gpio_ex.c 0x00000000   Number         0  stm32f1xx_hal_gpio_ex.o ABSOLUTE
    ..\Drivers\STM32F1xx_HAL_Driver\Src\stm32f1xx_hal_pwr.c 0x00000000   Number         0  stm32f1xx_hal_pwr.o ABSOLUTE
    ..\Drivers\STM32F1xx_HAL_Driver\Src\stm32f1xx_hal_rcc.c 0x00000000   Number         0  stm32f1xx_hal_rcc.o ABSOLUTE
    ..\Drivers\STM32F1xx_HAL_Driver\Src\stm32f1xx_hal_rcc_ex.c 0x00000000   Number         0  stm32f1xx_hal_rcc_ex.o ABSOLUTE
    ..\Drivers\STM32F1xx_HAL_Driver\Src\stm32f1xx_hal_tim.c 0x00000000   Number         0  stm32f1xx_hal_tim.o ABSOLUTE
    ..\Drivers\STM32F1xx_HAL_Driver\Src\stm32f1xx_hal_tim_ex.c 0x00000000   Number         0  stm32f1xx_hal_tim_ex.o ABSOLUTE
    ..\Drivers\STM32F1xx_HAL_Driver\Src\stm32f1xx_hal_uart.c 0x00000000   Number         0  stm32f1xx_hal_uart.o ABSOLUTE
    ..\\Core\\Src\\drive.c                   0x00000000   Number         0  drive.o ABSOLUTE
    ..\\Core\\Src\\flash.c                   0x00000000   Number         0  flash.o ABSOLUTE
    ..\\Core\\Src\\message.c                 0x00000000   Number         0  message.o ABSOLUTE
    cdrcmple.s                               0x00000000   Number         0  cdrcmple.o ABSOLUTE
    dc.s                                     0x00000000   Number         0  dc.o ABSOLUTE
    handlers.s                               0x00000000   Number         0  handlers.o ABSOLUTE
    init.s                                   0x00000000   Number         0  init.o ABSOLUTE
    startup_stm32f103x6.s                    0x00000000   Number         0  startup_stm32f103x6.o ABSOLUTE
    RESET                                    0x08000000   Section      236  startup_stm32f103x6.o(RESET)
    .ARM.Collect$$$$00000000                 0x080000ec   Section        0  entry.o(.ARM.Collect$$$$00000000)
    .ARM.Collect$$$$00000001                 0x080000ec   Section        4  entry2.o(.ARM.Collect$$$$00000001)
    .ARM.Collect$$$$00000004                 0x080000f0   Section        4  entry5.o(.ARM.Collect$$$$00000004)
    .ARM.Collect$$$$00000008                 0x080000f4   Section        0  entry7b.o(.ARM.Collect$$$$00000008)
    .ARM.Collect$$$$0000000A                 0x080000f4   Section        0  entry8b.o(.ARM.Collect$$$$0000000A)
    .ARM.Collect$$$$0000000B                 0x080000f4   Section        8  entry9a.o(.ARM.Collect$$$$0000000B)
    .ARM.Collect$$$$0000000D                 0x080000fc   Section        0  entry10a.o(.ARM.Collect$$$$0000000D)
    .ARM.Collect$$$$0000000F                 0x080000fc   Section        0  entry11a.o(.ARM.Collect$$$$0000000F)
    .ARM.Collect$$$$00002712                 0x080000fc   Section        4  entry2.o(.ARM.Collect$$$$00002712)
    __lit__00000000                          0x080000fc   Data           4  entry2.o(.ARM.Collect$$$$00002712)
    .text                                    0x08000100   Section       36  startup_stm32f103x6.o(.text)
    .text                                    0x08000124   Section        0  llushr.o(.text)
    .text                                    0x08000144   Section        0  memcpya.o(.text)
    .text                                    0x08000168   Section        0  memseta.o(.text)
    .text                                    0x0800018c   Section       36  init.o(.text)
    i.BusFault_Handler                       0x080001b0   Section        0  stm32f1xx_it.o(i.BusFault_Handler)
    i.DMA1_Channel4_IRQHandler               0x080001b4   Section        0  stm32f1xx_it.o(i.DMA1_Channel4_IRQHandler)
    i.DMA1_Channel5_IRQHandler               0x080001c0   Section        0  stm32f1xx_it.o(i.DMA1_Channel5_IRQHandler)
    i.DMA1_Channel6_IRQHandler               0x080001cc   Section        0  stm32f1xx_it.o(i.DMA1_Channel6_IRQHandler)
    i.DMA1_Channel7_IRQHandler               0x080001d8   Section        0  stm32f1xx_it.o(i.DMA1_Channel7_IRQHandler)
    i.DebugMon_Handler                       0x080001e4   Section        0  stm32f1xx_it.o(i.DebugMon_Handler)
    i.Error_Handler                          0x080001e6   Section        0  main.o(i.Error_Handler)
    i.FLASH_MassErase                        0x080001ec   Section        0  stm32f1xx_hal_flash_ex.o(i.FLASH_MassErase)
    FLASH_MassErase                          0x080001ed   Thumb Code    26  stm32f1xx_hal_flash_ex.o(i.FLASH_MassErase)
    i.FLASH_PageErase                        0x08000210   Section        0  stm32f1xx_hal_flash_ex.o(i.FLASH_PageErase)
    i.FLASH_Program_HalfWord                 0x08000234   Section        0  stm32f1xx_hal_flash.o(i.FLASH_Program_HalfWord)
    FLASH_Program_HalfWord                   0x08000235   Thumb Code    20  stm32f1xx_hal_flash.o(i.FLASH_Program_HalfWord)
    i.FLASH_Read                             0x08000250   Section        0  flash.o(i.FLASH_Read)
    i.FLASH_SetErrorCode                     0x08000294   Section        0  stm32f1xx_hal_flash.o(i.FLASH_SetErrorCode)
    FLASH_SetErrorCode                       0x08000295   Thumb Code    84  stm32f1xx_hal_flash.o(i.FLASH_SetErrorCode)
    i.FLASH_WaitForLastOperation             0x080002f0   Section        0  stm32f1xx_hal_flash.o(i.FLASH_WaitForLastOperation)
    i.FLASH_Write                            0x08000344   Section        0  flash.o(i.FLASH_Write)
    i.FLASH_WriteNotCheck                    0x0800042c   Section        0  flash.o(i.FLASH_WriteNotCheck)
    i.Get_Data_Fram                          0x08000470   Section        0  message.o(i.Get_Data_Fram)
    i.HAL_DMA_Abort                          0x08000510   Section        0  stm32f1xx_hal_dma.o(i.HAL_DMA_Abort)
    i.HAL_DMA_Abort_IT                       0x08000558   Section        0  stm32f1xx_hal_dma.o(i.HAL_DMA_Abort_IT)
    i.HAL_DMA_IRQHandler                     0x080005f0   Section        0  stm32f1xx_hal_dma.o(i.HAL_DMA_IRQHandler)
    i.HAL_DMA_Init                           0x08000744   Section        0  stm32f1xx_hal_dma.o(i.HAL_DMA_Init)
    i.HAL_Delay                              0x080007a0   Section        0  stm32f1xx_hal.o(i.HAL_Delay)
    i.HAL_FLASHEx_Erase                      0x080007c4   Section        0  stm32f1xx_hal_flash_ex.o(i.HAL_FLASHEx_Erase)
    i.HAL_FLASH_Lock                         0x0800086c   Section        0  stm32f1xx_hal_flash.o(i.HAL_FLASH_Lock)
    i.HAL_FLASH_Program                      0x08000880   Section        0  stm32f1xx_hal_flash.o(i.HAL_FLASH_Program)
    i.HAL_FLASH_Unlock                       0x08000900   Section        0  stm32f1xx_hal_flash.o(i.HAL_FLASH_Unlock)
    i.HAL_GPIO_Init                          0x08000928   Section        0  stm32f1xx_hal_gpio.o(i.HAL_GPIO_Init)
    i.HAL_GPIO_ReadPin                       0x08000ae8   Section        0  stm32f1xx_hal_gpio.o(i.HAL_GPIO_ReadPin)
    i.HAL_GPIO_TogglePin                     0x08000af2   Section        0  stm32f1xx_hal_gpio.o(i.HAL_GPIO_TogglePin)
    i.HAL_GPIO_WritePin                      0x08000b02   Section        0  stm32f1xx_hal_gpio.o(i.HAL_GPIO_WritePin)
    i.HAL_GetTick                            0x08000b0c   Section        0  stm32f1xx_hal.o(i.HAL_GetTick)
    i.HAL_IncTick                            0x08000b18   Section        0  stm32f1xx_hal.o(i.HAL_IncTick)
    i.HAL_Init                               0x08000b28   Section        0  stm32f1xx_hal.o(i.HAL_Init)
    i.HAL_InitTick                           0x08000b4c   Section        0  stm32f1xx_hal.o(i.HAL_InitTick)
    i.HAL_MspInit                            0x08000b8c   Section        0  stm32f1xx_hal_msp.o(i.HAL_MspInit)
    i.HAL_NVIC_EnableIRQ                     0x08000bc8   Section        0  stm32f1xx_hal_cortex.o(i.HAL_NVIC_EnableIRQ)
    i.HAL_NVIC_SetPriority                   0x08000be4   Section        0  stm32f1xx_hal_cortex.o(i.HAL_NVIC_SetPriority)
    i.HAL_NVIC_SetPriorityGrouping           0x08000c24   Section        0  stm32f1xx_hal_cortex.o(i.HAL_NVIC_SetPriorityGrouping)
    i.HAL_RCC_ClockConfig                    0x08000c48   Section        0  stm32f1xx_hal_rcc.o(i.HAL_RCC_ClockConfig)
    i.HAL_RCC_GetPCLK1Freq                   0x08000d74   Section        0  stm32f1xx_hal_rcc.o(i.HAL_RCC_GetPCLK1Freq)
    i.HAL_RCC_GetPCLK2Freq                   0x08000d94   Section        0  stm32f1xx_hal_rcc.o(i.HAL_RCC_GetPCLK2Freq)
    i.HAL_RCC_GetSysClockFreq                0x08000db4   Section        0  stm32f1xx_hal_rcc.o(i.HAL_RCC_GetSysClockFreq)
    i.HAL_RCC_OscConfig                      0x08000e20   Section        0  stm32f1xx_hal_rcc.o(i.HAL_RCC_OscConfig)
    i.HAL_SYSTICK_Config                     0x08001140   Section        0  stm32f1xx_hal_cortex.o(i.HAL_SYSTICK_Config)
    i.HAL_TIMEx_BreakCallback                0x08001168   Section        0  stm32f1xx_hal_tim_ex.o(i.HAL_TIMEx_BreakCallback)
    i.HAL_TIMEx_CommutCallback               0x0800116a   Section        0  stm32f1xx_hal_tim_ex.o(i.HAL_TIMEx_CommutCallback)
    i.HAL_TIMEx_MasterConfigSynchronization  0x0800116c   Section        0  stm32f1xx_hal_tim_ex.o(i.HAL_TIMEx_MasterConfigSynchronization)
    i.HAL_TIM_Base_Init                      0x080011cc   Section        0  stm32f1xx_hal_tim.o(i.HAL_TIM_Base_Init)
    i.HAL_TIM_Base_MspInit                   0x08001228   Section        0  tim.o(i.HAL_TIM_Base_MspInit)
    i.HAL_TIM_Base_Start_IT                  0x08001264   Section        0  stm32f1xx_hal_tim.o(i.HAL_TIM_Base_Start_IT)
    i.HAL_TIM_ConfigClockSource              0x080012b4   Section        0  stm32f1xx_hal_tim.o(i.HAL_TIM_ConfigClockSource)
    i.HAL_TIM_IC_CaptureCallback             0x0800138a   Section        0  stm32f1xx_hal_tim.o(i.HAL_TIM_IC_CaptureCallback)
    i.HAL_TIM_IRQHandler                     0x0800138c   Section        0  stm32f1xx_hal_tim.o(i.HAL_TIM_IRQHandler)
    i.HAL_TIM_OC_DelayElapsedCallback        0x080014f2   Section        0  stm32f1xx_hal_tim.o(i.HAL_TIM_OC_DelayElapsedCallback)
    i.HAL_TIM_PWM_PulseFinishedCallback      0x080014f4   Section        0  stm32f1xx_hal_tim.o(i.HAL_TIM_PWM_PulseFinishedCallback)
    i.HAL_TIM_PeriodElapsedCallback          0x080014f8   Section        0  main.o(i.HAL_TIM_PeriodElapsedCallback)
    i.HAL_TIM_TriggerCallback                0x08001550   Section        0  stm32f1xx_hal_tim.o(i.HAL_TIM_TriggerCallback)
    i.HAL_UARTEx_RxEventCallback             0x08001552   Section        0  stm32f1xx_hal_uart.o(i.HAL_UARTEx_RxEventCallback)
    i.HAL_UART_ErrorCallback                 0x08001554   Section        0  stm32f1xx_hal_uart.o(i.HAL_UART_ErrorCallback)
    i.HAL_UART_IRQHandler                    0x08001558   Section        0  stm32f1xx_hal_uart.o(i.HAL_UART_IRQHandler)
    i.HAL_UART_Init                          0x08001764   Section        0  stm32f1xx_hal_uart.o(i.HAL_UART_Init)
    i.HAL_UART_MspInit                       0x080017c8   Section        0  usart.o(i.HAL_UART_MspInit)
    i.HAL_UART_Receive_IT                    0x08001968   Section        0  stm32f1xx_hal_uart.o(i.HAL_UART_Receive_IT)
    i.HAL_UART_RxCpltCallback                0x08001994   Section        0  main.o(i.HAL_UART_RxCpltCallback)
    i.HAL_UART_Transmit                      0x080019e8   Section        0  stm32f1xx_hal_uart.o(i.HAL_UART_Transmit)
    i.HAL_UART_TxCpltCallback                0x08001a9a   Section        0  stm32f1xx_hal_uart.o(i.HAL_UART_TxCpltCallback)
    i.HardFault_Handler                      0x08001a9c   Section        0  stm32f1xx_it.o(i.HardFault_Handler)
    i.MX_DMA_Init                            0x08001aa0   Section        0  dma.o(i.MX_DMA_Init)
    i.MX_GPIO_Init                           0x08001afc   Section        0  gpio.o(i.MX_GPIO_Init)
    i.MX_TIM3_Init                           0x08001bbc   Section        0  tim.o(i.MX_TIM3_Init)
    i.MX_USART1_UART_Init                    0x08001c24   Section        0  usart.o(i.MX_USART1_UART_Init)
    i.MX_USART2_UART_Init                    0x08001c5c   Section        0  usart.o(i.MX_USART2_UART_Init)
    i.MemManage_Handler                      0x08001c94   Section        0  stm32f1xx_it.o(i.MemManage_Handler)
    i.NMI_Handler                            0x08001c96   Section        0  stm32f1xx_it.o(i.NMI_Handler)
    i.PendSV_Handler                         0x08001c98   Section        0  stm32f1xx_it.o(i.PendSV_Handler)
    i.SVC_Handler                            0x08001c9a   Section        0  stm32f1xx_it.o(i.SVC_Handler)
    i.SysTick_Handler                        0x08001c9c   Section        0  stm32f1xx_it.o(i.SysTick_Handler)
    i.SystemClock_Config                     0x08001ca0   Section        0  main.o(i.SystemClock_Config)
    i.SystemInit                             0x08001cfe   Section        0  system_stm32f1xx.o(i.SystemInit)
    i.TIM3_IRQHandler                        0x08001d00   Section        0  stm32f1xx_it.o(i.TIM3_IRQHandler)
    i.TIM_Base_SetConfig                     0x08001d0c   Section        0  stm32f1xx_hal_tim.o(i.TIM_Base_SetConfig)
    i.TIM_ETR_SetConfig                      0x08001d68   Section        0  stm32f1xx_hal_tim.o(i.TIM_ETR_SetConfig)
    i.TIM_ITRx_SetConfig                     0x08001d7c   Section        0  stm32f1xx_hal_tim.o(i.TIM_ITRx_SetConfig)
    TIM_ITRx_SetConfig                       0x08001d7d   Thumb Code    16  stm32f1xx_hal_tim.o(i.TIM_ITRx_SetConfig)
    i.TIM_TI1_ConfigInputStage               0x08001d8c   Section        0  stm32f1xx_hal_tim.o(i.TIM_TI1_ConfigInputStage)
    TIM_TI1_ConfigInputStage                 0x08001d8d   Thumb Code    34  stm32f1xx_hal_tim.o(i.TIM_TI1_ConfigInputStage)
    i.TIM_TI2_ConfigInputStage               0x08001dae   Section        0  stm32f1xx_hal_tim.o(i.TIM_TI2_ConfigInputStage)
    TIM_TI2_ConfigInputStage                 0x08001daf   Thumb Code    36  stm32f1xx_hal_tim.o(i.TIM_TI2_ConfigInputStage)
    i.UART_DMAAbortOnError                   0x08001dd2   Section        0  stm32f1xx_hal_uart.o(i.UART_DMAAbortOnError)
    UART_DMAAbortOnError                     0x08001dd3   Thumb Code    16  stm32f1xx_hal_uart.o(i.UART_DMAAbortOnError)
    i.UART_EndRxTransfer                     0x08001de2   Section        0  stm32f1xx_hal_uart.o(i.UART_EndRxTransfer)
    UART_EndRxTransfer                       0x08001de3   Thumb Code    48  stm32f1xx_hal_uart.o(i.UART_EndRxTransfer)
    i.UART_Receive_IT                        0x08001e12   Section        0  stm32f1xx_hal_uart.o(i.UART_Receive_IT)
    UART_Receive_IT                          0x08001e13   Thumb Code   182  stm32f1xx_hal_uart.o(i.UART_Receive_IT)
    i.UART_SetConfig                         0x08001ec8   Section        0  stm32f1xx_hal_uart.o(i.UART_SetConfig)
    UART_SetConfig                           0x08001ec9   Thumb Code   178  stm32f1xx_hal_uart.o(i.UART_SetConfig)
    i.UART_Start_Receive_IT                  0x08001f80   Section        0  stm32f1xx_hal_uart.o(i.UART_Start_Receive_IT)
    i.UART_WaitOnFlagUntilTimeout            0x08001fb6   Section        0  stm32f1xx_hal_uart.o(i.UART_WaitOnFlagUntilTimeout)
    UART_WaitOnFlagUntilTimeout              0x08001fb7   Thumb Code   100  stm32f1xx_hal_uart.o(i.UART_WaitOnFlagUntilTimeout)
    i.USART1_IRQHandler                      0x0800201c   Section        0  stm32f1xx_it.o(i.USART1_IRQHandler)
    i.USART2_IRQHandler                      0x08002028   Section        0  stm32f1xx_it.o(i.USART2_IRQHandler)
    i.UsageFault_Handler                     0x08002034   Section        0  stm32f1xx_it.o(i.UsageFault_Handler)
    i.__0printf$bare                         0x08002038   Section        0  printfb.o(i.__0printf$bare)
    i.__NVIC_SetPriority                     0x08002048   Section        0  stm32f1xx_hal_cortex.o(i.__NVIC_SetPriority)
    __NVIC_SetPriority                       0x08002049   Thumb Code    32  stm32f1xx_hal_cortex.o(i.__NVIC_SetPriority)
    i.__scatterload_copy                     0x08002068   Section       14  handlers.o(i.__scatterload_copy)
    i.__scatterload_null                     0x08002076   Section        2  handlers.o(i.__scatterload_null)
    i.__scatterload_zeroinit                 0x08002078   Section       14  handlers.o(i.__scatterload_zeroinit)
    i._printf_core                           0x08002086   Section        0  printfb.o(i._printf_core)
    _printf_core                             0x08002087   Thumb Code    34  printfb.o(i._printf_core)
    i.change_ID                              0x080020a8   Section        0  drive.o(i.change_ID)
    i.check_data                             0x08002110   Section        0  message.o(i.check_data)
    i.check_drive                            0x0800218c   Section        0  drive.o(i.check_drive)
    i.fputc                                  0x08002230   Section        0  usart.o(i.fputc)
    i.free                                   0x08002248   Section        0  malloc.o(i.free)
    i.get_sys_clk                            0x08002298   Section        0  main.o(i.get_sys_clk)
    i.init_myself                            0x080022a4   Section        0  drive.o(i.init_myself)
    i.key_drive_oper                         0x080022fc   Section        0  drive.o(i.key_drive_oper)
    i.key_led_Toggle                         0x080023c8   Section        0  drive.o(i.key_led_Toggle)
    key_led_Toggle                           0x080023c9   Thumb Code    80  drive.o(i.key_led_Toggle)
    i.key_scan                               0x08002420   Section        0  drive.o(i.key_scan)
    i.key_scan_call                          0x080024c8   Section        0  drive.o(i.key_scan_call)
    key_scan_call                            0x080024c9   Thumb Code    84  drive.o(i.key_scan_call)
    i.main                                   0x08002524   Section        0  main.o(i.main)
    i.malloc                                 0x080025b0   Section        0  malloc.o(i.malloc)
    i.message_init                           0x0800261c   Section        0  message.o(i.message_init)
    i.polling                                0x08002644   Section        0  message.o(i.polling)
    i.report_heartbeat                       0x080027ec   Section        0  drive.o(i.report_heartbeat)
    i.send_message                           0x080028c0   Section        0  message.o(i.send_message)
    .constdata                               0x08002938   Section       16  system_stm32f1xx.o(.constdata)
    .constdata                               0x08002948   Section        8  system_stm32f1xx.o(.constdata)
    .data                                    0x20000000   Section       12  main.o(.data)
    time                                     0x20000004   Data           2  main.o(.data)
    .data                                    0x2000000c   Section        4  usart.o(.data)
    .data                                    0x20000010   Section       12  stm32f1xx_hal.o(.data)
    .data                                    0x2000001c   Section        4  system_stm32f1xx.o(.data)
    .data                                    0x20000020   Section        8  drive.o(.data)
    report_flag                              0x20000021   Data           1  drive.o(.data)
    flip_100ms_last                          0x20000022   Data           1  drive.o(.data)
    .data                                    0x20000028   Section       16  message.o(.data)
    local                                    0x20000029   Data           1  message.o(.data)
    data_last                                0x2000002a   Data           1  message.o(.data)
    data_len                                 0x2000002c   Data           2  message.o(.data)
    .data                                    0x20000038   Section        4  mvars.o(.data)
    .data                                    0x2000003c   Section        4  mvars.o(.data)
    .bss                                     0x20000040   Section       72  tim.o(.bss)
    .bss                                     0x20000088   Section      408  usart.o(.bss)
    .bss                                     0x20000220   Section       32  stm32f1xx_hal_flash.o(.bss)
    .bss                                     0x20000240   Section       10  drive.o(.bss)
    key_time                                 0x20000240   Data          10  drive.o(.bss)
    .bss                                     0x2000024a   Section     1024  flash.o(.bss)
    FlashBuffer                              0x2000024a   Data        1024  flash.o(.bss)
    HEAP                                     0x20000650   Section     3840  startup_stm32f103x6.o(HEAP)
    STACK                                    0x20001550   Section     3840  startup_stm32f103x6.o(STACK)

    Global Symbols

    Symbol Name                              Value     Ov Type        Size  Object(Section)

    BuildAttributes$$THM_ISAv4$P$D$K$B$S$PE$A:L22UL41UL21$X:L11$S22US41US21$IEEE1$IW$USESV6$~STKCKD$USESV7$~SHL$OSPACE$ROPI$EBA8$MICROLIB$REQ8$PRES8$EABIv2 0x00000000   Number         0  anon$$obj.o ABSOLUTE
    __ARM_use_no_argv                        0x00000000   Number         0  main.o ABSOLUTE
    __cpp_initialize__aeabi_                  - Undefined Weak Reference
    __cxa_finalize                            - Undefined Weak Reference
    __decompress                              - Undefined Weak Reference
    _clock_init                               - Undefined Weak Reference
    _microlib_exit                            - Undefined Weak Reference
    __Vectors_Size                           0x000000ec   Number         0  startup_stm32f103x6.o ABSOLUTE
    __Vectors                                0x08000000   Data           4  startup_stm32f103x6.o(RESET)
    __Vectors_End                            0x080000ec   Data           0  startup_stm32f103x6.o(RESET)
    __main                                   0x080000ed   Thumb Code     0  entry.o(.ARM.Collect$$$$00000000)
    _main_stk                                0x080000ed   Thumb Code     0  entry2.o(.ARM.Collect$$$$00000001)
    _main_scatterload                        0x080000f1   Thumb Code     0  entry5.o(.ARM.Collect$$$$00000004)
    __main_after_scatterload                 0x080000f5   Thumb Code     0  entry5.o(.ARM.Collect$$$$00000004)
    _main_clock                              0x080000f5   Thumb Code     0  entry7b.o(.ARM.Collect$$$$00000008)
    _main_cpp_init                           0x080000f5   Thumb Code     0  entry8b.o(.ARM.Collect$$$$0000000A)
    _main_init                               0x080000f5   Thumb Code     0  entry9a.o(.ARM.Collect$$$$0000000B)
    __rt_final_cpp                           0x080000fd   Thumb Code     0  entry10a.o(.ARM.Collect$$$$0000000D)
    __rt_final_exit                          0x080000fd   Thumb Code     0  entry11a.o(.ARM.Collect$$$$0000000F)
    Reset_Handler                            0x08000101   Thumb Code     8  startup_stm32f103x6.o(.text)
    ADC1_2_IRQHandler                        0x0800011b   Thumb Code     0  startup_stm32f103x6.o(.text)
    CAN1_RX1_IRQHandler                      0x0800011b   Thumb Code     0  startup_stm32f103x6.o(.text)
    CAN1_SCE_IRQHandler                      0x0800011b   Thumb Code     0  startup_stm32f103x6.o(.text)
    DMA1_Channel1_IRQHandler                 0x0800011b   Thumb Code     0  startup_stm32f103x6.o(.text)
    DMA1_Channel2_IRQHandler                 0x0800011b   Thumb Code     0  startup_stm32f103x6.o(.text)
    DMA1_Channel3_IRQHandler                 0x0800011b   Thumb Code     0  startup_stm32f103x6.o(.text)
    EXTI0_IRQHandler                         0x0800011b   Thumb Code     0  startup_stm32f103x6.o(.text)
    EXTI15_10_IRQHandler                     0x0800011b   Thumb Code     0  startup_stm32f103x6.o(.text)
    EXTI1_IRQHandler                         0x0800011b   Thumb Code     0  startup_stm32f103x6.o(.text)
    EXTI2_IRQHandler                         0x0800011b   Thumb Code     0  startup_stm32f103x6.o(.text)
    EXTI3_IRQHandler                         0x0800011b   Thumb Code     0  startup_stm32f103x6.o(.text)
    EXTI4_IRQHandler                         0x0800011b   Thumb Code     0  startup_stm32f103x6.o(.text)
    EXTI9_5_IRQHandler                       0x0800011b   Thumb Code     0  startup_stm32f103x6.o(.text)
    FLASH_IRQHandler                         0x0800011b   Thumb Code     0  startup_stm32f103x6.o(.text)
    I2C1_ER_IRQHandler                       0x0800011b   Thumb Code     0  startup_stm32f103x6.o(.text)
    I2C1_EV_IRQHandler                       0x0800011b   Thumb Code     0  startup_stm32f103x6.o(.text)
    PVD_IRQHandler                           0x0800011b   Thumb Code     0  startup_stm32f103x6.o(.text)
    RCC_IRQHandler                           0x0800011b   Thumb Code     0  startup_stm32f103x6.o(.text)
    RTC_Alarm_IRQHandler                     0x0800011b   Thumb Code     0  startup_stm32f103x6.o(.text)
    RTC_IRQHandler                           0x0800011b   Thumb Code     0  startup_stm32f103x6.o(.text)
    SPI1_IRQHandler                          0x0800011b   Thumb Code     0  startup_stm32f103x6.o(.text)
    TAMPER_IRQHandler                        0x0800011b   Thumb Code     0  startup_stm32f103x6.o(.text)
    TIM1_BRK_IRQHandler                      0x0800011b   Thumb Code     0  startup_stm32f103x6.o(.text)
    TIM1_CC_IRQHandler                       0x0800011b   Thumb Code     0  startup_stm32f103x6.o(.text)
    TIM1_TRG_COM_IRQHandler                  0x0800011b   Thumb Code     0  startup_stm32f103x6.o(.text)
    TIM1_UP_IRQHandler                       0x0800011b   Thumb Code     0  startup_stm32f103x6.o(.text)
    TIM2_IRQHandler                          0x0800011b   Thumb Code     0  startup_stm32f103x6.o(.text)
    USBWakeUp_IRQHandler                     0x0800011b   Thumb Code     0  startup_stm32f103x6.o(.text)
    USB_HP_CAN1_TX_IRQHandler                0x0800011b   Thumb Code     0  startup_stm32f103x6.o(.text)
    USB_LP_CAN1_RX0_IRQHandler               0x0800011b   Thumb Code     0  startup_stm32f103x6.o(.text)
    WWDG_IRQHandler                          0x0800011b   Thumb Code     0  startup_stm32f103x6.o(.text)
    __aeabi_llsr                             0x08000125   Thumb Code    32  llushr.o(.text)
    _ll_ushift_r                             0x08000125   Thumb Code     0  llushr.o(.text)
    __aeabi_memcpy                           0x08000145   Thumb Code    36  memcpya.o(.text)
    __aeabi_memcpy4                          0x08000145   Thumb Code     0  memcpya.o(.text)
    __aeabi_memcpy8                          0x08000145   Thumb Code     0  memcpya.o(.text)
    __aeabi_memset                           0x08000169   Thumb Code    14  memseta.o(.text)
    __aeabi_memset4                          0x08000169   Thumb Code     0  memseta.o(.text)
    __aeabi_memset8                          0x08000169   Thumb Code     0  memseta.o(.text)
    __aeabi_memclr                           0x08000177   Thumb Code     4  memseta.o(.text)
    __aeabi_memclr4                          0x08000177   Thumb Code     0  memseta.o(.text)
    __aeabi_memclr8                          0x08000177   Thumb Code     0  memseta.o(.text)
    _memset$wrapper                          0x0800017b   Thumb Code    18  memseta.o(.text)
    __scatterload                            0x0800018d   Thumb Code    28  init.o(.text)
    __scatterload_rt2                        0x0800018d   Thumb Code     0  init.o(.text)
    BusFault_Handler                         0x080001b1   Thumb Code     2  stm32f1xx_it.o(i.BusFault_Handler)
    DMA1_Channel4_IRQHandler                 0x080001b5   Thumb Code     6  stm32f1xx_it.o(i.DMA1_Channel4_IRQHandler)
    DMA1_Channel5_IRQHandler                 0x080001c1   Thumb Code     6  stm32f1xx_it.o(i.DMA1_Channel5_IRQHandler)
    DMA1_Channel6_IRQHandler                 0x080001cd   Thumb Code     6  stm32f1xx_it.o(i.DMA1_Channel6_IRQHandler)
    DMA1_Channel7_IRQHandler                 0x080001d9   Thumb Code     6  stm32f1xx_it.o(i.DMA1_Channel7_IRQHandler)
    DebugMon_Handler                         0x080001e5   Thumb Code     2  stm32f1xx_it.o(i.DebugMon_Handler)
    Error_Handler                            0x080001e7   Thumb Code     4  main.o(i.Error_Handler)
    FLASH_PageErase                          0x08000211   Thumb Code    28  stm32f1xx_hal_flash_ex.o(i.FLASH_PageErase)
    FLASH_Read                               0x08000251   Thumb Code    64  flash.o(i.FLASH_Read)
    FLASH_WaitForLastOperation               0x080002f1   Thumb Code    80  stm32f1xx_hal_flash.o(i.FLASH_WaitForLastOperation)
    FLASH_Write                              0x08000345   Thumb Code   228  flash.o(i.FLASH_Write)
    FLASH_WriteNotCheck                      0x0800042d   Thumb Code    62  flash.o(i.FLASH_WriteNotCheck)
    Get_Data_Fram                            0x08000471   Thumb Code   154  message.o(i.Get_Data_Fram)
    HAL_DMA_Abort                            0x08000511   Thumb Code    70  stm32f1xx_hal_dma.o(i.HAL_DMA_Abort)
    HAL_DMA_Abort_IT                         0x08000559   Thumb Code   148  stm32f1xx_hal_dma.o(i.HAL_DMA_Abort_IT)
    HAL_DMA_IRQHandler                       0x080005f1   Thumb Code   316  stm32f1xx_hal_dma.o(i.HAL_DMA_IRQHandler)
    HAL_DMA_Init                             0x08000745   Thumb Code    84  stm32f1xx_hal_dma.o(i.HAL_DMA_Init)
    HAL_Delay                                0x080007a1   Thumb Code    32  stm32f1xx_hal.o(i.HAL_Delay)
    HAL_FLASHEx_Erase                        0x080007c5   Thumb Code   160  stm32f1xx_hal_flash_ex.o(i.HAL_FLASHEx_Erase)
    HAL_FLASH_Lock                           0x0800086d   Thumb Code    14  stm32f1xx_hal_flash.o(i.HAL_FLASH_Lock)
    HAL_FLASH_Program                        0x08000881   Thumb Code   120  stm32f1xx_hal_flash.o(i.HAL_FLASH_Program)
    HAL_FLASH_Unlock                         0x08000901   Thumb Code    28  stm32f1xx_hal_flash.o(i.HAL_FLASH_Unlock)
    HAL_GPIO_Init                            0x08000929   Thumb Code   418  stm32f1xx_hal_gpio.o(i.HAL_GPIO_Init)
    HAL_GPIO_ReadPin                         0x08000ae9   Thumb Code    10  stm32f1xx_hal_gpio.o(i.HAL_GPIO_ReadPin)
    HAL_GPIO_TogglePin                       0x08000af3   Thumb Code    16  stm32f1xx_hal_gpio.o(i.HAL_GPIO_TogglePin)
    HAL_GPIO_WritePin                        0x08000b03   Thumb Code    10  stm32f1xx_hal_gpio.o(i.HAL_GPIO_WritePin)
    HAL_GetTick                              0x08000b0d   Thumb Code     6  stm32f1xx_hal.o(i.HAL_GetTick)
    HAL_IncTick                              0x08000b19   Thumb Code    12  stm32f1xx_hal.o(i.HAL_IncTick)
    HAL_Init                                 0x08000b29   Thumb Code    32  stm32f1xx_hal.o(i.HAL_Init)
    HAL_InitTick                             0x08000b4d   Thumb Code    54  stm32f1xx_hal.o(i.HAL_InitTick)
    HAL_MspInit                              0x08000b8d   Thumb Code    52  stm32f1xx_hal_msp.o(i.HAL_MspInit)
    HAL_NVIC_EnableIRQ                       0x08000bc9   Thumb Code    26  stm32f1xx_hal_cortex.o(i.HAL_NVIC_EnableIRQ)
    HAL_NVIC_SetPriority                     0x08000be5   Thumb Code    60  stm32f1xx_hal_cortex.o(i.HAL_NVIC_SetPriority)
    HAL_NVIC_SetPriorityGrouping             0x08000c25   Thumb Code    26  stm32f1xx_hal_cortex.o(i.HAL_NVIC_SetPriorityGrouping)
    HAL_RCC_ClockConfig                      0x08000c49   Thumb Code   280  stm32f1xx_hal_rcc.o(i.HAL_RCC_ClockConfig)
    HAL_RCC_GetPCLK1Freq                     0x08000d75   Thumb Code    20  stm32f1xx_hal_rcc.o(i.HAL_RCC_GetPCLK1Freq)
    HAL_RCC_GetPCLK2Freq                     0x08000d95   Thumb Code    20  stm32f1xx_hal_rcc.o(i.HAL_RCC_GetPCLK2Freq)
    HAL_RCC_GetSysClockFreq                  0x08000db5   Thumb Code    74  stm32f1xx_hal_rcc.o(i.HAL_RCC_GetSysClockFreq)
    HAL_RCC_OscConfig                        0x08000e21   Thumb Code   778  stm32f1xx_hal_rcc.o(i.HAL_RCC_OscConfig)
    HAL_SYSTICK_Config                       0x08001141   Thumb Code    40  stm32f1xx_hal_cortex.o(i.HAL_SYSTICK_Config)
    HAL_TIMEx_BreakCallback                  0x08001169   Thumb Code     2  stm32f1xx_hal_tim_ex.o(i.HAL_TIMEx_BreakCallback)
    HAL_TIMEx_CommutCallback                 0x0800116b   Thumb Code     2  stm32f1xx_hal_tim_ex.o(i.HAL_TIMEx_CommutCallback)
    HAL_TIMEx_MasterConfigSynchronization    0x0800116d   Thumb Code    86  stm32f1xx_hal_tim_ex.o(i.HAL_TIMEx_MasterConfigSynchronization)
    HAL_TIM_Base_Init                        0x080011cd   Thumb Code    90  stm32f1xx_hal_tim.o(i.HAL_TIM_Base_Init)
    HAL_TIM_Base_MspInit                     0x08001229   Thumb Code    50  tim.o(i.HAL_TIM_Base_MspInit)
    HAL_TIM_Base_Start_IT                    0x08001265   Thumb Code    70  stm32f1xx_hal_tim.o(i.HAL_TIM_Base_Start_IT)
    HAL_TIM_ConfigClockSource                0x080012b5   Thumb Code   214  stm32f1xx_hal_tim.o(i.HAL_TIM_ConfigClockSource)
    HAL_TIM_IC_CaptureCallback               0x0800138b   Thumb Code     2  stm32f1xx_hal_tim.o(i.HAL_TIM_IC_CaptureCallback)
    HAL_TIM_IRQHandler                       0x0800138d   Thumb Code   358  stm32f1xx_hal_tim.o(i.HAL_TIM_IRQHandler)
    HAL_TIM_OC_DelayElapsedCallback          0x080014f3   Thumb Code     2  stm32f1xx_hal_tim.o(i.HAL_TIM_OC_DelayElapsedCallback)
    HAL_TIM_PWM_PulseFinishedCallback        0x080014f5   Thumb Code     2  stm32f1xx_hal_tim.o(i.HAL_TIM_PWM_PulseFinishedCallback)
    HAL_TIM_PeriodElapsedCallback            0x080014f9   Thumb Code    80  main.o(i.HAL_TIM_PeriodElapsedCallback)
    HAL_TIM_TriggerCallback                  0x08001551   Thumb Code     2  stm32f1xx_hal_tim.o(i.HAL_TIM_TriggerCallback)
    HAL_UARTEx_RxEventCallback               0x08001553   Thumb Code     2  stm32f1xx_hal_uart.o(i.HAL_UARTEx_RxEventCallback)
    HAL_UART_ErrorCallback                   0x08001555   Thumb Code     2  stm32f1xx_hal_uart.o(i.HAL_UART_ErrorCallback)
    HAL_UART_IRQHandler                      0x08001559   Thumb Code   520  stm32f1xx_hal_uart.o(i.HAL_UART_IRQHandler)
    HAL_UART_Init                            0x08001765   Thumb Code    98  stm32f1xx_hal_uart.o(i.HAL_UART_Init)
    HAL_UART_MspInit                         0x080017c9   Thumb Code   390  usart.o(i.HAL_UART_MspInit)
    HAL_UART_Receive_IT                      0x08001969   Thumb Code    42  stm32f1xx_hal_uart.o(i.HAL_UART_Receive_IT)
    HAL_UART_RxCpltCallback                  0x08001995   Thumb Code    62  main.o(i.HAL_UART_RxCpltCallback)
    HAL_UART_Transmit                        0x080019e9   Thumb Code   178  stm32f1xx_hal_uart.o(i.HAL_UART_Transmit)
    HAL_UART_TxCpltCallback                  0x08001a9b   Thumb Code     2  stm32f1xx_hal_uart.o(i.HAL_UART_TxCpltCallback)
    HardFault_Handler                        0x08001a9d   Thumb Code     2  stm32f1xx_it.o(i.HardFault_Handler)
    MX_DMA_Init                              0x08001aa1   Thumb Code    88  dma.o(i.MX_DMA_Init)
    MX_GPIO_Init                             0x08001afd   Thumb Code   178  gpio.o(i.MX_GPIO_Init)
    MX_TIM3_Init                             0x08001bbd   Thumb Code    94  tim.o(i.MX_TIM3_Init)
    MX_USART1_UART_Init                      0x08001c25   Thumb Code    48  usart.o(i.MX_USART1_UART_Init)
    MX_USART2_UART_Init                      0x08001c5d   Thumb Code    48  usart.o(i.MX_USART2_UART_Init)
    MemManage_Handler                        0x08001c95   Thumb Code     2  stm32f1xx_it.o(i.MemManage_Handler)
    NMI_Handler                              0x08001c97   Thumb Code     2  stm32f1xx_it.o(i.NMI_Handler)
    PendSV_Handler                           0x08001c99   Thumb Code     2  stm32f1xx_it.o(i.PendSV_Handler)
    SVC_Handler                              0x08001c9b   Thumb Code     2  stm32f1xx_it.o(i.SVC_Handler)
    SysTick_Handler                          0x08001c9d   Thumb Code     4  stm32f1xx_it.o(i.SysTick_Handler)
    SystemClock_Config                       0x08001ca1   Thumb Code    94  main.o(i.SystemClock_Config)
    SystemInit                               0x08001cff   Thumb Code     2  system_stm32f1xx.o(i.SystemInit)
    TIM3_IRQHandler                          0x08001d01   Thumb Code     6  stm32f1xx_it.o(i.TIM3_IRQHandler)
    TIM_Base_SetConfig                       0x08001d0d   Thumb Code    84  stm32f1xx_hal_tim.o(i.TIM_Base_SetConfig)
    TIM_ETR_SetConfig                        0x08001d69   Thumb Code    20  stm32f1xx_hal_tim.o(i.TIM_ETR_SetConfig)
    UART_Start_Receive_IT                    0x08001f81   Thumb Code    54  stm32f1xx_hal_uart.o(i.UART_Start_Receive_IT)
    USART1_IRQHandler                        0x0800201d   Thumb Code     6  stm32f1xx_it.o(i.USART1_IRQHandler)
    USART2_IRQHandler                        0x08002029   Thumb Code     6  stm32f1xx_it.o(i.USART2_IRQHandler)
    UsageFault_Handler                       0x08002035   Thumb Code     2  stm32f1xx_it.o(i.UsageFault_Handler)
    __0printf$bare                           0x08002039   Thumb Code     8  printfb.o(i.__0printf$bare)
    __1printf$bare                           0x08002039   Thumb Code     0  printfb.o(i.__0printf$bare)
    __2printf                                0x08002039   Thumb Code     0  printfb.o(i.__0printf$bare)
    __scatterload_copy                       0x08002069   Thumb Code    14  handlers.o(i.__scatterload_copy)
    __scatterload_null                       0x08002077   Thumb Code     2  handlers.o(i.__scatterload_null)
    __scatterload_zeroinit                   0x08002079   Thumb Code    14  handlers.o(i.__scatterload_zeroinit)
    change_ID                                0x080020a9   Thumb Code    92  drive.o(i.change_ID)
    check_data                               0x08002111   Thumb Code   106  message.o(i.check_data)
    check_drive                              0x0800218d   Thumb Code   146  drive.o(i.check_drive)
    fputc                                    0x08002231   Thumb Code    20  usart.o(i.fputc)
    free                                     0x08002249   Thumb Code    76  malloc.o(i.free)
    get_sys_clk                              0x08002299   Thumb Code     6  main.o(i.get_sys_clk)
    init_myself                              0x080022a5   Thumb Code    78  drive.o(i.init_myself)
    key_drive_oper                           0x080022fd   Thumb Code   192  drive.o(i.key_drive_oper)
    key_scan                                 0x08002421   Thumb Code   154  drive.o(i.key_scan)
    main                                     0x08002525   Thumb Code   110  main.o(i.main)
    malloc                                   0x080025b1   Thumb Code    92  malloc.o(i.malloc)
    message_init                             0x0800261d   Thumb Code    36  message.o(i.message_init)
    polling                                  0x08002645   Thumb Code   408  message.o(i.polling)
    report_heartbeat                         0x080027ed   Thumb Code   200  drive.o(i.report_heartbeat)
    send_message                             0x080028c1   Thumb Code   116  message.o(i.send_message)
    AHBPrescTable                            0x08002938   Data          16  system_stm32f1xx.o(.constdata)
    APBPrescTable                            0x08002948   Data           8  system_stm32f1xx.o(.constdata)
    Region$$Table$$Base                      0x08002950   Number         0  anon$$obj.o(Region$$Table)
    Region$$Table$$Limit                     0x08002970   Number         0  anon$$obj.o(Region$$Table)
    flip_100ms                               0x20000000   Data           1  main.o(.data)
    wait_init_time_flag                      0x20000001   Data           1  main.o(.data)
    flash_test                               0x20000002   Data           2  main.o(.data)
    uart_message                             0x20000006   Data           2  main.o(.data)
    sys_time                                 0x20000008   Data           4  main.o(.data)
    __stdout                                 0x2000000c   Data           4  usart.o(.data)
    uwTickFreq                               0x20000010   Data           1  stm32f1xx_hal.o(.data)
    uwTickPrio                               0x20000014   Data           4  stm32f1xx_hal.o(.data)
    uwTick                                   0x20000018   Data           4  stm32f1xx_hal.o(.data)
    SystemCoreClock                          0x2000001c   Data           4  system_stm32f1xx.o(.data)
    operation_flag                           0x20000020   Data           1  drive.o(.data)
    drive_myself                             0x20000024   Data           4  drive.o(.data)
    frem_read_end                            0x20000028   Data           1  message.o(.data)
    message_fram                             0x20000030   Data           4  message.o(.data)
    send_fram                                0x20000034   Data           4  message.o(.data)
    __microlib_freelist                      0x20000038   Data           4  mvars.o(.data)
    __microlib_freelist_initialised          0x2000003c   Data           4  mvars.o(.data)
    htim3                                    0x20000040   Data          72  tim.o(.bss)
    huart1                                   0x20000088   Data          68  usart.o(.bss)
    huart2                                   0x200000cc   Data          68  usart.o(.bss)
    hdma_usart1_rx                           0x20000110   Data          68  usart.o(.bss)
    hdma_usart1_tx                           0x20000154   Data          68  usart.o(.bss)
    hdma_usart2_rx                           0x20000198   Data          68  usart.o(.bss)
    hdma_usart2_tx                           0x200001dc   Data          68  usart.o(.bss)
    pFlash                                   0x20000220   Data          32  stm32f1xx_hal_flash.o(.bss)
    __heap_base                              0x20000650   Data           0  startup_stm32f103x6.o(HEAP)
    __heap_limit                             0x20001550   Data           0  startup_stm32f103x6.o(HEAP)
    __initial_sp                             0x20002450   Data           0  startup_stm32f103x6.o(STACK)



==============================================================================

Memory Map of the image

  Image Entry point : 0x080000ed

  Load Region LR_IROM1 (Base: 0x08000000, Size: 0x000029b0, Max: 0x00008000, ABSOLUTE)

    Execution Region ER_IROM1 (Exec base: 0x08000000, Load base: 0x08000000, Size: 0x00002970, Max: 0x00008000, ABSOLUTE)

    Exec Addr    Load Addr    Size         Type   Attr      Idx    E Section Name        Object

    0x08000000   0x08000000   0x000000ec   Data   RO            3    RESET               startup_stm32f103x6.o
    0x080000ec   0x080000ec   0x00000000   Code   RO         3059  * .ARM.Collect$$$$00000000  mc_w.l(entry.o)
    0x080000ec   0x080000ec   0x00000004   Code   RO         3358    .ARM.Collect$$$$00000001  mc_w.l(entry2.o)
    0x080000f0   0x080000f0   0x00000004   Code   RO         3361    .ARM.Collect$$$$00000004  mc_w.l(entry5.o)
    0x080000f4   0x080000f4   0x00000000   Code   RO         3363    .ARM.Collect$$$$00000008  mc_w.l(entry7b.o)
    0x080000f4   0x080000f4   0x00000000   Code   RO         3365    .ARM.Collect$$$$0000000A  mc_w.l(entry8b.o)
    0x080000f4   0x080000f4   0x00000008   Code   RO         3366    .ARM.Collect$$$$0000000B  mc_w.l(entry9a.o)
    0x080000fc   0x080000fc   0x00000000   Code   RO         3368    .ARM.Collect$$$$0000000D  mc_w.l(entry10a.o)
    0x080000fc   0x080000fc   0x00000000   Code   RO         3370    .ARM.Collect$$$$0000000F  mc_w.l(entry11a.o)
    0x080000fc   0x080000fc   0x00000004   Code   RO         3359    .ARM.Collect$$$$00002712  mc_w.l(entry2.o)
    0x08000100   0x08000100   0x00000024   Code   RO            4    .text               startup_stm32f103x6.o
    0x08000124   0x08000124   0x00000020   Code   RO         3062    .text               mc_w.l(llushr.o)
    0x08000144   0x08000144   0x00000024   Code   RO         3064    .text               mc_w.l(memcpya.o)
    0x08000168   0x08000168   0x00000024   Code   RO         3066    .text               mc_w.l(memseta.o)
    0x0800018c   0x0800018c   0x00000024   Code   RO         3389    .text               mc_w.l(init.o)
    0x080001b0   0x080001b0   0x00000002   Code   RO          361    i.BusFault_Handler  stm32f1xx_it.o
    0x080001b2   0x080001b2   0x00000002   PAD
    0x080001b4   0x080001b4   0x0000000c   Code   RO          362    i.DMA1_Channel4_IRQHandler  stm32f1xx_it.o
    0x080001c0   0x080001c0   0x0000000c   Code   RO          363    i.DMA1_Channel5_IRQHandler  stm32f1xx_it.o
    0x080001cc   0x080001cc   0x0000000c   Code   RO          364    i.DMA1_Channel6_IRQHandler  stm32f1xx_it.o
    0x080001d8   0x080001d8   0x0000000c   Code   RO          365    i.DMA1_Channel7_IRQHandler  stm32f1xx_it.o
    0x080001e4   0x080001e4   0x00000002   Code   RO          366    i.DebugMon_Handler  stm32f1xx_it.o
    0x080001e6   0x080001e6   0x00000004   Code   RO           13    i.Error_Handler     main.o
    0x080001ea   0x080001ea   0x00000002   PAD
    0x080001ec   0x080001ec   0x00000024   Code   RO         2330    i.FLASH_MassErase   stm32f1xx_hal_flash_ex.o
    0x08000210   0x08000210   0x00000024   Code   RO         2333    i.FLASH_PageErase   stm32f1xx_hal_flash_ex.o
    0x08000234   0x08000234   0x0000001c   Code   RO         2227    i.FLASH_Program_HalfWord  stm32f1xx_hal_flash.o
    0x08000250   0x08000250   0x00000044   Code   RO         2946    i.FLASH_Read        flash.o
    0x08000294   0x08000294   0x0000005c   Code   RO         2228    i.FLASH_SetErrorCode  stm32f1xx_hal_flash.o
    0x080002f0   0x080002f0   0x00000054   Code   RO         2229    i.FLASH_WaitForLastOperation  stm32f1xx_hal_flash.o
    0x08000344   0x08000344   0x000000e8   Code   RO         2948    i.FLASH_Write       flash.o
    0x0800042c   0x0800042c   0x00000044   Code   RO         2949    i.FLASH_WriteNotCheck  flash.o
    0x08000470   0x08000470   0x000000a0   Code   RO         3006    i.Get_Data_Fram     message.o
    0x08000510   0x08000510   0x00000046   Code   RO         1891    i.HAL_DMA_Abort     stm32f1xx_hal_dma.o
    0x08000556   0x08000556   0x00000002   PAD
    0x08000558   0x08000558   0x00000098   Code   RO         1892    i.HAL_DMA_Abort_IT  stm32f1xx_hal_dma.o
    0x080005f0   0x080005f0   0x00000154   Code   RO         1896    i.HAL_DMA_IRQHandler  stm32f1xx_hal_dma.o
    0x08000744   0x08000744   0x0000005c   Code   RO         1897    i.HAL_DMA_Init      stm32f1xx_hal_dma.o
    0x080007a0   0x080007a0   0x00000024   Code   RO         1519    i.HAL_Delay         stm32f1xx_hal.o
    0x080007c4   0x080007c4   0x000000a8   Code   RO         2334    i.HAL_FLASHEx_Erase  stm32f1xx_hal_flash_ex.o
    0x0800086c   0x0800086c   0x00000014   Code   RO         2233    i.HAL_FLASH_Lock    stm32f1xx_hal_flash.o
    0x08000880   0x08000880   0x00000080   Code   RO         2238    i.HAL_FLASH_Program  stm32f1xx_hal_flash.o
    0x08000900   0x08000900   0x00000028   Code   RO         2240    i.HAL_FLASH_Unlock  stm32f1xx_hal_flash.o
    0x08000928   0x08000928   0x000001c0   Code   RO         1827    i.HAL_GPIO_Init     stm32f1xx_hal_gpio.o
    0x08000ae8   0x08000ae8   0x0000000a   Code   RO         1829    i.HAL_GPIO_ReadPin  stm32f1xx_hal_gpio.o
    0x08000af2   0x08000af2   0x00000010   Code   RO         1830    i.HAL_GPIO_TogglePin  stm32f1xx_hal_gpio.o
    0x08000b02   0x08000b02   0x0000000a   Code   RO         1831    i.HAL_GPIO_WritePin  stm32f1xx_hal_gpio.o
    0x08000b0c   0x08000b0c   0x0000000c   Code   RO         1523    i.HAL_GetTick       stm32f1xx_hal.o
    0x08000b18   0x08000b18   0x00000010   Code   RO         1529    i.HAL_IncTick       stm32f1xx_hal.o
    0x08000b28   0x08000b28   0x00000024   Code   RO         1530    i.HAL_Init          stm32f1xx_hal.o
    0x08000b4c   0x08000b4c   0x00000040   Code   RO         1531    i.HAL_InitTick      stm32f1xx_hal.o
    0x08000b8c   0x08000b8c   0x0000003c   Code   RO          479    i.HAL_MspInit       stm32f1xx_hal_msp.o
    0x08000bc8   0x08000bc8   0x0000001a   Code   RO         1987    i.HAL_NVIC_EnableIRQ  stm32f1xx_hal_cortex.o
    0x08000be2   0x08000be2   0x00000002   PAD
    0x08000be4   0x08000be4   0x00000040   Code   RO         1993    i.HAL_NVIC_SetPriority  stm32f1xx_hal_cortex.o
    0x08000c24   0x08000c24   0x00000024   Code   RO         1994    i.HAL_NVIC_SetPriorityGrouping  stm32f1xx_hal_cortex.o
    0x08000c48   0x08000c48   0x0000012c   Code   RO         1687    i.HAL_RCC_ClockConfig  stm32f1xx_hal_rcc.o
    0x08000d74   0x08000d74   0x00000020   Code   RO         1694    i.HAL_RCC_GetPCLK1Freq  stm32f1xx_hal_rcc.o
    0x08000d94   0x08000d94   0x00000020   Code   RO         1695    i.HAL_RCC_GetPCLK2Freq  stm32f1xx_hal_rcc.o
    0x08000db4   0x08000db4   0x0000006c   Code   RO         1696    i.HAL_RCC_GetSysClockFreq  stm32f1xx_hal_rcc.o
    0x08000e20   0x08000e20   0x00000320   Code   RO         1699    i.HAL_RCC_OscConfig  stm32f1xx_hal_rcc.o
    0x08001140   0x08001140   0x00000028   Code   RO         1998    i.HAL_SYSTICK_Config  stm32f1xx_hal_cortex.o
    0x08001168   0x08001168   0x00000002   Code   RO         1245    i.HAL_TIMEx_BreakCallback  stm32f1xx_hal_tim_ex.o
    0x0800116a   0x0800116a   0x00000002   Code   RO         1246    i.HAL_TIMEx_CommutCallback  stm32f1xx_hal_tim_ex.o
    0x0800116c   0x0800116c   0x00000060   Code   RO         1264    i.HAL_TIMEx_MasterConfigSynchronization  stm32f1xx_hal_tim_ex.o
    0x080011cc   0x080011cc   0x0000005a   Code   RO          541    i.HAL_TIM_Base_Init  stm32f1xx_hal_tim.o
    0x08001226   0x08001226   0x00000002   PAD
    0x08001228   0x08001228   0x0000003c   Code   RO          255    i.HAL_TIM_Base_MspInit  tim.o
    0x08001264   0x08001264   0x00000050   Code   RO          546    i.HAL_TIM_Base_Start_IT  stm32f1xx_hal_tim.o
    0x080012b4   0x080012b4   0x000000d6   Code   RO          550    i.HAL_TIM_ConfigClockSource  stm32f1xx_hal_tim.o
    0x0800138a   0x0800138a   0x00000002   Code   RO          575    i.HAL_TIM_IC_CaptureCallback  stm32f1xx_hal_tim.o
    0x0800138c   0x0800138c   0x00000166   Code   RO          589    i.HAL_TIM_IRQHandler  stm32f1xx_hal_tim.o
    0x080014f2   0x080014f2   0x00000002   Code   RO          592    i.HAL_TIM_OC_DelayElapsedCallback  stm32f1xx_hal_tim.o
    0x080014f4   0x080014f4   0x00000002   Code   RO          619    i.HAL_TIM_PWM_PulseFinishedCallback  stm32f1xx_hal_tim.o
    0x080014f6   0x080014f6   0x00000002   PAD
    0x080014f8   0x080014f8   0x00000058   Code   RO           14    i.HAL_TIM_PeriodElapsedCallback  main.o
    0x08001550   0x08001550   0x00000002   Code   RO          632    i.HAL_TIM_TriggerCallback  stm32f1xx_hal_tim.o
    0x08001552   0x08001552   0x00000002   Code   RO         2488    i.HAL_UARTEx_RxEventCallback  stm32f1xx_hal_uart.o
    0x08001554   0x08001554   0x00000002   Code   RO         2502    i.HAL_UART_ErrorCallback  stm32f1xx_hal_uart.o
    0x08001556   0x08001556   0x00000002   PAD
    0x08001558   0x08001558   0x0000020c   Code   RO         2505    i.HAL_UART_IRQHandler  stm32f1xx_hal_uart.o
    0x08001764   0x08001764   0x00000062   Code   RO         2506    i.HAL_UART_Init     stm32f1xx_hal_uart.o
    0x080017c6   0x080017c6   0x00000002   PAD
    0x080017c8   0x080017c8   0x000001a0   Code   RO          297    i.HAL_UART_MspInit  usart.o
    0x08001968   0x08001968   0x0000002a   Code   RO         2511    i.HAL_UART_Receive_IT  stm32f1xx_hal_uart.o
    0x08001992   0x08001992   0x00000002   PAD
    0x08001994   0x08001994   0x00000054   Code   RO           15    i.HAL_UART_RxCpltCallback  main.o
    0x080019e8   0x080019e8   0x000000b2   Code   RO         2514    i.HAL_UART_Transmit  stm32f1xx_hal_uart.o
    0x08001a9a   0x08001a9a   0x00000002   Code   RO         2517    i.HAL_UART_TxCpltCallback  stm32f1xx_hal_uart.o
    0x08001a9c   0x08001a9c   0x00000002   Code   RO          367    i.HardFault_Handler  stm32f1xx_it.o
    0x08001a9e   0x08001a9e   0x00000002   PAD
    0x08001aa0   0x08001aa0   0x0000005c   Code   RO          230    i.MX_DMA_Init       dma.o
    0x08001afc   0x08001afc   0x000000c0   Code   RO          202    i.MX_GPIO_Init      gpio.o
    0x08001bbc   0x08001bbc   0x00000068   Code   RO          256    i.MX_TIM3_Init      tim.o
    0x08001c24   0x08001c24   0x00000038   Code   RO          298    i.MX_USART1_UART_Init  usart.o
    0x08001c5c   0x08001c5c   0x00000038   Code   RO          299    i.MX_USART2_UART_Init  usart.o
    0x08001c94   0x08001c94   0x00000002   Code   RO          368    i.MemManage_Handler  stm32f1xx_it.o
    0x08001c96   0x08001c96   0x00000002   Code   RO          369    i.NMI_Handler       stm32f1xx_it.o
    0x08001c98   0x08001c98   0x00000002   Code   RO          370    i.PendSV_Handler    stm32f1xx_it.o
    0x08001c9a   0x08001c9a   0x00000002   Code   RO          371    i.SVC_Handler       stm32f1xx_it.o
    0x08001c9c   0x08001c9c   0x00000004   Code   RO          372    i.SysTick_Handler   stm32f1xx_it.o
    0x08001ca0   0x08001ca0   0x0000005e   Code   RO           16    i.SystemClock_Config  main.o
    0x08001cfe   0x08001cfe   0x00000002   Code   RO         2835    i.SystemInit        system_stm32f1xx.o
    0x08001d00   0x08001d00   0x0000000c   Code   RO          373    i.TIM3_IRQHandler   stm32f1xx_it.o
    0x08001d0c   0x08001d0c   0x0000005c   Code   RO          634    i.TIM_Base_SetConfig  stm32f1xx_hal_tim.o
    0x08001d68   0x08001d68   0x00000014   Code   RO          645    i.TIM_ETR_SetConfig  stm32f1xx_hal_tim.o
    0x08001d7c   0x08001d7c   0x00000010   Code   RO          646    i.TIM_ITRx_SetConfig  stm32f1xx_hal_tim.o
    0x08001d8c   0x08001d8c   0x00000022   Code   RO          652    i.TIM_TI1_ConfigInputStage  stm32f1xx_hal_tim.o
    0x08001dae   0x08001dae   0x00000024   Code   RO          654    i.TIM_TI2_ConfigInputStage  stm32f1xx_hal_tim.o
    0x08001dd2   0x08001dd2   0x00000010   Code   RO         2519    i.UART_DMAAbortOnError  stm32f1xx_hal_uart.o
    0x08001de2   0x08001de2   0x00000030   Code   RO         2529    i.UART_EndRxTransfer  stm32f1xx_hal_uart.o
    0x08001e12   0x08001e12   0x000000b6   Code   RO         2531    i.UART_Receive_IT   stm32f1xx_hal_uart.o
    0x08001ec8   0x08001ec8   0x000000b8   Code   RO         2532    i.UART_SetConfig    stm32f1xx_hal_uart.o
    0x08001f80   0x08001f80   0x00000036   Code   RO         2534    i.UART_Start_Receive_IT  stm32f1xx_hal_uart.o
    0x08001fb6   0x08001fb6   0x00000064   Code   RO         2535    i.UART_WaitOnFlagUntilTimeout  stm32f1xx_hal_uart.o
    0x0800201a   0x0800201a   0x00000002   PAD
    0x0800201c   0x0800201c   0x0000000c   Code   RO          374    i.USART1_IRQHandler  stm32f1xx_it.o
    0x08002028   0x08002028   0x0000000c   Code   RO          375    i.USART2_IRQHandler  stm32f1xx_it.o
    0x08002034   0x08002034   0x00000002   Code   RO          376    i.UsageFault_Handler  stm32f1xx_it.o
    0x08002036   0x08002036   0x00000002   PAD
    0x08002038   0x08002038   0x00000010   Code   RO         3071    i.__0printf$bare    mc_w.l(printfb.o)
    0x08002048   0x08002048   0x00000020   Code   RO         2000    i.__NVIC_SetPriority  stm32f1xx_hal_cortex.o
    0x08002068   0x08002068   0x0000000e   Code   RO         3399    i.__scatterload_copy  mc_w.l(handlers.o)
    0x08002076   0x08002076   0x00000002   Code   RO         3400    i.__scatterload_null  mc_w.l(handlers.o)
    0x08002078   0x08002078   0x0000000e   Code   RO         3401    i.__scatterload_zeroinit  mc_w.l(handlers.o)
    0x08002086   0x08002086   0x00000022   Code   RO         3078    i._printf_core      mc_w.l(printfb.o)
    0x080020a8   0x080020a8   0x00000068   Code   RO         2872    i.change_ID         drive.o
    0x08002110   0x08002110   0x0000007c   Code   RO         3007    i.check_data        message.o
    0x0800218c   0x0800218c   0x000000a4   Code   RO         2873    i.check_drive       drive.o
    0x08002230   0x08002230   0x00000018   Code   RO          301    i.fputc             usart.o
    0x08002248   0x08002248   0x00000050   Code   RO         3330    i.free              mc_w.l(malloc.o)
    0x08002298   0x08002298   0x0000000c   Code   RO           18    i.get_sys_clk       main.o
    0x080022a4   0x080022a4   0x00000058   Code   RO         2874    i.init_myself       drive.o
    0x080022fc   0x080022fc   0x000000cc   Code   RO         2875    i.key_drive_oper    drive.o
    0x080023c8   0x080023c8   0x00000058   Code   RO         2876    i.key_led_Toggle    drive.o
    0x08002420   0x08002420   0x000000a8   Code   RO         2877    i.key_scan          drive.o
    0x080024c8   0x080024c8   0x0000005c   Code   RO         2878    i.key_scan_call     drive.o
    0x08002524   0x08002524   0x0000008c   Code   RO           19    i.main              main.o
    0x080025b0   0x080025b0   0x0000006c   Code   RO         3331    i.malloc            mc_w.l(malloc.o)
    0x0800261c   0x0800261c   0x00000028   Code   RO         3008    i.message_init      message.o
    0x08002644   0x08002644   0x000001a8   Code   RO         3009    i.polling           message.o
    0x080027ec   0x080027ec   0x000000d4   Code   RO         2879    i.report_heartbeat  drive.o
    0x080028c0   0x080028c0   0x00000078   Code   RO         3010    i.send_message      message.o
    0x08002938   0x08002938   0x00000010   Data   RO         2836    .constdata          system_stm32f1xx.o
    0x08002948   0x08002948   0x00000008   Data   RO         2837    .constdata          system_stm32f1xx.o
    0x08002950   0x08002950   0x00000020   Data   RO         3397    Region$$Table       anon$$obj.o


    Execution Region RW_IRAM1 (Exec base: 0x20000000, Load base: 0x08002970, Size: 0x00002450, Max: 0x00002800, ABSOLUTE)

    Exec Addr    Load Addr    Size         Type   Attr      Idx    E Section Name        Object

    0x20000000   0x08002970   0x0000000c   Data   RW           20    .data               main.o
    0x2000000c   0x0800297c   0x00000004   Data   RW          303    .data               usart.o
    0x20000010   0x08002980   0x0000000c   Data   RW         1537    .data               stm32f1xx_hal.o
    0x2000001c   0x0800298c   0x00000004   Data   RW         2838    .data               system_stm32f1xx.o
    0x20000020   0x08002990   0x00000008   Data   RW         2881    .data               drive.o
    0x20000028   0x08002998   0x00000010   Data   RW         3011    .data               message.o
    0x20000038   0x080029a8   0x00000004   Data   RW         3376    .data               mc_w.l(mvars.o)
    0x2000003c   0x080029ac   0x00000004   Data   RW         3377    .data               mc_w.l(mvars.o)
    0x20000040        -       0x00000048   Zero   RW          257    .bss                tim.o
    0x20000088        -       0x00000198   Zero   RW          302    .bss                usart.o
    0x20000220        -       0x00000020   Zero   RW         2241    .bss                stm32f1xx_hal_flash.o
    0x20000240        -       0x0000000a   Zero   RW         2880    .bss                drive.o
    0x2000024a        -       0x00000400   Zero   RW         2951    .bss                flash.o
    0x2000064a   0x080029b0   0x00000006   PAD
    0x20000650        -       0x00000f00   Zero   RW            2    HEAP                startup_stm32f103x6.o
    0x20001550        -       0x00000f00   Zero   RW            1    STACK               startup_stm32f103x6.o


==============================================================================

Image component sizes


      Code (inc. data)   RO Data    RW Data    ZI Data      Debug   Object Name

        92          4          0          0          0        726   dma.o
      1120        114          0          8         10       6098   drive.o
       368         14          0          0       1024       3393   flash.o
       192         14          0          0          0        895   gpio.o
       422         66          0         12          0     426582   main.o
       868         56          0         16          0       5270   message.o
        36          8        236          0       7680        776   startup_stm32f103x6.o
       164         28          0         12          0       5345   stm32f1xx_hal.o
       198         14          0          0          0      28787   stm32f1xx_hal_cortex.o
       654         36          0          0          0       3251   stm32f1xx_hal_dma.o
       392         46          0          0         32       4514   stm32f1xx_hal_flash.o
       240         26          0          0          0       3045   stm32f1xx_hal_flash_ex.o
       484         30          0          0          0       3984   stm32f1xx_hal_gpio.o
        60          8          0          0          0        818   stm32f1xx_hal_msp.o
      1272        100          0          0          0       5028   stm32f1xx_hal_rcc.o
       948         18          0          0          0       9253   stm32f1xx_hal_tim.o
       100         10          0          0          0       2261   stm32f1xx_hal_tim_ex.o
      1432         10          0          0          0      10152   stm32f1xx_hal_uart.o
       104         42          0          0          0       6536   stm32f1xx_it.o
         2          0         24          4          0       1035   system_stm32f1xx.o
       164         20          0          0         72       1554   tim.o
       552         46          0          4        408       4383   usart.o

    ----------------------------------------------------------------------
      9888        710        292         56       9232     533686   Object Totals
         0          0         32          0          0          0   (incl. Generated)
        24          0          0          0          6          0   (incl. Padding)

    ----------------------------------------------------------------------

      Code (inc. data)   RO Data    RW Data    ZI Data      Debug   Library Member Name

         0          0          0          0          0          0   entry.o
         0          0          0          0          0          0   entry10a.o
         0          0          0          0          0          0   entry11a.o
         8          4          0          0          0          0   entry2.o
         4          0          0          0          0          0   entry5.o
         0          0          0          0          0          0   entry7b.o
         0          0          0          0          0          0   entry8b.o
         8          4          0          0          0          0   entry9a.o
        30          0          0          0          0          0   handlers.o
        36          8          0          0          0         68   init.o
        32          0          0          0          0         68   llushr.o
       188         20          0          0          0        160   malloc.o
        36          0          0          0          0         68   memcpya.o
        36          0          0          0          0        108   memseta.o
         0          0          0          8          0          0   mvars.o
        50          8          0          0          0        152   printfb.o

    ----------------------------------------------------------------------
       428         44          0          8          0        624   Library Totals
         0          0          0          0          0          0   (incl. Padding)

    ----------------------------------------------------------------------

      Code (inc. data)   RO Data    RW Data    ZI Data      Debug   Library Name

       428         44          0          8          0        624   mc_w.l

    ----------------------------------------------------------------------
       428         44          0          8          0        624   Library Totals

    ----------------------------------------------------------------------

==============================================================================


      Code (inc. data)   RO Data    RW Data    ZI Data      Debug   

     10316        754        292         64       9232     528794   Grand Totals
     10316        754        292         64       9232     528794   ELF Image Totals
     10316        754        292         64          0          0   ROM Totals

==============================================================================

    Total RO  Size (Code + RO Data)                10608 (  10.36kB)
    Total RW  Size (RW Data + ZI Data)              9296 (   9.08kB)
    Total ROM Size (Code + RO Data + RW Data)      10672 (  10.42kB)

==============================================================================

