Component: ARM Compiler 5.06 update 6 (build 750) Tool: armlink [4d35ed]

==============================================================================

Section Cross References

    dma.o(i.MX_DMA_Init) refers to stm32f1xx_hal_cortex.o(i.HAL_NVIC_SetPriority) for HAL_NVIC_SetPriority
    dma.o(i.MX_DMA_Init) refers to stm32f1xx_hal_cortex.o(i.HAL_NVIC_EnableIRQ) for HAL_NVIC_EnableIRQ
    drive.o(i.change_ID) refers to flash.o(i.FLASH_Write) for FLASH_Write
    drive.o(i.change_ID) refers to drive.o(.data) for .data
    drive.o(i.change_ID) refers to main.o(.data) for wait_init_time_flag
    drive.o(i.check_drive) refers to memcpya.o(.text) for __aeabi_memcpy4
    drive.o(i.check_drive) refers to message.o(i.send_message) for send_message
    drive.o(i.check_drive) refers to main.o(.data) for wait_init_time_flag
    drive.o(i.check_drive) refers to drive.o(.data) for .data
    drive.o(i.check_drive) refers to message.o(.data) for send_fram
    drive.o(i.check_drive) refers to usart.o(.bss) for huart1
    drive.o(i.init_myself) refers to flash.o(i.FLASH_Read) for FLASH_Read
    drive.o(i.init_myself) refers to malloc.o(i.malloc) for malloc
    drive.o(i.init_myself) refers to memseta.o(.text) for __aeabi_memclr4
    drive.o(i.init_myself) refers to drive.o(.data) for .data
    drive.o(i.init_myself) refers to drive.o(.bss) for .bss
    drive.o(i.key_drive_oper) refers to memcpya.o(.text) for __aeabi_memcpy4
    drive.o(i.key_drive_oper) refers to message.o(i.send_message) for send_message
==============================================================================

Removing Unused input sections from the image.

    Removing dma.o(.rev16_text), (4 bytes).
    Removing dma.o(.revsh_text), (4 bytes).
    Removing dma.o(.rrx_text), (6 bytes).
    Removing drive.o(.rev16_text), (4 bytes).
    Removing drive.o(.revsh_text), (4 bytes).
    Removing drive.o(.rrx_text), (6 bytes).
    Removing drive.o(.data), (8 bytes).
    Removing flash.o(.rev16_text), (4 bytes).
    Removing flash.o(.revsh_text), (4 bytes).
    Removing flash.o(.rrx_text), (6 bytes).
    Removing flash.o(i.FLASH_ErasePage), (38 bytes).
    Removing flash.o(i.FLASH_Init), (24 bytes).
    Removing flash.o(i.FLASH_Read_Byte), (22 bytes).
    Removing flash.o(i.FLASH_Write_Byte), (104 bytes).
    Removing gpio.o(.rev16_text), (4 bytes).
    Removing gpio.o(.revsh_text), (4 bytes).
    Removing gpio.o(.rrx_text), (6 bytes).
    Removing main.o(.rev16_text), (4 bytes).
==============================================================================

Image Symbol Table

    Local Symbols

    Symbol Name                              Value     Ov Type        Size  Object(Section)

    ../clib/microlib/division.c              0x00000000   Number         0  uldiv.o ABSOLUTE
    ../clib/microlib/division.c              0x00000000   Number         0  uidiv.o ABSOLUTE
    ../clib/microlib/init/entry.s            0x00000000   Number         0  entry9b.o ABSOLUTE
    ../clib/microlib/init/entry.s            0x00000000   Number         0  entry9a.o ABSOLUTE
    ../clib/microlib/init/entry.s            0x00000000   Number         0  entry8b.o ABSOLUTE
    ../clib/microlib/init/entry.s            0x00000000   Number         0  entry7a.o ABSOLUTE
    ../clib/microlib/init/entry.s            0x00000000   Number         0  entry8a.o ABSOLUTE
    ../clib/microlib/init/entry.s            0x00000000   Number         0  entry10a.o ABSOLUTE
    ../clib/microlib/init/entry.s            0x00000000   Number         0  entry7b.o ABSOLUTE
    ../clib/microlib/init/entry.s            0x00000000   Number         0  entry.o ABSOLUTE
    ../clib/microlib/init/entry.s            0x00000000   Number         0  entry5.o ABSOLUTE
    ../clib/microlib/init/entry.s            0x00000000   Number         0  entry11b.o ABSOLUTE
    ../clib/microlib/init/entry.s            0x00000000   Number         0  entry11a.o ABSOLUTE
    ../clib/microlib/init/entry.s            0x00000000   Number         0  entry2.o ABSOLUTE
    ../clib/microlib/init/entry.s            0x00000000   Number         0  entry10b.o ABSOLUTE
    ../clib/microlib/longlong.c              0x00000000   Number         0  llshl.o ABSOLUTE
    ../clib/microlib/longlong.c              0x00000000   Number         0  llsshr.o ABSOLUTE
    ../clib/microlib/longlong.c              0x00000000   Number         0  llushr.o ABSOLUTE
    ../clib/microlib/malloc/malloc.c         0x00000000   Number         0  mallocr.o ABSOLUTE
    ../clib/microlib/malloc/malloc.c         0x00000000   Number         0  malloca.o ABSOLUTE
    ../clib/microlib/malloc/malloc.c         0x00000000   Number         0  mallocra.o ABSOLUTE
    ../clib/microlib/malloc/malloc.c         0x00000000   Number         0  malloc.o ABSOLUTE
    ../clib/microlib/malloc/mvars.c          0x00000000   Number         0  mvars.o ABSOLUTE
    ../clib/microlib/printf/printf.c         0x00000000   Number         0  printfb.o ABSOLUTE
    ../clib/microlib/printf/printf.c         0x00000000   Number         0  printf5.o ABSOLUTE
    ../clib/microlib/printf/printf.c         0x00000000   Number         0  printf3.o ABSOLUTE
    ../clib/microlib/printf/printf.c         0x00000000   Number         0  printfa.o ABSOLUTE
    ../clib/microlib/printf/printf.c         0x00000000   Number         0  printf8.o ABSOLUTE
    ../clib/microlib/printf/printf.c         0x00000000   Number         0  printf7.o ABSOLUTE
    ../clib/microlib/printf/printf.c         0x00000000   Number         0  printf6.o ABSOLUTE
    ../clib/microlib/printf/printf.c         0x00000000   Number         0  printf0.o ABSOLUTE
    ../clib/microlib/printf/printf.c         0x00000000   Number         0  printf1.o ABSOLUTE
    ../clib/microlib/printf/printf.c         0x00000000   Number         0  printf4.o ABSOLUTE
    ../clib/microlib/printf/printf.c         0x00000000   Number         0  printf2.o ABSOLUTE
    ../clib/microlib/string/memcpy.c         0x00000000   Number         0  memcpya.o ABSOLUTE
    ../clib/microlib/string/memcpy.c         0x00000000   Number         0  memcpyb.o ABSOLUTE
    ../clib/microlib/string/memset.c         0x00000000   Number         0  memseta.o ABSOLUTE
    ../clib/microlib/stubs.s                 0x00000000   Number         0  iusefp.o ABSOLUTE
    ../fplib/microlib/fpadd.c                0x00000000   Number         0  dadd.o ABSOLUTE
    ../fplib/microlib/fpdiv.c                0x00000000   Number         0  ddiv.o ABSOLUTE
    ../fplib/microlib/fpepilogue.c           0x00000000   Number         0  depilogue.o ABSOLUTE
    ../fplib/microlib/fpfix.c                0x00000000   Number         0  dfixul.o ABSOLUTE
    ../fplib/microlib/fpmul.c                0x00000000   Number         0  dmul.o ABSOLUTE
    .\..\Core\Src\dma.c                      0x00000000   Number         0  dma.o ABSOLUTE
    .\..\Core\Src\drive.c                    0x00000000   Number         0  drive.o ABSOLUTE
    .\..\Core\Src\flash.c                    0x00000000   Number         0  flash.o ABSOLUTE
    .\..\Core\Src\gpio.c                     0x00000000   Number         0  gpio.o ABSOLUTE
    .\..\Core\Src\main.c                     0x00000000   Number         0  main.o ABSOLUTE
    .\..\Core\Src\message.c                  0x00000000   Number         0  message.o ABSOLUTE
    .\..\Core\Src\stm32f1xx_hal_msp.c        0x00000000   Number         0  stm32f1xx_hal_msp.o ABSOLUTE
    .\..\Core\Src\stm32f1xx_it.c             0x00000000   Number         0  stm32f1xx_it.o ABSOLUTE
    .\..\Core\Src\system_stm32f1xx.c         0x00000000   Number         0  system_stm32f1xx.o ABSOLUTE
    .\..\Core\Src\tim.c                      0x00000000   Number         0  tim.o ABSOLUTE
    .\..\Core\Src\usart.c                    0x00000000   Number         0  usart.o ABSOLUTE
    .\..\Drivers\STM32F1xx_HAL_Driver\Src\stm32f1xx_hal.c 0x00000000   Number         0  stm32f1xx_hal.o ABSOLUTE
    .\..\Drivers\STM32F1xx_HAL_Driver\Src\stm32f1xx_hal_cortex.c 0x00000000   Number         0  stm32f1xx_hal_cortex.o ABSOLUTE
    .\..\Drivers\STM32F1xx_HAL_Driver\Src\stm32f1xx_hal_dma.c 0x00000000   Number         0  stm32f1xx_hal_dma.o ABSOLUTE
    .\..\Drivers\STM32F1xx_HAL_Driver\Src\stm32f1xx_hal_exti.c 0x00000000   Number         0  stm32f1xx_hal_exti.o ABSOLUTE
    .\..\Drivers\STM32F1xx_HAL_Driver\Src\stm32f1xx_hal_flash.c 0x00000000   Number         0  stm32f1xx_hal_flash.o ABSOLUTE
    .\..\Drivers\STM32F1xx_HAL_Driver\Src\stm32f1xx_hal_flash_ex.c 0x00000000   Number         0  stm32f1xx_hal_flash_ex.o ABSOLUTE
    .\..\Drivers\STM32F1xx_HAL_Driver\Src\stm32f1xx_hal_gpio.c 0x00000000   Number         0  stm32f1xx_hal_gpio.o ABSOLUTE
    .\..\Drivers\STM32F1xx_HAL_Driver\Src\stm32f1xx_hal_gpio_ex.c 0x00000000   Number         0  stm32f1xx_hal_gpio_ex.o ABSOLUTE
    .\..\Drivers\STM32F1xx_HAL_Driver\Src\stm32f1xx_hal_pwr.c 0x00000000   Number         0  stm32f1xx_hal_pwr.o ABSOLUTE
    .\..\Drivers\STM32F1xx_HAL_Driver\Src\stm32f1xx_hal_rcc.c 0x00000000   Number         0  stm32f1xx_hal_rcc.o ABSOLUTE
    .\..\Drivers\STM32F1xx_HAL_Driver\Src\stm32f1xx_hal_rcc_ex.c 0x00000000   Number         0  stm32f1xx_hal_rcc_ex.o ABSOLUTE
    .\..\Drivers\STM32F1xx_HAL_Driver\Src\stm32f1xx_hal_tim.c 0x00000000   Number         0  stm32f1xx_hal_tim.o ABSOLUTE
    .\..\Drivers\STM32F1xx_HAL_Driver\Src\stm32f1xx_hal_tim_ex.c 0x00000000   Number         0  stm32f1xx_hal_tim_ex.o ABSOLUTE
    .\..\Drivers\STM32F1xx_HAL_Driver\Src\stm32f1xx_hal_uart.c 0x00000000   Number         0  stm32f1xx_hal_uart.o ABSOLUTE
    .\\..\\Core\\Src\\dma.c                  0x00000000   Number         0  dma.o ABSOLUTE
    .\\..\\Core\\Src\\drive.c                0x00000000   Number         0  drive.o ABSOLUTE
    .\\..\\Core\\Src\\flash.c                0x00000000   Number         0  flash.o ABSOLUTE
    .\\..\\Core\\Src\\gpio.c                 0x00000000   Number         0  gpio.o ABSOLUTE
    .\\..\\Core\\Src\\main.c                 0x00000000   Number         0  main.o ABSOLUTE
    .\\..\\Core\\Src\\message.c              0x00000000   Number         0  message.o ABSOLUTE
    .\\..\\Core\\Src\\stm32f1xx_hal_msp.c    0x00000000   Number         0  stm32f1xx_hal_msp.o ABSOLUTE
    .\\..\\Core\\Src\\stm32f1xx_it.c         0x00000000   Number         0  stm32f1xx_it.o ABSOLUTE
    .\\..\\Core\\Src\\system_stm32f1xx.c     0x00000000   Number         0  system_stm32f1xx.o ABSOLUTE
    .\\..\\Core\\Src\\tim.c                  0x00000000   Number         0  tim.o ABSOLUTE
    .\\..\\Core\\Src\\usart.c                0x00000000   Number         0  usart.o ABSOLUTE
    .\\..\\Drivers\\STM32F1xx_HAL_Driver\\Src\\stm32f1xx_hal.c 0x00000000   Number         0  stm32f1xx_hal.o ABSOLUTE
    .\\..\\Drivers\\STM32F1xx_HAL_Driver\\Src\\stm32f1xx_hal_cortex.c 0x00000000   Number         0  stm32f1xx_hal_cortex.o ABSOLUTE
    .\\..\\Drivers\\STM32F1xx_HAL_Driver\\Src\\stm32f1xx_hal_dma.c 0x00000000   Number         0  stm32f1xx_hal_dma.o ABSOLUTE
    .\\..\\Drivers\\STM32F1xx_HAL_Driver\\Src\\stm32f1xx_hal_exti.c 0x00000000   Number         0  stm32f1xx_hal_exti.o ABSOLUTE
    .\\..\\Drivers\\STM32F1xx_HAL_Driver\\Src\\stm32f1xx_hal_flash.c 0x00000000   Number         0  stm32f1xx_hal_flash.o ABSOLUTE
    .\\..\\Drivers\\STM32F1xx_HAL_Driver\\Src\\stm32f1xx_hal_flash_ex.c 0x00000000   Number         0  stm32f1xx_hal_flash_ex.o ABSOLUTE
    .\\..\\Drivers\\STM32F1xx_HAL_Driver\\Src\\stm32f1xx_hal_gpio.c 0x00000000   Number         0  stm32f1xx_hal_gpio.o ABSOLUTE
    .\\..\\Drivers\\STM32F1xx_HAL_Driver\\Src\\stm32f1xx_hal_gpio_ex.c 0x00000000   Number         0  stm32f1xx_hal_gpio_ex.o ABSOLUTE
    .\\..\\Drivers\\STM32F1xx_HAL_Driver\\Src\\stm32f1xx_hal_pwr.c 0x00000000   Number         0  stm32f1xx_hal_pwr.o ABSOLUTE
    .\\..\\Drivers\\STM32F1xx_HAL_Driver\\Src\\stm32f1xx_hal_rcc.c 0x00000000   Number         0  stm32f1xx_hal_rcc.o ABSOLUTE
    .\\..\\Drivers\\STM32F1xx_HAL_Driver\\Src\\stm32f1xx_hal_rcc_ex.c 0x00000000   Number         0  stm32f1xx_hal_rcc_ex.o ABSOLUTE
    .\\..\\Drivers\\STM32F1xx_HAL_Driver\\Src\\stm32f1xx_hal_tim.c 0x00000000   Number         0  stm32f1xx_hal_tim.o ABSOLUTE
    .\\..\\Drivers\\STM32F1xx_HAL_Driver\\Src\\stm32f1xx_hal_tim_ex.c 0x00000000   Number         0  stm32f1xx_hal_tim_ex.o ABSOLUTE
    .\\..\\Drivers\\STM32F1xx_HAL_Driver\\Src\\stm32f1xx_hal_uart.c 0x00000000   Number         0  stm32f1xx_hal_uart.o ABSOLUTE
    .\startup_stm32f103x6.s                  0x00000000   Number         0  startup_stm32f103x6.o ABSOLUTE
    cdrcmple.s                               0x00000000   Number         0  cdrcmple.o ABSOLUTE
    dc.s                                     0x00000000   Number         0  dc.o ABSOLUTE
    handlers.s                               0x00000000   Number         0  handlers.o ABSOLUTE
    init.s                                   0x00000000   Number         0  init.o ABSOLUTE
    RESET                                    0x08000000   Section      236  startup_stm32f103x6.o(RESET)
    .ARM.Collect$$$$00000000                 0x080000ec   Section        0  entry.o(.ARM.Collect$$$$00000000)
    .ARM.Collect$$$$00000001                 0x080000ec   Section        4  entry2.o(.ARM.Collect$$$$00000001)
    .ARM.Collect$$$$00000004                 0x080000f0   Section        4  entry5.o(.ARM.Collect$$$$00000004)
    .ARM.Collect$$$$00000008                 0x080000f4   Section        0  entry7b.o(.ARM.Collect$$$$00000008)
    .ARM.Collect$$$$0000000A                 0x080000f4   Section        0  entry8b.o(.ARM.Collect$$$$0000000A)
    .ARM.Collect$$$$0000000B                 0x080000f4   Section        8  entry9a.o(.ARM.Collect$$$$0000000B)
    .ARM.Collect$$$$0000000D                 0x080000fc   Section        0  entry10a.o(.ARM.Collect$$$$0000000D)
    .ARM.Collect$$$$0000000F                 0x080000fc   Section        0  entry11a.o(.ARM.Collect$$$$0000000F)
    .ARM.Collect$$$$00002712                 0x080000fc   Section        4  entry2.o(.ARM.Collect$$$$00002712)
    __lit__00000000                          0x080000fc   Data           4  entry2.o(.ARM.Collect$$$$00002712)
    .text                                    0x08000100   Section       36  startup_stm32f103x6.o(.text)
    .text                                    0x08000124   Section        0  llushr.o(.text)
    .text                                    0x08000144   Section        0  memcpya.o(.text)
    .text                                    0x08000168   Section        0  memseta.o(.text)
    .text                                    0x0800018c   Section       36  init.o(.text)
    i.BusFault_Handler                       0x080001b0   Section        0  stm32f1xx_it.o(i.BusFault_Handler)
    i.DMA1_Channel4_IRQHandler               0x080001b4   Section        0  stm32f1xx_it.o(i.DMA1_Channel4_IRQHandler)
    i.DMA1_Channel5_IRQHandler               0x080001c0   Section        0  stm32f1xx_it.o(i.DMA1_Channel5_IRQHandler)
    i.DMA1_Channel6_IRQHandler               0x080001cc   Section        0  stm32f1xx_it.o(i.DMA1_Channel6_IRQHandler)
    i.DMA1_Channel7_IRQHandler               0x080001d8   Section        0  stm32f1xx_it.o(i.DMA1_Channel7_IRQHandler)
    i.DMA_SetConfig                          0x080001e4   Section        0  stm32f1xx_hal_dma.o(i.DMA_SetConfig)
    DMA_SetConfig                            0x080001e5   Thumb Code    42  stm32f1xx_hal_dma.o(i.DMA_SetConfig)
    i.DebugMon_Handler                       0x0800020e   Section        0  stm32f1xx_it.o(i.DebugMon_Handler)
    i.Error_Handler                          0x08000210   Section        0  main.o(i.Error_Handler)
    i.FLASH_MassErase                        0x08000214   Section        0  stm32f1xx_hal_flash_ex.o(i.FLASH_MassErase)
    FLASH_MassErase                          0x08000215   Thumb Code    26  stm32f1xx_hal_flash_ex.o(i.FLASH_MassErase)
    i.FLASH_PageErase                        0x08000238   Section        0  stm32f1xx_hal_flash_ex.o(i.FLASH_PageErase)
    i.FLASH_Program_HalfWord                 0x0800025c   Section        0  stm32f1xx_hal_flash.o(i.FLASH_Program_HalfWord)
    FLASH_Program_HalfWord                   0x0800025d   Thumb Code    20  stm32f1xx_hal_flash.o(i.FLASH_Program_HalfWord)
    i.FLASH_Read                             0x08000278   Section        0  flash.o(i.FLASH_Read)
    i.FLASH_SetErrorCode                     0x080002bc   Section        0  stm32f1xx_hal_flash.o(i.FLASH_SetErrorCode)
    FLASH_SetErrorCode                       0x080002bd   Thumb Code    84  stm32f1xx_hal_flash.o(i.FLASH_SetErrorCode)
    i.FLASH_WaitForLastOperation             0x08000318   Section        0  stm32f1xx_hal_flash.o(i.FLASH_WaitForLastOperation)
    i.FLASH_Write                            0x0800036c   Section        0  flash.o(i.FLASH_Write)
    i.FLASH_WriteNotCheck                    0x08000454   Section        0  flash.o(i.FLASH_WriteNotCheck)
    i.Get_Data_Fram                          0x08000498   Section        0  message.o(i.Get_Data_Fram)
    i.HAL_DMA_Abort                          0x08000524   Section        0  stm32f1xx_hal_dma.o(i.HAL_DMA_Abort)
    i.HAL_DMA_Abort_IT                       0x0800056c   Section        0  stm32f1xx_hal_dma.o(i.HAL_DMA_Abort_IT)
    i.HAL_DMA_IRQHandler                     0x08000604   Section        0  stm32f1xx_hal_dma.o(i.HAL_DMA_IRQHandler)
    i.HAL_DMA_Init                           0x08000758   Section        0  stm32f1xx_hal_dma.o(i.HAL_DMA_Init)
    i.HAL_DMA_Start_IT                       0x080007b4   Section        0  stm32f1xx_hal_dma.o(i.HAL_DMA_Start_IT)
    i.HAL_Delay                              0x08000824   Section        0  stm32f1xx_hal.o(i.HAL_Delay)
    i.HAL_FLASHEx_Erase                      0x08000848   Section        0  stm32f1xx_hal_flash_ex.o(i.HAL_FLASHEx_Erase)
    i.HAL_FLASH_Lock                         0x080008f0   Section        0  stm32f1xx_hal_flash.o(i.HAL_FLASH_Lock)
    i.HAL_FLASH_Program                      0x08000904   Section        0  stm32f1xx_hal_flash.o(i.HAL_FLASH_Program)
    i.HAL_FLASH_Unlock                       0x08000984   Section        0  stm32f1xx_hal_flash.o(i.HAL_FLASH_Unlock)
    i.HAL_GPIO_Init                          0x080009ac   Section        0  stm32f1xx_hal_gpio.o(i.HAL_GPIO_Init)
    i.HAL_GPIO_ReadPin                       0x08000b6c   Section        0  stm32f1xx_hal_gpio.o(i.HAL_GPIO_ReadPin)
    i.HAL_GPIO_WritePin                      0x08000b76   Section        0  stm32f1xx_hal_gpio.o(i.HAL_GPIO_WritePin)
    i.HAL_GetTick                            0x08000b80   Section        0  stm32f1xx_hal.o(i.HAL_GetTick)
    i.HAL_IncTick                            0x08000b8c   Section        0  stm32f1xx_hal.o(i.HAL_IncTick)
    i.HAL_Init                               0x08000b9c   Section        0  stm32f1xx_hal.o(i.HAL_Init)
    i.HAL_InitTick                           0x08000bc0   Section        0  stm32f1xx_hal.o(i.HAL_InitTick)
    i.HAL_MspInit                            0x08000c00   Section        0  stm32f1xx_hal_msp.o(i.HAL_MspInit)
    i.HAL_NVIC_EnableIRQ                     0x08000c3c   Section        0  stm32f1xx_hal_cortex.o(i.HAL_NVIC_EnableIRQ)
    i.HAL_NVIC_SetPriority                   0x08000c58   Section        0  stm32f1xx_hal_cortex.o(i.HAL_NVIC_SetPriority)
    i.HAL_NVIC_SetPriorityGrouping           0x08000c98   Section        0  stm32f1xx_hal_cortex.o(i.HAL_NVIC_SetPriorityGrouping)
    i.HAL_RCC_ClockConfig                    0x08000cbc   Section        0  stm32f1xx_hal_rcc.o(i.HAL_RCC_ClockConfig)
    i.HAL_RCC_GetPCLK1Freq                   0x08000de8   Section        0  stm32f1xx_hal_rcc.o(i.HAL_RCC_GetPCLK1Freq)
    i.HAL_RCC_GetPCLK2Freq                   0x08000e08   Section        0  stm32f1xx_hal_rcc.o(i.HAL_RCC_GetPCLK2Freq)
    i.HAL_RCC_GetSysClockFreq                0x08000e28   Section        0  stm32f1xx_hal_rcc.o(i.HAL_RCC_GetSysClockFreq)
    i.HAL_RCC_OscConfig                      0x08000e94   Section        0  stm32f1xx_hal_rcc.o(i.HAL_RCC_OscConfig)
    i.HAL_SYSTICK_Config                     0x080011b4   Section        0  stm32f1xx_hal_cortex.o(i.HAL_SYSTICK_Config)
    i.HAL_TIMEx_BreakCallback                0x080011dc   Section        0  stm32f1xx_hal_tim_ex.o(i.HAL_TIMEx_BreakCallback)
    i.HAL_TIMEx_CommutCallback               0x080011de   Section        0  stm32f1xx_hal_tim_ex.o(i.HAL_TIMEx_CommutCallback)
    i.HAL_TIMEx_MasterConfigSynchronization  0x080011e0   Section        0  stm32f1xx_hal_tim_ex.o(i.HAL_TIMEx_MasterConfigSynchronization)
    i.HAL_TIM_Base_Init                      0x08001240   Section        0  stm32f1xx_hal_tim.o(i.HAL_TIM_Base_Init)
    i.HAL_TIM_Base_MspInit                   0x0800129c   Section        0  tim.o(i.HAL_TIM_Base_MspInit)
    i.HAL_TIM_Base_Start_IT                  0x080012d8   Section        0  stm32f1xx_hal_tim.o(i.HAL_TIM_Base_Start_IT)
    i.HAL_TIM_ConfigClockSource              0x08001328   Section        0  stm32f1xx_hal_tim.o(i.HAL_TIM_ConfigClockSource)
    i.HAL_TIM_IC_CaptureCallback             0x080013fe   Section        0  stm32f1xx_hal_tim.o(i.HAL_TIM_IC_CaptureCallback)
    i.HAL_TIM_IRQHandler                     0x08001400   Section        0  stm32f1xx_hal_tim.o(i.HAL_TIM_IRQHandler)
    i.HAL_TIM_OC_DelayElapsedCallback        0x08001566   Section        0  stm32f1xx_hal_tim.o(i.HAL_TIM_OC_DelayElapsedCallback)
    i.HAL_TIM_PWM_PulseFinishedCallback      0x08001568   Section        0  stm32f1xx_hal_tim.o(i.HAL_TIM_PWM_PulseFinishedCallback)
    i.HAL_TIM_PeriodElapsedCallback          0x0800156c   Section        0  main.o(i.HAL_TIM_PeriodElapsedCallback)
    i.HAL_TIM_TriggerCallback                0x0800159c   Section        0  stm32f1xx_hal_tim.o(i.HAL_TIM_TriggerCallback)
    i.HAL_UARTEx_RxEventCallback             0x0800159e   Section        0  stm32f1xx_hal_uart.o(i.HAL_UARTEx_RxEventCallback)
    i.HAL_UART_DMAStop                       0x080015a0   Section        0  stm32f1xx_hal_uart.o(i.HAL_UART_DMAStop)
    i.HAL_UART_ErrorCallback                 0x080015f8   Section        0  stm32f1xx_hal_uart.o(i.HAL_UART_ErrorCallback)
    i.HAL_UART_IRQHandler                    0x080015fc   Section        0  stm32f1xx_hal_uart.o(i.HAL_UART_IRQHandler)
    i.HAL_UART_Init                          0x08001808   Section        0  stm32f1xx_hal_uart.o(i.HAL_UART_Init)
    i.HAL_UART_MspInit                       0x0800186c   Section        0  usart.o(i.HAL_UART_MspInit)
    i.HAL_UART_Receive_DMA                   0x08001a0c   Section        0  stm32f1xx_hal_uart.o(i.HAL_UART_Receive_DMA)
    i.HAL_UART_RxCpltCallback                0x08001a36   Section        0  stm32f1xx_hal_uart.o(i.HAL_UART_RxCpltCallback)
    i.HAL_UART_RxHalfCpltCallback            0x08001a38   Section        0  stm32f1xx_hal_uart.o(i.HAL_UART_RxHalfCpltCallback)
    i.HAL_UART_Transmit                      0x08001a3c   Section        0  stm32f1xx_hal_uart.o(i.HAL_UART_Transmit)
    i.HAL_UART_TxCpltCallback                0x08001aee   Section        0  stm32f1xx_hal_uart.o(i.HAL_UART_TxCpltCallback)
    i.HardFault_Handler                      0x08001af0   Section        0  stm32f1xx_it.o(i.HardFault_Handler)
    i.MX_DMA_Init                            0x08001af4   Section        0  dma.o(i.MX_DMA_Init)
    i.MX_GPIO_Init                           0x08001b50   Section        0  gpio.o(i.MX_GPIO_Init)
    i.MX_TIM3_Init                           0x08001c10   Section        0  tim.o(i.MX_TIM3_Init)
    i.MX_USART1_UART_Init                    0x08001c78   Section        0  usart.o(i.MX_USART1_UART_Init)
    i.MX_USART2_UART_Init                    0x08001cc8   Section        0  usart.o(i.MX_USART2_UART_Init)
    i.MemManage_Handler                      0x08001d18   Section        0  stm32f1xx_it.o(i.MemManage_Handler)
    i.NMI_Handler                            0x08001d1a   Section        0  stm32f1xx_it.o(i.NMI_Handler)
    i.PendSV_Handler                         0x08001d1c   Section        0  stm32f1xx_it.o(i.PendSV_Handler)
    i.SVC_Handler                            0x08001d1e   Section        0  stm32f1xx_it.o(i.SVC_Handler)
    i.SysTick_Handler                        0x08001d20   Section        0  stm32f1xx_it.o(i.SysTick_Handler)
    i.SystemClock_Config                     0x08001d24   Section        0  main.o(i.SystemClock_Config)
    i.SystemInit                             0x08001d82   Section        0  system_stm32f1xx.o(i.SystemInit)
    i.TIM3_IRQHandler                        0x08001d84   Section        0  stm32f1xx_it.o(i.TIM3_IRQHandler)
    i.TIM_Base_SetConfig                     0x08001d90   Section        0  stm32f1xx_hal_tim.o(i.TIM_Base_SetConfig)
    i.TIM_ETR_SetConfig                      0x08001dec   Section        0  stm32f1xx_hal_tim.o(i.TIM_ETR_SetConfig)
    i.TIM_ITRx_SetConfig                     0x08001e00   Section        0  stm32f1xx_hal_tim.o(i.TIM_ITRx_SetConfig)
    TIM_ITRx_SetConfig                       0x08001e01   Thumb Code    16  stm32f1xx_hal_tim.o(i.TIM_ITRx_SetConfig)
    i.TIM_TI1_ConfigInputStage               0x08001e10   Section        0  stm32f1xx_hal_tim.o(i.TIM_TI1_ConfigInputStage)
    TIM_TI1_ConfigInputStage                 0x08001e11   Thumb Code    34  stm32f1xx_hal_tim.o(i.TIM_TI1_ConfigInputStage)
    i.TIM_TI2_ConfigInputStage               0x08001e32   Section        0  stm32f1xx_hal_tim.o(i.TIM_TI2_ConfigInputStage)
    TIM_TI2_ConfigInputStage                 0x08001e33   Thumb Code    36  stm32f1xx_hal_tim.o(i.TIM_TI2_ConfigInputStage)
    i.UART_DMAAbortOnError                   0x08001e56   Section        0  stm32f1xx_hal_uart.o(i.UART_DMAAbortOnError)
    UART_DMAAbortOnError                     0x08001e57   Thumb Code    16  stm32f1xx_hal_uart.o(i.UART_DMAAbortOnError)
    i.UART_DMAError                          0x08001e66   Section        0  stm32f1xx_hal_uart.o(i.UART_DMAError)
    UART_DMAError                            0x08001e67   Thumb Code    74  stm32f1xx_hal_uart.o(i.UART_DMAError)
    i.UART_DMAReceiveCplt                    0x08001eb0   Section        0  stm32f1xx_hal_uart.o(i.UART_DMAReceiveCplt)
    UART_DMAReceiveCplt                      0x08001eb1   Thumb Code    90  stm32f1xx_hal_uart.o(i.UART_DMAReceiveCplt)
    i.UART_DMARxHalfCplt                     0x08001f0a   Section        0  stm32f1xx_hal_uart.o(i.UART_DMARxHalfCplt)
    UART_DMARxHalfCplt                       0x08001f0b   Thumb Code    26  stm32f1xx_hal_uart.o(i.UART_DMARxHalfCplt)
    i.UART_EndRxTransfer                     0x08001f24   Section        0  stm32f1xx_hal_uart.o(i.UART_EndRxTransfer)
    UART_EndRxTransfer                       0x08001f25   Thumb Code    48  stm32f1xx_hal_uart.o(i.UART_EndRxTransfer)
    i.UART_EndTxTransfer                     0x08001f54   Section        0  stm32f1xx_hal_uart.o(i.UART_EndTxTransfer)
    UART_EndTxTransfer                       0x08001f55   Thumb Code    18  stm32f1xx_hal_uart.o(i.UART_EndTxTransfer)
    i.UART_Receive_IT                        0x08001f66   Section        0  stm32f1xx_hal_uart.o(i.UART_Receive_IT)
    UART_Receive_IT                          0x08001f67   Thumb Code   182  stm32f1xx_hal_uart.o(i.UART_Receive_IT)
    i.UART_SetConfig                         0x0800201c   Section        0  stm32f1xx_hal_uart.o(i.UART_SetConfig)
    UART_SetConfig                           0x0800201d   Thumb Code   178  stm32f1xx_hal_uart.o(i.UART_SetConfig)
    i.UART_Start_Receive_DMA                 0x080020d4   Section        0  stm32f1xx_hal_uart.o(i.UART_Start_Receive_DMA)
    i.UART_WaitOnFlagUntilTimeout            0x08002144   Section        0  stm32f1xx_hal_uart.o(i.UART_WaitOnFlagUntilTimeout)
    UART_WaitOnFlagUntilTimeout              0x08002145   Thumb Code   100  stm32f1xx_hal_uart.o(i.UART_WaitOnFlagUntilTimeout)
    i.USART1_IRQHandler                      0x080021a8   Section        0  stm32f1xx_it.o(i.USART1_IRQHandler)
    i.USART2_IRQHandler                      0x080021c0   Section        0  stm32f1xx_it.o(i.USART2_IRQHandler)
    i.USAR_UART_IDLECallback                 0x080021d8   Section        0  main.o(i.USAR_UART_IDLECallback)
    i.UsageFault_Handler                     0x0800224c   Section        0  stm32f1xx_it.o(i.UsageFault_Handler)
    i.__0printf$bare                         0x08002250   Section        0  printfb.o(i.__0printf$bare)
    i.__NVIC_SetPriority                     0x08002260   Section        0  stm32f1xx_hal_cortex.o(i.__NVIC_SetPriority)
    __NVIC_SetPriority                       0x08002261   Thumb Code    32  stm32f1xx_hal_cortex.o(i.__NVIC_SetPriority)
    i.__scatterload_copy                     0x08002280   Section       14  handlers.o(i.__scatterload_copy)
    i.__scatterload_null                     0x0800228e   Section        2  handlers.o(i.__scatterload_null)
    i.__scatterload_zeroinit                 0x08002290   Section       14  handlers.o(i.__scatterload_zeroinit)
    i._printf_core                           0x0800229e   Section        0  printfb.o(i._printf_core)
    _printf_core                             0x0800229f   Thumb Code    34  printfb.o(i._printf_core)
    i.change_ID                              0x080022c0   Section        0  drive.o(i.change_ID)
    i.check_data                             0x08002328   Section        0  message.o(i.check_data)
    i.check_drive                            0x080023b4   Section        0  drive.o(i.check_drive)
    i.fputc                                  0x08002458   Section        0  usart.o(i.fputc)
    i.free                                   0x08002470   Section        0  malloc.o(i.free)
    i.get_sys_clk                            0x080024c0   Section        0  main.o(i.get_sys_clk)
    i.init_myself                            0x080024cc   Section        0  drive.o(i.init_myself)
    i.key_drive_oper                         0x0800258c   Section        0  drive.o(i.key_drive_oper)
    i.key_scan                               0x08002668   Section        0  drive.o(i.key_scan)
    i.main                                   0x080026b4   Section        0  main.o(i.main)
    i.malloc                                 0x08002724   Section        0  malloc.o(i.malloc)
    i.message_init                           0x08002790   Section        0  message.o(i.message_init)
    i.polling                                0x080027b8   Section        0  message.o(i.polling)
    i.report_heartbeat                       0x08002958   Section        0  drive.o(i.report_heartbeat)
    i.send_message                           0x08002a28   Section        0  message.o(i.send_message)
    i.set_key_light                          0x08002aa0   Section        0  drive.o(i.set_key_light)
    .constdata                               0x08002aae   Section       16  system_stm32f1xx.o(.constdata)
    .constdata                               0x08002abe   Section        8  system_stm32f1xx.o(.constdata)
    .data                                    0x20000000   Section        8  drive.o(.data)
    report_flag                              0x20000001   Data           1  drive.o(.data)
    .data                                    0x20000008   Section        1  main.o(.data)
    .data                                    0x2000000c   Section        8  main.o(.data)
    time                                     0x2000000e   Data           2  main.o(.data)
    .data                                    0x20000014   Section        8  message.o(.data)
    .data                                    0x2000001c   Section        4  system_stm32f1xx.o(.data)
    .data                                    0x20000020   Section        1  usart.o(.data)
    .data                                    0x20000021   Section        1  usart.o(.data)
    .data                                    0x20000022   Section        1  usart.o(.data)
    .data                                    0x20000023   Section        1  usart.o(.data)
    .data                                    0x20000024   Section        4  usart.o(.data)
    .data                                    0x20000028   Section       12  stm32f1xx_hal.o(.data)
    .data                                    0x20000034   Section        4  mvars.o(.data)
    .data                                    0x20000038   Section        4  mvars.o(.data)
    .bss                                     0x2000003c   Section      112  drive.o(.bss)
    key_stat_temp                            0x2000003c   Data          10  drive.o(.bss)
    .bss                                     0x200000ac   Section     1024  flash.o(.bss)
    FlashBuffer                              0x200000ac   Data        1024  flash.o(.bss)
    .bss                                     0x200004ac   Section       72  tim.o(.bss)
    .bss                                     0x200004f4   Section      808  usart.o(.bss)
    .bss                                     0x20000820   Section       32  stm32f1xx_hal_flash.o(.bss)
    HEAP                                     0x20000840   Section     3840  startup_stm32f103x6.o(HEAP)
    STACK                                    0x20001740   Section     3840  startup_stm32f103x6.o(STACK)

    Global Symbols

    Symbol Name                              Value     Ov Type        Size  Object(Section)

    BuildAttributes$$THM_ISAv4$P$D$K$B$S$PE$A:L22UL41UL21$X:L11$S22US41US21$IEEE1$IW$USESV6$~STKCKD$USESV7$~SHL$OSPACE$ROPI$EBA8$MICROLIB$REQ8$PRES8$EABIv2 0x00000000   Number         0  anon$$obj.o ABSOLUTE
    __ARM_use_no_argv                        0x00000000   Number         0  main.o ABSOLUTE
    __cpp_initialize__aeabi_                  - Undefined Weak Reference
    __cxa_finalize                            - Undefined Weak Reference
    __decompress                              - Undefined Weak Reference
    _clock_init                               - Undefined Weak Reference
    _microlib_exit                            - Undefined Weak Reference
    __Vectors_Size                           0x000000ec   Number         0  startup_stm32f103x6.o ABSOLUTE
    __Vectors                                0x08000000   Data           4  startup_stm32f103x6.o(RESET)
    __Vectors_End                            0x080000ec   Data           0  startup_stm32f103x6.o(RESET)
    __main                                   0x080000ed   Thumb Code     0  entry.o(.ARM.Collect$$$$00000000)
    _main_stk                                0x080000ed   Thumb Code     0  entry2.o(.ARM.Collect$$$$00000001)
    _main_scatterload                        0x080000f1   Thumb Code     0  entry5.o(.ARM.Collect$$$$00000004)
    __main_after_scatterload                 0x080000f5   Thumb Code     0  entry5.o(.ARM.Collect$$$$00000004)
    _main_clock                              0x080000f5   Thumb Code     0  entry7b.o(.ARM.Collect$$$$00000008)
    _main_cpp_init                           0x080000f5   Thumb Code     0  entry8b.o(.ARM.Collect$$$$0000000A)
    _main_init                               0x080000f5   Thumb Code     0  entry9a.o(.ARM.Collect$$$$0000000B)
    __rt_final_cpp                           0x080000fd   Thumb Code     0  entry10a.o(.ARM.Collect$$$$0000000D)
    __rt_final_exit                          0x080000fd   Thumb Code     0  entry11a.o(.ARM.Collect$$$$0000000F)
    Reset_Handler                            0x08000101   Thumb Code     8  startup_stm32f103x6.o(.text)
    ADC1_2_IRQHandler                        0x0800011b   Thumb Code     0  startup_stm32f103x6.o(.text)
    CAN1_RX1_IRQHandler                      0x0800011b   Thumb Code     0  startup_stm32f103x6.o(.text)
    CAN1_SCE_IRQHandler                      0x0800011b   Thumb Code     0  startup_stm32f103x6.o(.text)
    DMA1_Channel1_IRQHandler                 0x0800011b   Thumb Code     0  startup_stm32f103x6.o(.text)
    DMA1_Channel2_IRQHandler                 0x0800011b   Thumb Code     0  startup_stm32f103x6.o(.text)
    DMA1_Channel3_IRQHandler                 0x0800011b   Thumb Code     0  startup_stm32f103x6.o(.text)
    EXTI0_IRQHandler                         0x0800011b   Thumb Code     0  startup_stm32f103x6.o(.text)
    EXTI15_10_IRQHandler                     0x0800011b   Thumb Code     0  startup_stm32f103x6.o(.text)
    EXTI1_IRQHandler                         0x0800011b   Thumb Code     0  startup_stm32f103x6.o(.text)
    EXTI2_IRQHandler                         0x0800011b   Thumb Code     0  startup_stm32f103x6.o(.text)
    EXTI3_IRQHandler                         0x0800011b   Thumb Code     0  startup_stm32f103x6.o(.text)
    EXTI4_IRQHandler                         0x0800011b   Thumb Code     0  startup_stm32f103x6.o(.text)
    EXTI9_5_IRQHandler                       0x0800011b   Thumb Code     0  startup_stm32f103x6.o(.text)
    FLASH_IRQHandler                         0x0800011b   Thumb Code     0  startup_stm32f103x6.o(.text)
    I2C1_ER_IRQHandler                       0x0800011b   Thumb Code     0  startup_stm32f103x6.o(.text)
    I2C1_EV_IRQHandler                       0x0800011b   Thumb Code     0  startup_stm32f103x6.o(.text)
    PVD_IRQHandler                           0x0800011b   Thumb Code     0  startup_stm32f103x6.o(.text)
    RCC_IRQHandler                           0x0800011b   Thumb Code     0  startup_stm32f103x6.o(.text)
    RTC_Alarm_IRQHandler                     0x0800011b   Thumb Code     0  startup_stm32f103x6.o(.text)
    RTC_IRQHandler                           0x0800011b   Thumb Code     0  startup_stm32f103x6.o(.text)
    SPI1_IRQHandler                          0x0800011b   Thumb Code     0  startup_stm32f103x6.o(.text)
    TAMPER_IRQHandler                        0x0800011b   Thumb Code     0  startup_stm32f103x6.o(.text)
    TIM1_BRK_IRQHandler                      0x0800011b   Thumb Code     0  startup_stm32f103x6.o(.text)
    TIM1_CC_IRQHandler                       0x0800011b   Thumb Code     0  startup_stm32f103x6.o(.text)
    TIM1_TRG_COM_IRQHandler                  0x0800011b   Thumb Code     0  startup_stm32f103x6.o(.text)
    TIM1_UP_IRQHandler                       0x0800011b   Thumb Code     0  startup_stm32f103x6.o(.text)
    TIM2_IRQHandler                          0x0800011b   Thumb Code     0  startup_stm32f103x6.o(.text)
    USBWakeUp_IRQHandler                     0x0800011b   Thumb Code     0  startup_stm32f103x6.o(.text)
    USB_HP_CAN1_TX_IRQHandler                0x0800011b   Thumb Code     0  startup_stm32f103x6.o(.text)
    USB_LP_CAN1_RX0_IRQHandler               0x0800011b   Thumb Code     0  startup_stm32f103x6.o(.text)
    WWDG_IRQHandler                          0x0800011b   Thumb Code     0  startup_stm32f103x6.o(.text)
    __aeabi_llsr                             0x08000125   Thumb Code    32  llushr.o(.text)
    _ll_ushift_r                             0x08000125   Thumb Code     0  llushr.o(.text)
    __aeabi_memcpy                           0x08000145   Thumb Code    36  memcpya.o(.text)
    __aeabi_memcpy4                          0x08000145   Thumb Code     0  memcpya.o(.text)
    __aeabi_memcpy8                          0x08000145   Thumb Code     0  memcpya.o(.text)
    __aeabi_memset                           0x08000169   Thumb Code    14  memseta.o(.text)
    __aeabi_memset4                          0x08000169   Thumb Code     0  memseta.o(.text)
    __aeabi_memset8                          0x08000169   Thumb Code     0  memseta.o(.text)
    __aeabi_memclr                           0x08000177   Thumb Code     4  memseta.o(.text)
    __aeabi_memclr4                          0x08000177   Thumb Code     0  memseta.o(.text)
    __aeabi_memclr8                          0x08000177   Thumb Code     0  memseta.o(.text)
    _memset$wrapper                          0x0800017b   Thumb Code    18  memseta.o(.text)
    __scatterload                            0x0800018d   Thumb Code    28  init.o(.text)
    __scatterload_rt2                        0x0800018d   Thumb Code     0  init.o(.text)
    BusFault_Handler                         0x080001b1   Thumb Code     2  stm32f1xx_it.o(i.BusFault_Handler)
    DMA1_Channel4_IRQHandler                 0x080001b5   Thumb Code     6  stm32f1xx_it.o(i.DMA1_Channel4_IRQHandler)
    DMA1_Channel5_IRQHandler                 0x080001c1   Thumb Code     6  stm32f1xx_it.o(i.DMA1_Channel5_IRQHandler)
    DMA1_Channel6_IRQHandler                 0x080001cd   Thumb Code     6  stm32f1xx_it.o(i.DMA1_Channel6_IRQHandler)
    DMA1_Channel7_IRQHandler                 0x080001d9   Thumb Code     6  stm32f1xx_it.o(i.DMA1_Channel7_IRQHandler)
    DebugMon_Handler                         0x0800020f   Thumb Code     2  stm32f1xx_it.o(i.DebugMon_Handler)
    Error_Handler                            0x08000211   Thumb Code     4  main.o(i.Error_Handler)
    FLASH_PageErase                          0x08000239   Thumb Code    28  stm32f1xx_hal_flash_ex.o(i.FLASH_PageErase)
    FLASH_Read                               0x08000279   Thumb Code    64  flash.o(i.FLASH_Read)
    FLASH_WaitForLastOperation               0x08000319   Thumb Code    80  stm32f1xx_hal_flash.o(i.FLASH_WaitForLastOperation)
    FLASH_Write                              0x0800036d   Thumb Code   228  flash.o(i.FLASH_Write)
    FLASH_WriteNotCheck                      0x08000455   Thumb Code    62  flash.o(i.FLASH_WriteNotCheck)
    Get_Data_Fram                            0x08000499   Thumb Code   102  message.o(i.Get_Data_Fram)
    HAL_DMA_Abort                            0x08000525   Thumb Code    70  stm32f1xx_hal_dma.o(i.HAL_DMA_Abort)
    HAL_DMA_Abort_IT                         0x0800056d   Thumb Code   148  stm32f1xx_hal_dma.o(i.HAL_DMA_Abort_IT)
    HAL_DMA_IRQHandler                       0x08000605   Thumb Code   316  stm32f1xx_hal_dma.o(i.HAL_DMA_IRQHandler)
    HAL_DMA_Init                             0x08000759   Thumb Code    84  stm32f1xx_hal_dma.o(i.HAL_DMA_Init)
    HAL_DMA_Start_IT                         0x080007b5   Thumb Code   112  stm32f1xx_hal_dma.o(i.HAL_DMA_Start_IT)
    HAL_Delay                                0x08000825   Thumb Code    32  stm32f1xx_hal.o(i.HAL_Delay)
    HAL_FLASHEx_Erase                        0x08000849   Thumb Code   160  stm32f1xx_hal_flash_ex.o(i.HAL_FLASHEx_Erase)
    HAL_FLASH_Lock                           0x080008f1   Thumb Code    14  stm32f1xx_hal_flash.o(i.HAL_FLASH_Lock)
    HAL_FLASH_Program                        0x08000905   Thumb Code   120  stm32f1xx_hal_flash.o(i.HAL_FLASH_Program)
    HAL_FLASH_Unlock                         0x08000985   Thumb Code    28  stm32f1xx_hal_flash.o(i.HAL_FLASH_Unlock)
    HAL_GPIO_Init                            0x080009ad   Thumb Code   418  stm32f1xx_hal_gpio.o(i.HAL_GPIO_Init)
    HAL_GPIO_ReadPin                         0x08000b6d   Thumb Code    10  stm32f1xx_hal_gpio.o(i.HAL_GPIO_ReadPin)
    HAL_GPIO_WritePin                        0x08000b77   Thumb Code    10  stm32f1xx_hal_gpio.o(i.HAL_GPIO_WritePin)
    HAL_GetTick                              0x08000b81   Thumb Code     6  stm32f1xx_hal.o(i.HAL_GetTick)
    HAL_IncTick                              0x08000b8d   Thumb Code    12  stm32f1xx_hal.o(i.HAL_IncTick)
    HAL_Init                                 0x08000b9d   Thumb Code    32  stm32f1xx_hal.o(i.HAL_Init)
    HAL_InitTick                             0x08000bc1   Thumb Code    54  stm32f1xx_hal.o(i.HAL_InitTick)
    HAL_MspInit                              0x08000c01   Thumb Code    52  stm32f1xx_hal_msp.o(i.HAL_MspInit)
    HAL_NVIC_EnableIRQ                       0x08000c3d   Thumb Code    26  stm32f1xx_hal_cortex.o(i.HAL_NVIC_EnableIRQ)
    HAL_NVIC_SetPriority                     0x08000c59   Thumb Code    60  stm32f1xx_hal_cortex.o(i.HAL_NVIC_SetPriority)
    HAL_NVIC_SetPriorityGrouping             0x08000c99   Thumb Code    26  stm32f1xx_hal_cortex.o(i.HAL_NVIC_SetPriorityGrouping)
    HAL_RCC_ClockConfig                      0x08000cbd   Thumb Code   280  stm32f1xx_hal_rcc.o(i.HAL_RCC_ClockConfig)
    HAL_RCC_GetPCLK1Freq                     0x08000de9   Thumb Code    20  stm32f1xx_hal_rcc.o(i.HAL_RCC_GetPCLK1Freq)
    HAL_RCC_GetPCLK2Freq                     0x08000e09   Thumb Code    20  stm32f1xx_hal_rcc.o(i.HAL_RCC_GetPCLK2Freq)
    HAL_RCC_GetSysClockFreq                  0x08000e29   Thumb Code    74  stm32f1xx_hal_rcc.o(i.HAL_RCC_GetSysClockFreq)
    HAL_RCC_OscConfig                        0x08000e95   Thumb Code   778  stm32f1xx_hal_rcc.o(i.HAL_RCC_OscConfig)
    HAL_SYSTICK_Config                       0x080011b5   Thumb Code    40  stm32f1xx_hal_cortex.o(i.HAL_SYSTICK_Config)
    HAL_TIMEx_BreakCallback                  0x080011dd   Thumb Code     2  stm32f1xx_hal_tim_ex.o(i.HAL_TIMEx_BreakCallback)
    HAL_TIMEx_CommutCallback                 0x080011df   Thumb Code     2  stm32f1xx_hal_tim_ex.o(i.HAL_TIMEx_CommutCallback)
    HAL_TIMEx_MasterConfigSynchronization    0x080011e1   Thumb Code    86  stm32f1xx_hal_tim_ex.o(i.HAL_TIMEx_MasterConfigSynchronization)
    HAL_TIM_Base_Init                        0x08001241   Thumb Code    90  stm32f1xx_hal_tim.o(i.HAL_TIM_Base_Init)
    HAL_TIM_Base_MspInit                     0x0800129d   Thumb Code    50  tim.o(i.HAL_TIM_Base_MspInit)
    HAL_TIM_Base_Start_IT                    0x080012d9   Thumb Code    70  stm32f1xx_hal_tim.o(i.HAL_TIM_Base_Start_IT)
    HAL_TIM_ConfigClockSource                0x08001329   Thumb Code   214  stm32f1xx_hal_tim.o(i.HAL_TIM_ConfigClockSource)
    HAL_TIM_IC_CaptureCallback               0x080013ff   Thumb Code     2  stm32f1xx_hal_tim.o(i.HAL_TIM_IC_CaptureCallback)
    HAL_TIM_IRQHandler                       0x08001401   Thumb Code   358  stm32f1xx_hal_tim.o(i.HAL_TIM_IRQHandler)
    HAL_TIM_OC_DelayElapsedCallback          0x08001567   Thumb Code     2  stm32f1xx_hal_tim.o(i.HAL_TIM_OC_DelayElapsedCallback)
    HAL_TIM_PWM_PulseFinishedCallback        0x08001569   Thumb Code     2  stm32f1xx_hal_tim.o(i.HAL_TIM_PWM_PulseFinishedCallback)
    HAL_TIM_PeriodElapsedCallback            0x0800156d   Thumb Code    40  main.o(i.HAL_TIM_PeriodElapsedCallback)
    HAL_TIM_TriggerCallback                  0x0800159d   Thumb Code     2  stm32f1xx_hal_tim.o(i.HAL_TIM_TriggerCallback)
    HAL_UARTEx_RxEventCallback               0x0800159f   Thumb Code     2  stm32f1xx_hal_uart.o(i.HAL_UARTEx_RxEventCallback)
    HAL_UART_DMAStop                         0x080015a1   Thumb Code    88  stm32f1xx_hal_uart.o(i.HAL_UART_DMAStop)
    HAL_UART_ErrorCallback                   0x080015f9   Thumb Code     2  stm32f1xx_hal_uart.o(i.HAL_UART_ErrorCallback)
    HAL_UART_IRQHandler                      0x080015fd   Thumb Code   520  stm32f1xx_hal_uart.o(i.HAL_UART_IRQHandler)
    HAL_UART_Init                            0x08001809   Thumb Code    98  stm32f1xx_hal_uart.o(i.HAL_UART_Init)
    HAL_UART_MspInit                         0x0800186d   Thumb Code   390  usart.o(i.HAL_UART_MspInit)
    HAL_UART_Receive_DMA                     0x08001a0d   Thumb Code    42  stm32f1xx_hal_uart.o(i.HAL_UART_Receive_DMA)
    HAL_UART_RxCpltCallback                  0x08001a37   Thumb Code     2  stm32f1xx_hal_uart.o(i.HAL_UART_RxCpltCallback)
    HAL_UART_RxHalfCpltCallback              0x08001a39   Thumb Code     2  stm32f1xx_hal_uart.o(i.HAL_UART_RxHalfCpltCallback)
    HAL_UART_Transmit                        0x08001a3d   Thumb Code   178  stm32f1xx_hal_uart.o(i.HAL_UART_Transmit)
    HAL_UART_TxCpltCallback                  0x08001aef   Thumb Code     2  stm32f1xx_hal_uart.o(i.HAL_UART_TxCpltCallback)
    HardFault_Handler                        0x08001af1   Thumb Code     2  stm32f1xx_it.o(i.HardFault_Handler)
    MX_DMA_Init                              0x08001af5   Thumb Code    88  dma.o(i.MX_DMA_Init)
    MX_GPIO_Init                             0x08001b51   Thumb Code   178  gpio.o(i.MX_GPIO_Init)
    MX_TIM3_Init                             0x08001c11   Thumb Code    94  tim.o(i.MX_TIM3_Init)
    MX_USART1_UART_Init                      0x08001c79   Thumb Code    66  usart.o(i.MX_USART1_UART_Init)
    MX_USART2_UART_Init                      0x08001cc9   Thumb Code    66  usart.o(i.MX_USART2_UART_Init)
    MemManage_Handler                        0x08001d19   Thumb Code     2  stm32f1xx_it.o(i.MemManage_Handler)
    NMI_Handler                              0x08001d1b   Thumb Code     2  stm32f1xx_it.o(i.NMI_Handler)
    PendSV_Handler                           0x08001d1d   Thumb Code     2  stm32f1xx_it.o(i.PendSV_Handler)
    SVC_Handler                              0x08001d1f   Thumb Code     2  stm32f1xx_it.o(i.SVC_Handler)
    SysTick_Handler                          0x08001d21   Thumb Code     4  stm32f1xx_it.o(i.SysTick_Handler)
    SystemClock_Config                       0x08001d25   Thumb Code    94  main.o(i.SystemClock_Config)
    SystemInit                               0x08001d83   Thumb Code     2  system_stm32f1xx.o(i.SystemInit)
    TIM3_IRQHandler                          0x08001d85   Thumb Code     6  stm32f1xx_it.o(i.TIM3_IRQHandler)
    TIM_Base_SetConfig                       0x08001d91   Thumb Code    84  stm32f1xx_hal_tim.o(i.TIM_Base_SetConfig)
    TIM_ETR_SetConfig                        0x08001ded   Thumb Code    20  stm32f1xx_hal_tim.o(i.TIM_ETR_SetConfig)
    UART_Start_Receive_DMA                   0x080020d5   Thumb Code    98  stm32f1xx_hal_uart.o(i.UART_Start_Receive_DMA)
    USART1_IRQHandler                        0x080021a9   Thumb Code    18  stm32f1xx_it.o(i.USART1_IRQHandler)
    USART2_IRQHandler                        0x080021c1   Thumb Code    18  stm32f1xx_it.o(i.USART2_IRQHandler)
    USAR_UART_IDLECallback                   0x080021d9   Thumb Code    84  main.o(i.USAR_UART_IDLECallback)
    UsageFault_Handler                       0x0800224d   Thumb Code     2  stm32f1xx_it.o(i.UsageFault_Handler)
    __0printf$bare                           0x08002251   Thumb Code     8  printfb.o(i.__0printf$bare)
    __1printf$bare                           0x08002251   Thumb Code     0  printfb.o(i.__0printf$bare)
    __2printf                                0x08002251   Thumb Code     0  printfb.o(i.__0printf$bare)
    __scatterload_copy                       0x08002281   Thumb Code    14  handlers.o(i.__scatterload_copy)
    __scatterload_null                       0x0800228f   Thumb Code     2  handlers.o(i.__scatterload_null)
    __scatterload_zeroinit                   0x08002291   Thumb Code    14  handlers.o(i.__scatterload_zeroinit)
    change_ID                                0x080022c1   Thumb Code    92  drive.o(i.change_ID)
    check_data                               0x08002329   Thumb Code   118  message.o(i.check_data)
    check_drive                              0x080023b5   Thumb Code   146  drive.o(i.check_drive)
    fputc                                    0x08002459   Thumb Code    20  usart.o(i.fputc)
    free                                     0x08002471   Thumb Code    76  malloc.o(i.free)
    get_sys_clk                              0x080024c1   Thumb Code     6  main.o(i.get_sys_clk)
    init_myself                              0x080024cd   Thumb Code   170  drive.o(i.init_myself)
    key_drive_oper                           0x0800258d   Thumb Code   202  drive.o(i.key_drive_oper)
    key_scan                                 0x08002669   Thumb Code    70  drive.o(i.key_scan)
    main                                     0x080026b5   Thumb Code    90  main.o(i.main)
    malloc                                   0x08002725   Thumb Code    92  malloc.o(i.malloc)
    message_init                             0x08002791   Thumb Code    36  message.o(i.message_init)
    polling                                  0x080027b9   Thumb Code   400  message.o(i.polling)
    report_heartbeat                         0x08002959   Thumb Code   194  drive.o(i.report_heartbeat)
    send_message                             0x08002a29   Thumb Code   116  message.o(i.send_message)
    set_key_light                            0x08002aa1   Thumb Code    14  drive.o(i.set_key_light)
    AHBPrescTable                            0x08002aae   Data          16  system_stm32f1xx.o(.constdata)
    APBPrescTable                            0x08002abe   Data           8  system_stm32f1xx.o(.constdata)
    Region$$Table$$Base                      0x08002ac8   Number         0  anon$$obj.o(Region$$Table)
    Region$$Table$$Limit                     0x08002ae8   Number         0  anon$$obj.o(Region$$Table)
    operation_flag                           0x20000000   Data           1  drive.o(.data)
    drive_myself                             0x20000004   Data           4  drive.o(.data)
    wait_init_time_flag                      0x20000008   Data           1  main.o(.data)
    flash_test                               0x2000000c   Data           2  main.o(.data)
    sys_time                                 0x20000010   Data           4  main.o(.data)
    message_fram                             0x20000014   Data           4  message.o(.data)
    send_fram                                0x20000018   Data           4  message.o(.data)
    SystemCoreClock                          0x2000001c   Data           4  system_stm32f1xx.o(.data)
    rx_len_1                                 0x20000020   Data           1  usart.o(.data)
    rx_len_2                                 0x20000021   Data           1  usart.o(.data)
    recv_end_flag_1                          0x20000022   Data           1  usart.o(.data)
    recv_end_flag_2                          0x20000023   Data           1  usart.o(.data)
    __stdout                                 0x20000024   Data           4  usart.o(.data)
    uwTickFreq                               0x20000028   Data           1  stm32f1xx_hal.o(.data)
    uwTickPrio                               0x2000002c   Data           4  stm32f1xx_hal.o(.data)
    uwTick                                   0x20000030   Data           4  stm32f1xx_hal.o(.data)
    __microlib_freelist                      0x20000034   Data           4  mvars.o(.data)
    __microlib_freelist_initialised          0x20000038   Data           4  mvars.o(.data)
    key_stat                                 0x20000046   Data          10  drive.o(.bss)
    key_stat_last                            0x20000050   Data          10  drive.o(.bss)
    key_port                                 0x2000005c   Data          40  drive.o(.bss)
    key_pin                                  0x20000084   Data          40  drive.o(.bss)
    htim3                                    0x200004ac   Data          72  tim.o(.bss)
    rx_buffer_1                              0x200004f4   Data         200  usart.o(.bss)
    rx_buffer_2                              0x200005bc   Data         200  usart.o(.bss)
    huart1                                   0x20000684   Data          68  usart.o(.bss)
    huart2                                   0x200006c8   Data          68  usart.o(.bss)
    hdma_usart1_rx                           0x2000070c   Data          68  usart.o(.bss)
    hdma_usart1_tx                           0x20000750   Data          68  usart.o(.bss)
    hdma_usart2_rx                           0x20000794   Data          68  usart.o(.bss)
    hdma_usart2_tx                           0x200007d8   Data          68  usart.o(.bss)
    pFlash                                   0x20000820   Data          32  stm32f1xx_hal_flash.o(.bss)
    __heap_base                              0x20000840   Data           0  startup_stm32f103x6.o(HEAP)
    __heap_limit                             0x20001740   Data           0  startup_stm32f103x6.o(HEAP)
    __initial_sp                             0x20002640   Data           0  startup_stm32f103x6.o(STACK)



==============================================================================

Memory Map of the image

  Image Entry point : 0x080000ed

  Load Region LR_IROM1 (Base: 0x08000000, Size: 0x00002b24, Max: 0x00008000, ABSOLUTE)

    Execution Region ER_IROM1 (Base: 0x08000000, Size: 0x00002ae8, Max: 0x00008000, ABSOLUTE)

    Base Addr    Size         Type   Attr      Idx    E Section Name        Object

    0x08000000   0x000000ec   Data   RO         3052    RESET               startup_stm32f103x6.o
    0x080000ec   0x00000000   Code   RO         3057  * .ARM.Collect$$$$00000000  mc_w.l(entry.o)
    0x080000ec   0x00000004   Code   RO         3356    .ARM.Collect$$$$00000001  mc_w.l(entry2.o)
    0x080000f0   0x00000004   Code   RO         3359    .ARM.Collect$$$$00000004  mc_w.l(entry5.o)
    0x080000f4   0x00000000   Code   RO         3361    .ARM.Collect$$$$00000008  mc_w.l(entry7b.o)
    0x080000f4   0x00000000   Code   RO         3363    .ARM.Collect$$$$0000000A  mc_w.l(entry8b.o)
    0x080000f4   0x00000008   Code   RO         3364    .ARM.Collect$$$$0000000B  mc_w.l(entry9a.o)
    0x080000fc   0x00000000   Code   RO         3366    .ARM.Collect$$$$0000000D  mc_w.l(entry10a.o)
    0x080000fc   0x00000000   Code   RO         3368    .ARM.Collect$$$$0000000F  mc_w.l(entry11a.o)
    0x080000fc   0x00000004   Code   RO         3357    .ARM.Collect$$$$00002712  mc_w.l(entry2.o)
    0x08000100   0x00000024   Code   RO         3053    .text               startup_stm32f103x6.o
    0x08000124   0x00000020   Code   RO         3060    .text               mc_w.l(llushr.o)
    0x08000144   0x00000024   Code   RO         3062    .text               mc_w.l(memcpya.o)
    0x08000168   0x00000024   Code   RO         3064    .text               mc_w.l(memseta.o)
    0x0800018c   0x00000024   Code   RO         3387    .text               mc_w.l(init.o)
    0x080001b0   0x00000002   Code   RO          455    i.BusFault_Handler  stm32f1xx_it.o
    0x080001b2   0x00000002   PAD
    0x080001b4   0x0000000c   Code   RO          456    i.DMA1_Channel4_IRQHandler  stm32f1xx_it.o
    0x080001c0   0x0000000c   Code   RO          457    i.DMA1_Channel5_IRQHandler  stm32f1xx_it.o
    0x080001cc   0x0000000c   Code   RO          458    i.DMA1_Channel6_IRQHandler  stm32f1xx_it.o
    0x080001d8   0x0000000c   Code   RO          459    i.DMA1_Channel7_IRQHandler  stm32f1xx_it.o
    0x080001e4   0x0000002a   Code   RO         1013    i.DMA_SetConfig     stm32f1xx_hal_dma.o
    0x0800020e   0x00000002   Code   RO          460    i.DebugMon_Handler  stm32f1xx_it.o
    0x08000210   0x00000004   Code   RO          308    i.Error_Handler     main.o
    0x08000214   0x00000024   Code   RO         1283    i.FLASH_MassErase   stm32f1xx_hal_flash_ex.o
    0x08000238   0x00000024   Code   RO         1286    i.FLASH_PageErase   stm32f1xx_hal_flash_ex.o
    0x0800025c   0x0000001c   Code   RO         1180    i.FLASH_Program_HalfWord  stm32f1xx_hal_flash.o
    0x08000278   0x00000044   Code   RO          217    i.FLASH_Read        flash.o
    0x080002bc   0x0000005c   Code   RO         1181    i.FLASH_SetErrorCode  stm32f1xx_hal_flash.o
    0x08000318   0x00000054   Code   RO         1182    i.FLASH_WaitForLastOperation  stm32f1xx_hal_flash.o
    0x0800036c   0x000000e8   Code   RO          219    i.FLASH_Write       flash.o
    0x08000454   0x00000044   Code   RO          220    i.FLASH_WriteNotCheck  flash.o
    0x08000498   0x0000008c   Code   RO          375    i.Get_Data_Fram     message.o
    0x08000524   0x00000046   Code   RO         1014    i.HAL_DMA_Abort     stm32f1xx_hal_dma.o
    0x0800056a   0x00000002   PAD
    0x0800056c   0x00000098   Code   RO         1015    i.HAL_DMA_Abort_IT  stm32f1xx_hal_dma.o
    0x08000604   0x00000154   Code   RO         1019    i.HAL_DMA_IRQHandler  stm32f1xx_hal_dma.o
    0x08000758   0x0000005c   Code   RO         1020    i.HAL_DMA_Init      stm32f1xx_hal_dma.o
    0x080007b4   0x00000070   Code   RO         1024    i.HAL_DMA_Start_IT  stm32f1xx_hal_dma.o
    0x08000824   0x00000024   Code   RO          729    i.HAL_Delay         stm32f1xx_hal.o
    0x08000848   0x000000a8   Code   RO         1287    i.HAL_FLASHEx_Erase  stm32f1xx_hal_flash_ex.o
    0x080008f0   0x00000014   Code   RO         1186    i.HAL_FLASH_Lock    stm32f1xx_hal_flash.o
    0x08000904   0x00000080   Code   RO         1191    i.HAL_FLASH_Program  stm32f1xx_hal_flash.o
    0x08000984   0x00000028   Code   RO         1193    i.HAL_FLASH_Unlock  stm32f1xx_hal_flash.o
    0x080009ac   0x000001c0   Code   RO         1361    i.HAL_GPIO_Init     stm32f1xx_hal_gpio.o
    0x08000b6c   0x0000000a   Code   RO         1363    i.HAL_GPIO_ReadPin  stm32f1xx_hal_gpio.o
    0x08000b76   0x0000000a   Code   RO         1365    i.HAL_GPIO_WritePin  stm32f1xx_hal_gpio.o
    0x08000b80   0x0000000c   Code   RO          733    i.HAL_GetTick       stm32f1xx_hal.o
    0x08000b8c   0x00000010   Code   RO          739    i.HAL_IncTick       stm32f1xx_hal.o
    0x08000b9c   0x00000024   Code   RO          740    i.HAL_Init          stm32f1xx_hal.o
    0x08000bc0   0x00000040   Code   RO          741    i.HAL_InitTick      stm32f1xx_hal.o
    0x08000c00   0x0000003c   Code   RO          431    i.HAL_MspInit       stm32f1xx_hal_msp.o
    0x08000c3c   0x0000001a   Code   RO          898    i.HAL_NVIC_EnableIRQ  stm32f1xx_hal_cortex.o
    0x08000c56   0x00000002   PAD
    0x08000c58   0x00000040   Code   RO          904    i.HAL_NVIC_SetPriority  stm32f1xx_hal_cortex.o
    0x08000c98   0x00000024   Code   RO          905    i.HAL_NVIC_SetPriorityGrouping  stm32f1xx_hal_cortex.o
    0x08000cbc   0x0000012c   Code   RO         1586    i.HAL_RCC_ClockConfig  stm32f1xx_hal_rcc.o
    0x08000de8   0x00000020   Code   RO         1593    i.HAL_RCC_GetPCLK1Freq  stm32f1xx_hal_rcc.o
    0x08000e08   0x00000020   Code   RO         1594    i.HAL_RCC_GetPCLK2Freq  stm32f1xx_hal_rcc.o
    0x08000e28   0x0000006c   Code   RO         1595    i.HAL_RCC_GetSysClockFreq  stm32f1xx_hal_rcc.o
    0x08000e94   0x00000320   Code   RO         1598    i.HAL_RCC_OscConfig  stm32f1xx_hal_rcc.o
    0x080011b4   0x00000028   Code   RO          909    i.HAL_SYSTICK_Config  stm32f1xx_hal_cortex.o
    0x080011dc   0x00000002   Code   RO         2429    i.HAL_TIMEx_BreakCallback  stm32f1xx_hal_tim_ex.o
    0x080011de   0x00000002   Code   RO         2430    i.HAL_TIMEx_CommutCallback  stm32f1xx_hal_tim_ex.o
    0x080011e0   0x00000060   Code   RO         2448    i.HAL_TIMEx_MasterConfigSynchronization  stm32f1xx_hal_tim_ex.o
    0x08001240   0x0000005a   Code   RO         1725    i.HAL_TIM_Base_Init  stm32f1xx_hal_tim.o
    0x0800129a   0x00000002   PAD
    0x0800129c   0x0000003c   Code   RO          612    i.HAL_TIM_Base_MspInit  tim.o
    0x080012d8   0x00000050   Code   RO         1730    i.HAL_TIM_Base_Start_IT  stm32f1xx_hal_tim.o
    0x08001328   0x000000d6   Code   RO         1734    i.HAL_TIM_ConfigClockSource  stm32f1xx_hal_tim.o
    0x080013fe   0x00000002   Code   RO         1759    i.HAL_TIM_IC_CaptureCallback  stm32f1xx_hal_tim.o
    0x08001400   0x00000166   Code   RO         1773    i.HAL_TIM_IRQHandler  stm32f1xx_hal_tim.o
    0x08001566   0x00000002   Code   RO         1776    i.HAL_TIM_OC_DelayElapsedCallback  stm32f1xx_hal_tim.o
    0x08001568   0x00000002   Code   RO         1803    i.HAL_TIM_PWM_PulseFinishedCallback  stm32f1xx_hal_tim.o
    0x0800156a   0x00000002   PAD
    0x0800156c   0x00000030   Code   RO          309    i.HAL_TIM_PeriodElapsedCallback  main.o
    0x0800159c   0x00000002   Code   RO         1816    i.HAL_TIM_TriggerCallback  stm32f1xx_hal_tim.o
    0x0800159e   0x00000002   Code   RO         2707    i.HAL_UARTEx_RxEventCallback  stm32f1xx_hal_uart.o
    0x080015a0   0x00000058   Code   RO         2719    i.HAL_UART_DMAStop  stm32f1xx_hal_uart.o
    0x080015f8   0x00000002   Code   RO         2721    i.HAL_UART_ErrorCallback  stm32f1xx_hal_uart.o
    0x080015fa   0x00000002   PAD
    0x080015fc   0x0000020c   Code   RO         2724    i.HAL_UART_IRQHandler  stm32f1xx_hal_uart.o
    0x08001808   0x00000062   Code   RO         2725    i.HAL_UART_Init     stm32f1xx_hal_uart.o
    0x0800186a   0x00000002   PAD
    0x0800186c   0x000001a0   Code   RO          654    i.HAL_UART_MspInit  usart.o
    0x08001a0c   0x0000002a   Code   RO         2729    i.HAL_UART_Receive_DMA  stm32f1xx_hal_uart.o
    0x08001a36   0x00000002   Code   RO         2731    i.HAL_UART_RxCpltCallback  stm32f1xx_hal_uart.o
    0x08001a38   0x00000002   Code   RO         2732    i.HAL_UART_RxHalfCpltCallback  stm32f1xx_hal_uart.o
    0x08001a3a   0x00000002   PAD
    0x08001a3c   0x000000b2   Code   RO         2733    i.HAL_UART_Transmit  stm32f1xx_hal_uart.o
    0x08001aee   0x00000002   Code   RO         2736    i.HAL_UART_TxCpltCallback  stm32f1xx_hal_uart.o
    0x08001af0   0x00000002   Code   RO          461    i.HardFault_Handler  stm32f1xx_it.o
    0x08001af2   0x00000002   PAD
    0x08001af4   0x0000005c   Code   RO            4    i.MX_DMA_Init       dma.o
    0x08001b50   0x000000c0   Code   RO          281    i.MX_GPIO_Init      gpio.o
    0x08001c10   0x00000068   Code   RO          613    i.MX_TIM3_Init      tim.o
    0x08001c78   0x00000050   Code   RO          655    i.MX_USART1_UART_Init  usart.o
    0x08001cc8   0x00000050   Code   RO          656    i.MX_USART2_UART_Init  usart.o
    0x08001d18   0x00000002   Code   RO          462    i.MemManage_Handler  stm32f1xx_it.o
    0x08001d1a   0x00000002   Code   RO          463    i.NMI_Handler       stm32f1xx_it.o
    0x08001d1c   0x00000002   Code   RO          464    i.PendSV_Handler    stm32f1xx_it.o
    0x08001d1e   0x00000002   Code   RO          465    i.SVC_Handler       stm32f1xx_it.o
    0x08001d20   0x00000004   Code   RO          466    i.SysTick_Handler   stm32f1xx_it.o
    0x08001d24   0x0000005e   Code   RO          310    i.SystemClock_Config  main.o
    0x08001d82   0x00000002   Code   RO          574    i.SystemInit        system_stm32f1xx.o
    0x08001d84   0x0000000c   Code   RO          467    i.TIM3_IRQHandler   stm32f1xx_it.o
    0x08001d90   0x0000005c   Code   RO         1818    i.TIM_Base_SetConfig  stm32f1xx_hal_tim.o
    0x08001dec   0x00000014   Code   RO         1829    i.TIM_ETR_SetConfig  stm32f1xx_hal_tim.o
    0x08001e00   0x00000010   Code   RO         1830    i.TIM_ITRx_SetConfig  stm32f1xx_hal_tim.o
    0x08001e10   0x00000022   Code   RO         1836    i.TIM_TI1_ConfigInputStage  stm32f1xx_hal_tim.o
    0x08001e32   0x00000024   Code   RO         1838    i.TIM_TI2_ConfigInputStage  stm32f1xx_hal_tim.o
    0x08001e56   0x00000010   Code   RO         2738    i.UART_DMAAbortOnError  stm32f1xx_hal_uart.o
    0x08001e66   0x0000004a   Code   RO         2739    i.UART_DMAError     stm32f1xx_hal_uart.o
    0x08001eb0   0x0000005a   Code   RO         2740    i.UART_DMAReceiveCplt  stm32f1xx_hal_uart.o
    0x08001f0a   0x0000001a   Code   RO         2742    i.UART_DMARxHalfCplt  stm32f1xx_hal_uart.o
    0x08001f24   0x00000030   Code   RO         2748    i.UART_EndRxTransfer  stm32f1xx_hal_uart.o
    0x08001f54   0x00000012   Code   RO         2749    i.UART_EndTxTransfer  stm32f1xx_hal_uart.o
    0x08001f66   0x000000b6   Code   RO         2750    i.UART_Receive_IT   stm32f1xx_hal_uart.o
    0x0800201c   0x000000b8   Code   RO         2751    i.UART_SetConfig    stm32f1xx_hal_uart.o
    0x080020d4   0x00000070   Code   RO         2752    i.UART_Start_Receive_DMA  stm32f1xx_hal_uart.o
    0x08002144   0x00000064   Code   RO         2754    i.UART_WaitOnFlagUntilTimeout  stm32f1xx_hal_uart.o
    0x080021a8   0x00000018   Code   RO          468    i.USART1_IRQHandler  stm32f1xx_it.o
    0x080021c0   0x00000018   Code   RO          469    i.USART2_IRQHandler  stm32f1xx_it.o
    0x080021d8   0x00000074   Code   RO          311    i.USAR_UART_IDLECallback  main.o
    0x0800224c   0x00000002   Code   RO          470    i.UsageFault_Handler  stm32f1xx_it.o
    0x0800224e   0x00000002   PAD
    0x08002250   0x00000010   Code   RO         3069    i.__0printf$bare    mc_w.l(printfb.o)
    0x08002260   0x00000020   Code   RO          911    i.__NVIC_SetPriority  stm32f1xx_hal_cortex.o
    0x08002280   0x0000000e   Code   RO         3397    i.__scatterload_copy  mc_w.l(handlers.o)
    0x0800228e   0x00000002   Code   RO         3398    i.__scatterload_null  mc_w.l(handlers.o)
    0x08002290   0x0000000e   Code   RO         3399    i.__scatterload_zeroinit  mc_w.l(handlers.o)
    0x0800229e   0x00000022   Code   RO         3076    i._printf_core      mc_w.l(printfb.o)
    0x080022c0   0x00000068   Code   RO          125    i.change_ID         drive.o
    0x08002328   0x0000008c   Code   RO          376    i.check_data        message.o
    0x080023b4   0x000000a4   Code   RO          126    i.check_drive       drive.o
    0x08002458   0x00000018   Code   RO          658    i.fputc             usart.o
    0x08002470   0x00000050   Code   RO         3328    i.free              mc_w.l(malloc.o)
    0x080024c0   0x0000000c   Code   RO          312    i.get_sys_clk       main.o
    0x080024cc   0x000000c0   Code   RO          127    i.init_myself       drive.o
    0x0800258c   0x000000dc   Code   RO          128    i.key_drive_oper    drive.o
    0x08002668   0x0000004c   Code   RO          129    i.key_scan          drive.o
    0x080026b4   0x00000070   Code   RO          313    i.main              main.o
    0x08002724   0x0000006c   Code   RO         3329    i.malloc            mc_w.l(malloc.o)
    0x08002790   0x00000028   Code   RO          377    i.message_init      message.o
    0x080027b8   0x000001a0   Code   RO          378    i.polling           message.o
    0x08002958   0x000000d0   Code   RO          130    i.report_heartbeat  drive.o
    0x08002a28   0x00000078   Code   RO          379    i.send_message      message.o
    0x08002aa0   0x0000000e   Code   RO          131    i.set_key_light     drive.o
    0x08002aae   0x00000010   Data   RO          575    .constdata          system_stm32f1xx.o
    0x08002abe   0x00000008   Data   RO          576    .constdata          system_stm32f1xx.o
    0x08002ac6   0x00000002   PAD
    0x08002ac8   0x00000020   Data   RO         3395    Region$$Table       anon$$obj.o


    Execution Region RW_IRAM1 (Base: 0x20000000, Size: 0x00002640, Max: 0x00002800, ABSOLUTE)

    Base Addr    Size         Type   Attr      Idx    E Section Name        Object

    0x20000000   0x00000008   Data   RW          133    .data               drive.o
    0x20000008   0x00000001   Data   RW          315    .data               main.o
    0x20000009   0x00000003   PAD
    0x2000000c   0x00000008   Data   RW          316    .data               main.o
    0x20000014   0x00000008   Data   RW          380    .data               message.o
    0x2000001c   0x00000004   Data   RW          577    .data               system_stm32f1xx.o
    0x20000020   0x00000001   Data   RW          660    .data               usart.o
    0x20000021   0x00000001   Data   RW          661    .data               usart.o
    0x20000022   0x00000001   Data   RW          662    .data               usart.o
    0x20000023   0x00000001   Data   RW          663    .data               usart.o
    0x20000024   0x00000004   Data   RW          664    .data               usart.o
    0x20000028   0x0000000c   Data   RW          747    .data               stm32f1xx_hal.o
    0x20000034   0x00000004   Data   RW         3374    .data               mc_w.l(mvars.o)
    0x20000038   0x00000004   Data   RW         3375    .data               mc_w.l(mvars.o)
    0x2000003c   0x00000070   Zero   RW          132    .bss                drive.o
    0x200000ac   0x00000400   Zero   RW          222    .bss                flash.o
    0x200004ac   0x00000048   Zero   RW          614    .bss                tim.o
    0x200004f4   0x00000328   Zero   RW          659    .bss                usart.o
    0x2000081c   0x00000004   PAD
    0x20000820   0x00000020   Zero   RW         1194    .bss                stm32f1xx_hal_flash.o
    0x20000840   0x00000f00   Zero   RW         3051    HEAP                startup_stm32f103x6.o
    0x20001740   0x00000f00   Zero   RW         3050    STACK               startup_stm32f103x6.o


==============================================================================

Image component sizes


      Code (inc. data)   RO Data    RW Data    ZI Data      Debug   Object Name

        92          4          0          0          0     423402   dma.o
       978         90          0          8        112       5953   drive.o
       368         14          0          0       1024       3405   flash.o
       192         14          0          0          0        895   gpio.o
       386         68          0          9          0       3897   main.o
       856         92          0          8          0       5536   message.o
        36          8        236          0       7680        744   startup_stm32f103x6.o
       164         28          0         12          0       5353   stm32f1xx_hal.o
       198         14          0          0          0      28799   stm32f1xx_hal_cortex.o
       808         36          0          0          0       4810   stm32f1xx_hal_dma.o
       392         46          0          0         32       4522   stm32f1xx_hal_flash.o
       240         26          0          0          0       3045   stm32f1xx_hal_flash_ex.o
       468         30          0          0          0       3407   stm32f1xx_hal_gpio.o
        60          8          0          0          0        818   stm32f1xx_hal_msp.o
      1272        100          0          0          0       5044   stm32f1xx_hal_rcc.o
       948         18          0          0          0       9293   stm32f1xx_hal_tim.o
       100         10          0          0          0       2273   stm32f1xx_hal_tim_ex.o
      1790         24          0          0          0      14141   stm32f1xx_hal_uart.o
       128         42          0          0          0       6660   stm32f1xx_it.o
         2          0         24          4          0       1043   system_stm32f1xx.o
       164         20          0          0         72       1558   tim.o
       600         58          0          8        808       4669   usart.o

    ----------------------------------------------------------------------
     10262        750        294         52       9732     539267   Object Totals
         0          0         32          0          0          0   (incl. Generated)
        20          0          2          3          4          0   (incl. Padding)

    ----------------------------------------------------------------------

      Code (inc. data)   RO Data    RW Data    ZI Data      Debug   Library Member Name

         0          0          0          0          0          0   entry.o
         0          0          0          0          0          0   entry10a.o
         0          0          0          0          0          0   entry11a.o
         8          4          0          0          0          0   entry2.o
         4          0          0          0          0          0   entry5.o
         0          0          0          0          0          0   entry7b.o
         0          0          0          0          0          0   entry8b.o
         8          4          0          0          0          0   entry9a.o
        30          0          0          0          0          0   handlers.o
        36          8          0          0          0         68   init.o
        32          0          0          0          0         68   llushr.o
       188         20          0          0          0        160   malloc.o
        36          0          0          0          0         68   memcpya.o
        36          0          0          0          0        108   memseta.o
         0          0          0          8          0          0   mvars.o
        50          8          0          0          0        152   printfb.o

    ----------------------------------------------------------------------
       428         44          0          8          0        624   Library Totals
         0          0          0          0          0          0   (incl. Padding)

    ----------------------------------------------------------------------

      Code (inc. data)   RO Data    RW Data    ZI Data      Debug   Library Name

       428         44          0          8          0        624   mc_w.l

    ----------------------------------------------------------------------
       428         44          0          8          0        624   Library Totals

    ----------------------------------------------------------------------

==============================================================================


      Code (inc. data)   RO Data    RW Data    ZI Data      Debug   

     10690        794        294         60       9732     534011   Grand Totals
     10690        794        294         60       9732     534011   ELF Image Totals
     10690        794        294         60          0          0   ROM Totals

==============================================================================

    Total RO  Size (Code + RO Data)                10984 (  10.73kB)
    Total RW  Size (RW Data + ZI Data)              9792 (   9.56kB)
    Total ROM Size (Code + RO Data + RW Data)      11044 (  10.79kB)

==============================================================================

