S3150800000040260020010100081B1D0008F11A0008FF
S31508000010191D0008B10100084D2200080000000063
S315080000200000000000000000000000001F1D00087E
S315080000300F020008000000001D1D0008211D000811
S315080000401B0100081B0100081B0100081B01000812
S315080000501B0100081B0100081B0100081B01000802
S315080000601B0100081B0100081B0100081B010008F2
S315080000701B0100081B010008B5010008C1010008A2
S31508000080CD010008D90100081B0100081B01000862
S315080000901B0100081B0100081B0100081B010008C2
S315080000A01B0100081B0100081B0100081B010008B2
S315080000B01B010008851D0008000000001B01000840
S315080000C01B01000800000000000000001B010008DA
S315080000D000000000A9210008C12100080000000056
S315080000E01B0100081B0100081B010008DFF80CD0E3
S315080000F000F04CF800480047B526000840260020C6
S315080001000648804706480047FEE7FEE7FEE7FEE7A3
S31508000110FEE7FEE7FEE7FEE7FEE7FEE7831D0008CB
S31508000120ED000008202A04DB203A21FA02F000211B
S31508000130704721FA02F3D040C2F1200291400843E9
S315080001401946704740EA01039B0703D009E008C92E
S31508000150121F08C0042AFAD203E011F8013B00F87E
S31508000160013B521EF9D27047D2B201E000F8012BCA
S31508000170491EFBD270470022F6E710B513460A4619
S3150800018004461946FFF7F0FF204610BD064C074DFA
S3150800019006E0E06840F0010394E807009847103449
S315080001A0AC42F6D3FFF7A6FFC82A0008E82A0008DB
S315080001B0FEE70000014800F025BA000050070020BD
S315080001C0014800F01FBA00000C070020014800F0A3
S315080001D019BA000094070020014800F013BA00007D
S315080001E0D807002030B590F840500124AC40C56BC4
S315080001F06C60046863604368102B036803D09960D9
S315080002000068C26030BD9A600068C16030BD704742
S3150800021072B6FEE706490020C8610648016941F042
S3150800022004010161016941F0400101617047000064
S315080002302008002000200240064A0021D161064914
S315080002400A6942F002020A614861086940F0400002
S31508000250086170472008002000200240044B002255
S31508000260DA61044A136943F0010313610180704798
S31508000270200800200020024070B5134629B1B0F1CD
S31508000280006F02D30C4CA04205D3002070BD40C8B5
S315080002901B1F40C101E0084D2D1F042B07D3A842A0
S315080002A0F5D904E010F8015B01F8015B5B1E0BB1A0
S315080002B0A042F7D3D01A70BD008000081448002267
S315080002C0C168CB06134904D5CA6942F00202CA615D
S315080002D01022C3685B0705D5CB6943F00103CB61E0
S315080002E042F00402C369DB0707D0CB6943F0040375
S315080002F0CB61C16921F00101C161A2F580710139A3
S3150800030001D0C2607047C16921F00101C16170471F
S31508000310002002402008002070B5054600F030FC99
S315080003200646114C09E0681C07D025B100F028FCE8
S31508000330801BA84201D9032070BDE068C007F2D12E
S31508000340E068800601D52020E060E068C00605D494
S31508000350E069C00702D1E068400703D5FFF7AEFFA2
S31508000360012070BD002070BD002002402DE9F04F2D
S315080003708346A0F1006447F6FF7087B0914615469C
S315080003800E4684420CD25DB156B100F0FBFA4FEA34
S31508000390942AC4F34801C1F50074A5424FD94FE029
S315080003A0002007B0BDE8F08FBAF1200F4AD2284ADC
S315080003B000204FF6FF7302EB410804E038F81010EE
S315080003C0994202D1401CA042F8D3A04224D2002769
S315080003D04FF0006000EB8A200097059003900120FB
S315080003E0029004900197694601A800F02DFA48BBCF
S315080003F005E000BF36F8171028F817107F1CA7422B
S31508000400F8D34FF400773A461149059800F022F8D8
S31508000410B84208D02D1A15E022463146584600F053
S3150800042019F8A042F6D106EB44060BEB440B2D1B3C
S3150800043000214FF400740AF1010AA54200D22C46A5
S31508000440002DB1D100F054FAA9EB05004000A8E749
S31508000450AC0000202DE9F0418846054616461446AC
S315080004600C4F11E0BD4211D8B8F8002000232946E8
S31508000470012000F047FA2988B8F80000814205D122
S31508000480641E08F10208AD1C002CEBD1301BBDE838
S31508000490F0810000FE7F00082DE9F041184E317802
S315080004A0184C0027012920680CD1174D29780929ED
S315080004B008D32A781549FFF745FE3770C82213492D
S315080004C013480FE0134E3178012916D1124D2978B9
S315080004D0092912D32A781149FFF734FE3770C82242
S315080004E00E490F4801F092FA206829788079093078
S315080004F0884202D10120BDE8F0810020FBE7000018
S31508000500220000201400002020000020F40400200F
S31508000510840600202300002021000020BC050020BE
S31508000520C806002010B590F821100022022905D02F
S315080005300421816380F82020012010BD01680B6822
S3150800054023F00E030B6001680B6823F001030B60B0
S3150800055090F84030C46B012101FA03F3636080F818
S31508000560211080F82020104610BD000010B590F824
S3150800057021100024022903D00421816301243DE0CF
S3150800058001680A6822F00E020A6001680A6822F009
S3150800059001020A601A4A0168914201D1012121E04B
S315080005A0174A1432914201D110211BE0144A28320D
S315080005B0914201D1891515E0114A3C32914201D187
S315080005C089140FE00E4A5032914202D14FF480311D
S315080005D008E00B4A6432914202D14FF4801101E0DF
S315080005E04FF08071064A083A5160012180F82110BF
S315080005F0002180F82010416B01B18847204610BDC4
S31508000600080002402DE9F05FC16B0C6801680B68B1
S31508000610D0F840C0042202FA0CF2494DDFF824A1B2
S31508000620494E4A4FDFF828B1DFF828E122422CD09C
S315080006305A072AD50A68920603D40A6822F00402E1
S315080006400A600168A94201D1042219E0514501D185
S31508000650402215E0B14202D14FF4806210E0B9425F
S3150800066002D14FF480420BE0594502D14FF4802263
S3150800067006E0714502D14FF4800201E04FF0806236
S315080006802F4908394A60C16A3BE04FF0020808FA68
S315080006900CF818EA040F4FF000094FF0010235D0A4
S315080006A05FEA837832D50B689B0605D40B6823F07E
S315080006B00A030B6080F821200168A94201D10222B1
S315080006C019E0514501D1202215E0B14202D14FF47B
S315080006D0007210E0B94202D14FF400520BE05945BE
S315080006E002D14FF4003206E0714502D14FF40012F0
S315080006F001E04FF00072124908394A6080F82090EC
S31508000700816A00291AD0BDE8F05F0847082505FA6E
S315080007100CF5254212D01B0710D50B6823F00E03E3
S315080007200B6090F84010C36B02FA01F159608263BE
S3150800073080F8212080F82090016BE2E7BDE8F09F61
S31508000740080002401C0002403000024044000240FB
S31508000750580002406C00024030B528B308C8134957
S3150800076014221944B1FBF2F18900C163104981636F
S31508000770022141771A6843F6F0718A43D0E90014DA
S315080007802143D0E902452C432143046921434469A6
S3150800079021438469214311431960002141630122E1
S315080007A042770177084630BD012030BDF8FFFDBF0E
S315080007B00000024070B5044690F820000025012884
S315080007C00CD0012084F8200094F821600020012E26
S315080007D006D084F820000225284670BD022070BD88
S315080007E0022684F82160A0632068066826F00106C0
S315080007F006602046FFF7F6FCE06A002820680168D4
S3150800080002D041F00E0106E021F0040101602068E3
S31508000810016841F00A0101602068016841F00101A0
S315080008200160D9E770B5044600F0AAF90546601CD0
S3150800083002D004480078044400F0A2F9401BA04204
S31508000840FAD370BD280000202DE9F0470546264852
S315080008500F460126017E01290FD001218146017626
S315080008602868DFF888804CF25034022808D0A2465F
S315080008702046FFF751FDA8B131E00220BDE8F08718
S315080008802046FFF749FD08BB0120FFF7C3FC2046B9
S31508000890FFF742FDD8F81010064621F00401C8F803
S315080008A010101CE04FF0FF303860AC6811E02046AD
S315080008B0FFF7C2FC5046FFF72FFDD8F810100600C8
S315080008C021F00201C8F8101001D03C6007E004F5D9
S315080008D08064D5E9020100EB8120A042E7D8002117
S315080008E089F818103046C9E7200800200020024081
S315080008F00348016941F0800101610020704700004A
S31508000900002002402DE9F05F07461C48884600246F
S31508000910017E15461E46012909D001218146017628
S315080009204CF2503A5046FFF7F7FC18B122E0022085
S31508000930BDE8F09F012F02D0022F00D00427D3462E
S31508000940DFF83CA0220128463146FFF7EBFB81B2CF
S3150800095008EB4400FFF782FC5846FFF7DDFCDAF89F
S31508000960102022F00102CAF8102018B9641CE4B25B
S31508000970BC42E7D3002289F81820D9E720080020CE
S3150800098000200240064900200A69120607D5054AD2
S315080009904A60054A4A600969090600D50120704778
S315080009A00020024023016745AB89EFCD2DE9F84FBA
S315080009B0DFF89C91002409F1040A0AF1040B234686
S315080009C00F270BF1040EBBE00125A5402A40AA42D9
S315080009D076D1DFF880C14E68A6EB0C0866452BD0A9
S315080009E00DDC032E34D005DC36B3012E19D0022EC9
S315080009F02FD11BE0112E16D0122E2AD119E0B8F5E8
S31508000A00881F19D006DCB8F5803F15D0B8F5801FC9
S31508000A101FD111E0B8F5001F0ED0B8F5041F18D184
S31508000A200AE0CB6815E0CB681B1D12E0CB680833DB
S31508000A300FE0CB680C330CE08B682BB1012B4FF021
S31508000A40080303D0456104E0042302E0056100E0E1
S31508000A500023FF2A01D8064601E000F104064FEA02
S31508000A60840501D9A5F12005D6F8008007FA05FC0A
S31508000A7028EA0C0803FA05F548EA0508C6F80080CE
S31508000A804D68ED005BD5344DAE6946F00106AE61A2
S31508000A90AD6924F0030605F0010500952F4D06EB18
S31508000AA0050CDCF80850A607360F07FA06F825EAFB
S31508000AB00805DFF8AC80404503D14FF0000810E088
S31508000AC03DE0DFF8A080404502D14FF0010808E07C
S31508000AD0DFF89480404502D14FF0020801E04FF05C
S31508000AE0030808FA06F848EA0508CCF808804D68AD
S31508000AF0D9F80060ED034D4601D5164300E096434C
S31508000B002E604D68DAF80060AD03554601D51643E8
S31508000B1000E096432E604D68DBF80060ED025D4606
S31508000B2001D5164300E096432E604D68DEF8006056
S31508000B30AD02754601D5164300E096432E60641C47
S31508000B400A6832FA04F57FF43FAFBDE8F88F000073
S31508000B50000401400000111000100240000001408E
S31508000B6000080140000C0140001001408068084060
S31508000B7000D0012070470AB1016170470904FBE7FC
S31508000B8001488068704700002800002002488168F4
S31508000B90027811448160704728000020074810B584
S31508000BA0016841F010010160032000F075F800208B
S31508000BB000F006F800F024F8002010BD00200240DE
S31508000BC070B50D4D04464FF47A712878B1FBF0F0F4
S31508000BD00A490968B1FBF0F000F0ECFA48B9102CA4
S31508000BE007D200222146501E00F036F800206C601D
S31508000BF070BD012070BD0000280000201C000020E8
S31508000C000C4808B5816941F001018161816901F0EB
S31508000C1001010091C16941F08051C161C06900F0CC
S31508000C20805000900448416821F0E06141F000716D
S31508000C30416008BD0010024000000140002809DBA1
S31508000C4000F01F02012191404009800000F1E020D8
S31508000C50C0F8001170470000F0B40E4B1B680C4634
S31508000C60C3F30223C3F10705042D00D90425191D72
S31508000C70072901D2002300E0DB1E012606FA05F14A
S31508000C80491E214099409E40761E16403143F0BCCD
S31508000C9001F0E6BA0CED00E0064900F00702086824
S31508000CA04FF6FF03184040EA0220034A1043086043
S31508000CB0704700000CED00E00000FA052DE9F0474A
S31508000CC00F46050061D0434E306800F00700B84271
S31508000CD009D2306820F0070038433060306800F0E9
S31508000CE00700B84251D128683B4C810712D5400706
S31508000CF003D5606840F4E06060602878000703D593
S31508000D00606840F4605060606068A96820F0F00090
S31508000D10084360602878C00728D06868012810D082
S31508000D202168022810D0890700292EDA616821F087
S31508000D30030101436160FFF723FF804641F28839CA
S31508000D400DE021688903EFE78901EDE7FFF718FF52
S31508000D50A0EB0801494502D90320BDE8F087606881
S31508000D60696800F00C00B0EB810FEFD1306800F035
S31508000D700700B8420BD9306820F0070038433060C6
S31508000D80306800F00700B84201D00120E5E728786E
S31508000D90400705D56068E96820F4E06008436060AC
S31508000DA02878000706D56068296920F4605040EA6B
S31508000DB0C100606000F038F86168084AC1F30311A1
S31508000DC0515CC8400649086006480068FFF7F8FE07
S31508000DD00020C2E70020024000100240AE2A0008A8
S31508000DE01C0000202C0000200448054900684968BA
S31508000DF0044AC1F30221515CC84070471C00002018
S31508000E0000100240BE2A00080448054900684968DF
S31508000E10044AC1F3C221515CC84070471C00002037
S31508000E2000100240BE2A000812A185B00FC98DE83D
S31508000E300F0014A0144A006804905168134801F082
S31508000E400C03042B10D0082B0ED1C1F38343C9031E
S31508000E501DF803000AD5516804AAC1F34041515C44
S31508000E600A4A5043B0FBF1F005B0704708494843B9
S31508000E70FAE7000002030405060708090A0B0C0D29
S31508000E800E0F1010010200000010024000127A0036
S31508000E9000093D002DE9F84F040070D02078C04DB8
S31508000EA0C00749D06868C0F38100012807D0686880
S31508000EB0C0F38100022809D16868C00306D52868EE
S31508000EC0800339D560680028E7D035E06068B0F55A
S31508000ED0803F0BD010B1B0F5A02F11D0286820F4B0
S31508000EE080302860286820F4802002E0286840F4D2
S31508000EF080302860606890B1FFF742FE06460AE037
S31508000F00286840F480202860F0E700BFFFF738FE25
S31508000F10801B642873D828688003F7D50CE0FFF790
S31508000F202FFE064605E000BFFFF72AFE801B642851
S31508000F30F0D828688003F7D420789A4E80074FF0B7
S31508000F4001094FF0000839D5686810F00C0F07D072
S31508000F506868C0F38100022809D16868C00306D40E
S31508000F602868800714D52069012808D110E020696F
S31508000F70B0B1C6F80090FFF703FE074605E00AE1A0
S31508000F80FFF7FEFDC01B0228C4D828688007F7D5DE
S31508000F902868616920F0F80040EAC10028600DE081
S31508000FA0C6F80080FFF7ECFD074604E0FFF7E8FD0A
S31508000FB0C01B022823D828688007F7D420780007A2
S31508000FC02CD57948A169D9B1C0F80090FFF7D8FDAA
S31508000FD0074604E0FFF7D4FDC01B02280FD8686A4D
S31508000FE08007F7D571484FF4FA510068B0FBF1F065
S31508000FF0009000BF0098411E0091FAD20EE080E0F2
S31508001000C0F80080FFF7BCFD074604E0FFF7B8FD0F
S31508001010C01B022875D8686A8007F7D4207840076D
S3150800102060D5E8690027C00008D4E86940F0805018
S31508001030E861E869012700F0805000905C48016883
S31508001040C90513D40168834641F480710160FFF72E
S3150800105097FD824606E000BFFFF792FDA0EB0A0067
S3150800106064284ED8DBF80000C005F5D5E0680128ED
S315080010700AD008B1052813D0286A20F00100286292
S31508001080286A20F0040002E0286A40F0010028627D
S31508001090E06841F2883B98B1FFF772FD82460BE0A3
S315080010A0286A40F004002862EEE700BFFFF768FDF3
S315080010B0A0EB0A0159455AD8286A8007F6D50CE0EC
S315080010C0FFF75EFD824605E0FFF75AFDA0EB0A0131
S315080010D059454CD8286A8007F6D41FB1E86920F02C
S315080010E08050E861E06988B36968C1F38101022923
S315080010F044D00228C6F8608004D0FFF741FD0446B4
S3150800110038E034E0FFF73CFD074604E0FFF738FD1A
S31508001110C01B02282BD828688001F7D4206AB0F5AE
S31508001120803F05D16868A16820F4003008436860EC
S31508001130D4E908010843696821F474110843686012
S31508001140C6F86090FFF71CFD044606E025E000BFE0
S31508001150FFF716FD001B022809D828688001F7D575
S315080011601BE000BFFFF70CFD001B022802D9032075
S31508001170BDE8F88F28688001F4D40EE00128F7D07E
S315080011806868226A00F48031914204D1616A00F4E9
S315080011907010884201D00120EAE70020E8E7000045
S315080011A00010024000004242800442421C00002017
S315080011B00070004010B5401EB0F1807F01D30120B9
S315080011C010BD4FF0E02460610F21601701F048F868
S315080011D00020A06107202061002010BD70477047DD
S315080011E070B590F83C20012A23D0012480F83C40B1
S315080011F0022280F83D2003685A689D6822F070062E
S315080012000A6832435A600C4B02689A4205D0B2F11A
S31508001210804F02D0094B9A4204D1496825F08003D1
S315080012201943916080F83D40002180F83C1008463B
S3150800123070BD022070BD0000002C01400004004073
S3150800124010B5040003D094F83D0010B107E0012062
S3150800125010BD002084F83C00204600F01FF802204C
S3150800126084F83D00211D206800F092FD012084F8D5
S31508001270460084F83E0084F83F0084F8400084F86D
S31508001280410084F8420084F8430084F8440084F856
S31508001290450084F83D00002010BD000008B5006830
S315080012A00B49884212D10B48C16941F00201C1615C
S315080012B0C069002200F00200009011461D20FFF7C9
S315080012C0CBFCBDE808401D20FFF7B8BC08BD0000F0
S315080012D0000400400010024090F83D10012901D09A
S315080012E001207047022180F83D100168CA6842F063
S315080012F00102CA6000680A49884205D0B0F1804FE9
S3150800130002D00849884204D1816801F007010629FC
S3150800131003D0016841F00101016000207047000018
S31508001320002C01400004004070B5044690F83C00CB
S31508001330012817D0012584F83C50022084F83D0086
S315080013402068826822F0770222F47F428260086869
S31508001350502830D00DDC20284DD005DC98B3102855
S315080013603BD148E0022070BD302844D0402834D113
S3150800137039E0602828D0702806D0B0F5805F2CD0D8
S31508001380B0F5005F29D10AE0CB68D1E901212068D0
S3150800139000F02CFD2068816841F0770109E0CB68F0
S315080013A0D1E90121206800F021FD2068816841F417
S315080013B08041816011E0CA684968206800F028FD0C
S315080013C05021206807E016E0CA684968206800F0DE
S315080013D030FD6021206800F013FD84F83D500020A0
S315080013E084F83C0070BDCA684968206800F010FDA2
S315080013F040212068EFE7226801461046EBE7704770
S3150800140070B50446006801694FF00005C9438907AD
S3150800141015D4C168C943890711D4E91E01610120A1
S315080014202077206880698007204602D0FFF7E7FF0B
S3150800143004E000F098F8204600F096F82577206832
S315080014400169C943490717D4C168C943490713D471
S315080014506FF004010161022020772068806910F48A
S31508001460407F204602D0FFF7CAFF04E000F07BF871
S31508001470204600F079F8257720680169C9430907ED
S3150800148016D4C168C943090712D46FF0080101616F
S31508001490042020772068C0698007204602D0FFF71D
S315080014A0AEFF04E000F05FF8204600F05DF825770F
S315080014B020680169C943C90617D4C168C943C90662
S315080014C013D46FF010010161082020772068C069E5
S315080014D010F4407F204602D0FFF791FF04E000F0A9
S315080014E042F8204600F040F8257720680169C9438C
S315080014F0C90708D1C168C943C90704D1891E016152
S31508001500204600F033F820680169C943090609D462
S31508001510C168C943090605D46FF0800101612046F8
S31508001520FFF75CFE20680169C943490609D4C1680A
S31508001530C943490605D46FF040010161204600F011
S315080015402DF820680169C94389060BD4C168C943C7
S31508001550890607D46FF0200101612046BDE8704076
S31508001560FFF73DBE70BD7047704700000949006827
S31508001570096888420DD108484168491C416041887C
S31508001580491C89B241800A2903D10021418001F012
S315080015906BB87047AC0400200C00002070477047F9
S315080015A010B504460068416994F83D20C1F3C0119E
S315080015B0212A0BD151B1416921F080014161606B4B
S315080015C008B1FEF7AFFF204600F0C4FC2068416969
S315080015D094F83E20C1F38011222A0BD151B14169FA
S315080015E021F040014161A06B08B1FEF79BFF204640
S315080015F000F098FC002010BD70470000F8B502689E
S3150800160004461068D168536910F00F0F4FF00005B3
S3150800161053D003F0010601F4907737435FD0C20731
S3150800162005D0CA0503D5226C42F00102226442079E
S3150800163005D5DA0703D0226C42F00202226482073B
S3150800164005D5DA0703D0226C42F0040222640207A9
S3150800165007D501F02002324303D0226C42F008027B
S315080016602264226C002A34D0800604D5880602D566
S31508001670204600F078FC20684069216CC0F3801091
S31508001680090700D430B3204600F04CFC20684169B5
S3150800169049061BD5416921F040014161A06BA8B1FB
S315080016A058494163A06BFEF761FF002811D0A06B73
S315080016B0416B01B0BDE8F040084783060FD58B069D
S315080016C00DD52046BDE8F84000F04DBC2046FFF792
S315080016D093FFF8BD2046FFF78FFF2564F8BD266BFC
S315080016E02023012E52D1C60650D5CE064ED51068F7
S315080016F050680090506940062AD5A16B0868406872
S315080017000004000CEAD0A68D8642E7D9E0858869F0
S31508001710202818D0D06820F48070D06020684169ED
S3150800172021F0010141612068416921F040014161D0
S3150800173084F83E3025632068C16821F01001C16035
S31508001740A06BFEF7EFFEA08DE18D401A81B219E07D
S31508001750A08DE18D401A81B2E08D0028BED0002907
S31508001760BCD0D06820F49070D0602068426922F01E
S315080017700102426184F83E3025632068C26822F07F
S315080017801002C2602046FFF70AFFF8BD05062BD5F2
S315080017900D0629D594F83D002128F6D1A068B0F5A4
S315080017A0805F01D12069B0B1206A411C216221689D
S315080017B000784860E08C401E0004000CE084E4D108
S315080017C02068C16821F08001C1602068C16841F0C5
S315080017D04001C160F8BD206A0088C0F30800506067
S315080017E0206A801C2062E5E74006F3D54806F1D555
S315080017F0D168204621F04001D16084F83D3000F0E0
S3150800180076F9F8BD571E000870B5040004D094F8A0
S315080018103D00002510B106E0012070BD84F83C505B
S31508001820204600F023F8242084F83D002068C1688B
S3150800183021F40051C160204600F0F0FB20680169E0
S3150800184021F4904101612068416921F02A01416132
S315080018502068C16841F40051C1602564202084F8DD
S315080018603D0084F83E00002070BD00002DE9F04FD1
S3150800187085B0002500950195029503950446DFF885
S3150800188074C103685C48022103225C4E80274FF02E
S3150800189020094FF0100B4FF4005A63454FD1836966
S315080018A043F480438361836903F480430493836923
S315080018B043F0040383618069039200F004000490F6
S315080018C00802CDE9000169463046FFF76FF8301582
S315080018D0CDE90005694630460295FFF767F8494E97
S315080018E04748B846C6E90005C6E90257C6F81CA027
S315080018F03561C6E9055957463046FEF72DFF08B14A
S31508001900FEF786FCA66374623E4E3D48443614389C
S31508001910C6E9025835617561C6E9000BC6E906577E
S315080019203046FEF719FF08B1FEF772FC666300221F
S31508001930114625207462FFF78FF9252054E0DFF859
S31508001940C8C0634552D1C36943F40033C361C36950
S3150800195003F400330493836943F0040383618069C5
S31508001960039200F0040004900420CDE900016946C2
S315080019703046FFF71BF80820CDE9000569463046D2
S315080019800295FFF713F81F4E1D4888361430C6E92E
S315080019900005C6E90257C6F81CA03561C6E905590F
S315080019A0B84657463046FEF7D7FE08B1FEF730FC74
S315080019B0A6637462134E1248CC362830C6E902581C
S315080019C035617561C6E9000BC6E906573046FEF76C
S315080019D0C3FE08B1FEF71CFC6663002211462620EA
S315080019E07462FFF739F92620FFF728F905B0BDE834
S315080019F0F08F000000380140001002400008014046
S31508001A00580002400C0700200044004090F83E3081
S31508001A10202B0ED159B152B190F83C30012B08D089
S31508001A20012380F83C300023036300F053BB0120F8
S31508001A307047022070477047704700002DE9F84349
S31508001A40044690F83D001F4616460D4620284CD100
S31508001A50C5B1BEB194F83C00012846D0012084F8EF
S31508001A603C004FF00008C4F84080212084F83D006F
S31508001A70FFF786F8A6848146E684A068B0F5805FFD
S31508001A8003D004E00120BDE8F883206928B12E467A
S31508001A905FF0000584F83C800EE00026FAE7802116
S31508001AA0204600F04FFBA0B9AEB116F8010B21682D
S31508001AB04860E08C401EE084E08C4B464FF0000204
S31508001AC000970028EBD14FF04001204600F03AFB82
S31508001AD030B10320D7E735F8020BC0F30800E6E774
S31508001AE0202084F83D000020CDE70220CBE7704790
S31508001AF0FEE70000154808B5416941F0010141615A
S31508001B004069002200F00100009011460E20FFF700
S31508001B10A3F80E20FFF792F8002211460F20FFF7D0
S31508001B209BF80F20FFF78AF8002211461020FFF7CE
S31508001B3093F81020FFF782F8002211461120FFF7CC
S31508001B408BF8BDE808401120FFF778B8001002406E
S31508001B502DE9F04385B000242A48009401940294A4
S31508001B600394816941F020018161816901F02001B6
S31508001B700491816941F004018161816901F00401E0
S31508001B800491816941F0080181618069DFF87880F4
S31508001B9000F008004FF418450490002229464046F4
S31508001BA0FEF7E9FFDFF864904FF47E7700223946A6
S31508001BB04846FEF7E0FFF020CDE9000469464046B6
S31508001BC00294FEF7F3FE4FF47C40CDE90004694623
S31508001BD048460294FEF7EAFE009503260125039679
S31508001BE0CDE9015469464046FEF7E0FE00970396A4
S31508001BF0CDE9015469464846FEF7D8FE05B0BDE86A
S31508001C00F08300000010024000080140000C01406B
S31508001C1010B586B0002417480094019402940394E2
S31508001C2004941349059401604721C0E9011440F260
S31508001C30E731C0E903148461FFF702FB08B1FEF738
S31508001C40E7FA4FF48050009069460A48FFF76CFBA4
S31508001C5008B1FEF7DDFA049404A906480594FFF7CF
S31508001C60BFFA002801D0FEF7D3FA06B010BD00006F
S31508001C7000040040AC04002010B5114C0F480C219C
S31508001C8020604FF4E13060600020A060E060C4E9A5
S31508001C900401A061E0612046FFF7B6FD08B1FEF732
S31508001CA0B7FA2068C16841F01001C160BDE810406C
S31508001CB0C82204490248FFF7A9BE000000380140BF
S31508001CC084060020F404002010B5114C0F480C219E
S31508001CD020604FF4E13060600020A060E060C4E955
S31508001CE00401A061E0612046FFF78EFD08B1FEF70A
S31508001CF08FFA2068C16841F01001C160BDE8104044
S31508001D00C82204490248FFF781BE0000004400408B
S31508001D10C8060020BC050020FEE7FEE770477047AE
S31508001D20FEF734BF30B58FB028216846FEF723FA90
S31508001D3014210AA8FEF71FFA01210804CDE90010AC
S31508001D400024029402250491CDE907504FF4E010CF
S31508001D5009906846FFF79EF808B172B6FEE70F20AD
S31508001D60CDE90A054FF48060CDE90C4002210AA8A6
S31508001D700E94FEF7A3FF002801D072B6FEE70FB057
S31508001D8030BD70470148FFF73BBB0000AC0400209C
S31508001D9070B50268134B144C4FF08046984203D036
S31508001DA0B04201D0A04203D122F070054A682A4306
S31508001DB0984203D0B04201D0A04203D122F4407425
S31508001DC0CA6822434C6922F08002224302608A686C
S31508001DD0C2620A688262984201D1096901630121D7
S31508001DE0416170BD002C01400004004010B58468B4
S31508001DF042EA032224F47F440A432243826010BD48
S31508001E00826822F070020A4342F007018160704737
S31508001E1010B5036A046A24F001040462846924F094
S31508001E20F00444EA021423F00A020A4384610262B7
S31508001E3010BD10B5036A23F0100303628369046AB0
S31508001E4023F4704343EA023224F0A00343EA011163
S31508001E508261016210BD10B5406A0021C185C18446
S31508001E60FFF7CAFB10BD70B5446A2068406994F84C
S31508001E703D10C0F3C0100025212904D118B1E5840E
S31508001E80204600F067F82068406994F83E10C0F3D1
S31508001E908010222904D118B1E585204600F042F8C1
S31508001EA0206C40F0100020642046FFF7A5FB70BDAB
S31508001EB010B50146406A0968096889061BD40021DD
S31508001EC0C1850168CA6822F48072CA6001684A69D5
S31508001ED022F001024A6101684A6922F040024A6119
S31508001EE0202180F83E10016B012904D10168CA68D7
S31508001EF022F01002CA60016B012902D0FFF79BFD90
S31508001F0010BD818DFFF74BFB10BD10B5406A016B04
S31508001F10012902D0FFF790FD10BD818D4908FFF712
S31508001F203EFB10BD0168CA6822F49072CA60016857
S31508001F304A6922F001024A61016B012904D101684C
S31508001F40CA6822F01002CA60202180F83E100021DB
S31508001F50016370470168CA6822F0C002CA6020217E
S31508001F6080F83D10704708B590F83E10222901D038
S31508001F70022008BD82684FF480539A4201D1016954
S31508001F8021B1816A9A421BD04AB10AE00268816A85
S31508001F905268C2F308020A80816A891C08E002694D
S31508001FA072B10268526802F07F020A70816A491C9F
S31508001FB08162C18D491E0904090CC18503D019E047
S31508001FC002685268F1E70168CA6822F02002CA600E
S31508001FD00168CA6822F48072CA6001684A6922F0F8
S31508001FE001024A61202180F83E10016B012903D0C5
S31508001FF0FFF721FD002008BD002101630168CA68BA
S3150800200022F01002CA6001680A68D20602D50A6878
S3150800201049680091818DFFF7C2FAEBE770B504466F
S3150800202000680169E26821F44051114301612169A0
S31508002030A0680843616908432168CA6841F20C63CD
S315080020409A430243CA6020684169A26921F4407133
S31508002050114341611E492068884202D1FEF7D4FE29
S3150800206001E0FEF7C1FE00EBC00101EB001260685B
S3150800207064218000B2FBF0F3B3FBF1F36FF01806AE
S315080020807343B2FBF0F5B2FBF0F605EB830532239A
S3150800209003EB0515B5FBF1F5B6FBF1F605F0F00512
S315080020A005EB0615B2FBF0F6B2FBF0F0B0FBF1F06B
S315080020B06FF01802504306EB800003EB0010B0FBEC
S315080020C0F1F0216800F00F002844886070BD000018
S315080020D00038014038B581628285002513460446DA
S315080020E00564222084F83E00A26B13489062A26B16
S315080020F01248D062A26B12481063A06B0A46456369
S315080021002168A06B091DFEF755FB20680168416828
S31508002110009184F83C50C16841F48071C160206820
S31508002120416941F0010141612068416941F040017E
S315080021304161002038BD0000B11E00080B1F0008D1
S31508002140671E00082DE9F041984617460E460446D4
S31508002150069D1DE0681C1BD02DB1FEF711FDA0EBF6
S315080021600800A84214D92068C16821F4D071C1605A
S315080021702068416921F001014161202084F83D0071
S3150800218084F83E00002084F83C000320BDE8F08176
S315080021902068006836EA000004D00020B842D9D08A
S315080021A00020F3E70120F9E710B5044800F014F819
S315080021B0BDE810400148FFF721BA00008406002058
S315080021C010B5044800F008F8BDE810400148FFF7CC
S315080021D015BA0000C806002038B501680446086824
S315080021E0C0F30010002820D00868486800900868E6
S315080021F048682046FFF7D4F90C4901208C4208D1DB
S315080022000B49096849680B4AC1F1C80111700A49A6
S315080022100AE00A498C4208D1094909684968094A05
S31508002220C1F1C80111700849087038BD840600203C
S315080022300C0700202000002022000020C8060020ED
S31508002240940700202100002023000020FEE700005C
S31508002250014A024900F023B8592400082400002046
S315080022600907090E002804DB00F1E02080F80014B5
S31508002270704700F00F0000F1E02080F8141D704749
S3150800228002E008C8121F08C1002AFAD17047704731
S31508002290002001E001C1121F002AFBD170472DE979
S315080022A0F04116460F460446002503E03946B04776
S315080022B0641C6D1C20780028F8D12846BDE8F081FA
S315080022C013B5164B9DF80410154C0A46491E0128ED
S315080022D002D0022803D014E0042914D911E00429F5
S315080022E00DD2012201A91846FEF740F861689DF84B
S315080022F0040048700B490120087007201CBD052AF8
S3150800230001D002201CBD012201A91846FEF72EF8AD
S3150800231061689DF80400487000201CBD007C000818
S31508002320000000200800002070B581790022CB1D2E
S3150800233001E0521C92B29342FBD84279012A0FD08F
S31508002340022A0DD0037903F00F05154B1C68237874
S315080023509D4203D1C3786478A34207D2092070BD91
S31508002360C179BDE870401046FFF7AABF052B01D911
S31508002370032070BDA34201D9082070BD402A04D0AD
S31508002380552A0AD0AA2A03D107E0C01D00F088FB07
S3150800239004A0FFF75DFF022070BD002070BD00009D
S315080023A004000020E697A0E69588E591BDE4BBA465
S315080023B00D0A000010B524489EB00178022940D1C4
S315080023C0224A0021017050684178214800688170CE
S315080023D00121C1705268127801EB021202718171F3
S315080023E00221C171AA21417126221A490DA8FDF7B9
S315080023F0A9FE184CE08CADF85A00A06A1790A08D7B
S31508002400ADF86000E08DADF86200206B19900922E6
S3150800241004F134011AA8FDF795FE94F83D008DF8ED
S31508002420710094F83E008DF87200206C1D903422DD
S3150800243011A96846FDF786FE0DAC94E80F0000F07A
S31508002440F3FA1EB010BD00000800002000000020AE
S31508002450180000208406002013B54FF47A73012271
S3150800246069460248FFF7EAFA01201CBDC8060020A3
S3150800247010B5002821D0114B0022001F196803E06F
S31508002480814203D80A4649680029F9D152B113682E
S31508002490841A9C4204D1006818441060104602E071
S315080024A0506000E0186039B102680B1A934203D1F4
S315080024B00B681A4402604968416010BD3400002068
S315080024C001484068704700000C000020F8B501225A
S315080024D069462948FDF7D0FE2C2000F023F9274D40
S315080024E0002426466860022000F01CF9696801EBA2
S315080024F0840148604670686800EB8400641C406884
S31508002500E4B20A2C0670EED36868032101709DF8C0
S31508002510001041700521817019480A2140F80A6F98
S315080025204660068116481430FDF725FE14481549FD
S315080025302030016041608160C160016141611249DA
S315080025408161C1610162416228304FF40041016036
S3150800255049104160491081604910C1604910016104
S3150800256049104161802181614021C16120210162B8
S3150800257010214162F8BD0000007C00080000002020
S315080025803C000020000C014000080140F0B5324A2A
S3150800259032499FB0506843780868837052680123AF
S315080025A0127803EB021202714122427100228271F3
S315080025B010462B4A02F10A06135C345CA34213D078
S315080025C00B6800F1010CDC1D9F797D1C9D7107F8D5
S315080025D004C00B6812F800C0DC1D9F797D1C9D7134
S315080025E007F804C0135C3354401CC0B20A28E3D36E
S315080025F00868807900282CD026221A490DA8FDF7EC
S31508002600A1FD184CE08CADF85A00A06A1790A08D71
S31508002610ADF86000E08DADF86200206B19900922D4
S3150800262004F134011AA8FDF78DFD94F83D008DF8E4
S31508002630710094F83E008DF87200206C1D903422CB
S3150800264011A96846FDF77EFD0DAC94E80F0000F071
S31508002650EBF91FB0F0BD00000000002018000020B4
S3150800266046000020840600202DE9F041104D002484
S31508002670A5F12806A5F1480735F8240081B256F8D1
S315080026802400FEF773FA395D884202D108483E38BD
S31508002690015535F8240081B256F82400FEF766FA8B
S315080026A03855641CE4B20A2CE6D3BDE8F081000074
S315080026B084000020FEF772FAFFF734FBFFF748FAAA
S315080026C0FFF718FAFFF7D8FAFFF7FEFAFFF7A0FAAE
S315080026D00FA0FFF7BDFD6420FEF7A4F80E48FEF72D
S315080026E0FBFD01220D490E48FDF740FE00F050F8AB
S315080026F0FFF7ECFEFFF74AFFFDF7CEFE012801D1F2
S3150800270000F05AF8FFF756FE00F026F9F2E7000047
S3150800271073746172740D0A00AC0400200C0000206A
S31508002720007C0008F0B50B30154D20F00701002499
S31508002730144A0FE003688B420BD38B4205D95E1A05
S3150800274043184768C3E9006700E04368136002C09E
S3150800275004E0021D10680028ECD12046002802D1AA
S31508002760286808B10020F0BD064A07481060074AE5
S31508002770121A22F00702C0E9002401202860D7E7D0
S3150800278038000020340000204408002040170020AC
S3150800279070B540F209152846FFF7C4FF054C60607E
S315080027A02846FFF7BFFF20606068592101704B215A
S315080027B0417070BD14000020F0B59FB040F20910BA
S315080027C0FFF7B0FF604C054621688A79D21DFDF7F0
S315080027D0B9FC216891F8070185F8070191F8080105
S315080027E085F808012846FFF79FFD02215523012297
S315080027F008282ED2DFE800F0040B11181E2D2D250F
S3150800280061688A716B79CB71AA234B7127E0666878
S31508002810B1716979F171327204E06668B1716F79E4
S31508002820F7710CE073711AE06668B1716979F17134
S31508002830032104E06668B1716979F1710421317286
S31508002840F0E761688A71EA79521CCA716A794A7135
S3150800285012E0082810D009280ED007280CD03B4BC8
S3150800286019684E7861688E70AC78CC701B681B78D6
S3150800287002EB03120A7117E06168AA7807288A70C2
S31508002880EA78CA702A790A716A794A71AA798A71C4
S3150800289011D0002205E0AB188C18DB79521CE371C5
S315080028A0D2B2AB799342F6D8082804D0072802D0CA
S315080028B0092816D042E0262225490DA8FDF742FC34
S315080028C0234CE08CADF85A00A06A1790A08DADF89D
S315080028D06000E08DADF86200206B19900922214650
S315080028E014E026221B490DA8FDF72CFC194CE08C98
S315080028F0ADF85A00A06A1790A08DADF86000E08D7B
S31508002900ADF86200206B1990092221461AA83431C5
S31508002910FDF718FC94F83D008DF8710094F83E0018
S315080029208DF87200206C1D90342211A96846FDF7B7
S3150800293009FC0DAC94E80F0000F076F82846FFF77E
S3150800294097FD1FB00020F0BD1400002004000020F1
S31508002950C80600208406002070B59EB0FFF7B0FDBB
S315080029600622B0FBF2F12D4C02FB110523784FF03D
S3150800297001011D4300D16170B0FBF2F502FB15059C
S31508002980002615B9012B00D126706378012B42D198
S31508002990B0FBF2F302FB13006268527890423AD118
S315080029A01F4800688270C1706268127801EB0211D4
S315080029B0017103214171867126221A490DA8FDF776
S315080029C0C1FB184DE88CADF85A00A86A1790A88D77
S315080029D0ADF86000E88DADF86200286B1990092201
S315080029E005F134011AA8FDF7ADFB95F83D008DF801
S315080029F0710095F83E008DF87200286C1D903422FF
S31508002A0011A96846FDF79EFB0DAD95E80F0000F08D
S31508002A100BF8667026701EB070BD0000000000201E
S31508002A2018000020840600200FB41C4870B54168C1
S31508002A30592400220C704B244C708D791346144689
S31508002A40ED1D06E00E5D641C3244D2B21344DBB2BF
S31508002A50A4B2A542F6D8114C8D796468E41DFF2D01
S31508002A6006D22A5541688A7901F10801535409E0CA
S31508002A7004D12A55416881F8073103E081F8072116
S31508002A8081F8083141684FF0100304A88A7902F1E9
S31508002A900902FEF7D3FF70BC5DF814FB1400002092
S31508002AA0022001E0401CC0B28842FBD370470000F8
S31508002AB000000000000001020304060708090000E0
S31508002AC00000010203040000E82A000800000020B4
S31508002AD03C00000080220008242B00083C0000204F
S31508002AE004260000902200080000000000000000F4
S31508002AF000000000010100000000000000000000C6
S31508002B00000000000024F40000000000000000009F
S31508002B100100000010000000000000000000000096
S30908002B2000000000A3
S705080000ED05
