Component: ARM Compiler 5.06 update 7 (build 960) Tool: armlink [4d3601]

==============================================================================

Section Cross References

    dma.o(i.MX_DMA_Init) refers to stm32f1xx_hal_cortex.o(i.HAL_NVIC_SetPriority) for HAL_NVIC_SetPriority
    dma.o(i.MX_DMA_Init) refers to stm32f1xx_hal_cortex.o(i.HAL_NVIC_EnableIRQ) for HAL_NVIC_EnableIRQ
    drive.o(i.change_ID) refers to flash.o(i.FLASH_Write) for FLASH_Write
    drive.o(i.change_ID) refers to printf5.o(i.__0printf$5) for __2printf
    drive.o(i.change_ID) refers to drive.o(.data) for drive_myself
    drive.o(i.change_ID) refers to main.o(.data) for wait_init_time_flag
    drive.o(i.check_drive) refers to memcpya.o(.text) for __aeabi_memcpy4
    drive.o(i.check_drive) refers to message.o(i.send_message) for send_message
    drive.o(i.check_drive) refers to printf5.o(i.__0printf$5) for __2printf
    drive.o(i.check_drive) refers to main.o(.data) for wait_init_time_flag
    drive.o(i.check_drive) refers to drive.o(.data) for drive_myself
    drive.o(i.check_drive) refers to message.o(.data) for send_fram
    drive.o(i.check_drive) refers to usart.o(.bss) for huart1
    drive.o(i.init_myself) refers to flash.o(i.FLASH_Read) for FLASH_Read
    drive.o(i.init_myself) refers to malloc.o(i.malloc) for malloc
    drive.o(i.init_myself) refers to drive.o(.data) for drive_myself
    drive.o(i.key_drive_oper) refers to drive.o(i.key_led_Toggle) for key_led_Toggle
    drive.o(i.key_drive_oper) refers to memcpya.o(.text) for __aeabi_memcpy4
==============================================================================

Removing Unused input sections from the image.

    Removing dma.o(.rev16_text), (4 bytes).
    Removing dma.o(.revsh_text), (4 bytes).
    Removing dma.o(.rrx_text), (6 bytes).
    Removing drive.o(.rev16_text), (4 bytes).
    Removing drive.o(.revsh_text), (4 bytes).
    Removing drive.o(.rrx_text), (6 bytes).
    Removing flash.o(.rev16_text), (4 bytes).
    Removing flash.o(.revsh_text), (4 bytes).
    Removing flash.o(.rrx_text), (6 bytes).
    Removing flash.o(i.FLASH_ErasePage), (44 bytes).
    Removing flash.o(i.FLASH_Init), (28 bytes).
    Removing flash.o(i.FLASH_Read_Byte), (22 bytes).
    Removing flash.o(i.FLASH_Write_Byte), (120 bytes).
    Removing gpio.o(.rev16_text), (4 bytes).
    Removing gpio.o(.revsh_text), (4 bytes).
    Removing gpio.o(.rrx_text), (6 bytes).
    Removing main.o(.rev16_text), (4 bytes).
    Removing main.o(.revsh_text), (4 bytes).
==============================================================================

Image Symbol Table

    Local Symbols

    Symbol Name                              Value     Ov Type        Size  Object(Section)

    ../clib/microlib/division.c              0x00000000   Number         0  uldiv.o ABSOLUTE
    ../clib/microlib/division.c              0x00000000   Number         0  uidiv.o ABSOLUTE
    ../clib/microlib/init/entry.s            0x00000000   Number         0  entry7b.o ABSOLUTE
    ../clib/microlib/init/entry.s            0x00000000   Number         0  entry10b.o ABSOLUTE
    ../clib/microlib/init/entry.s            0x00000000   Number         0  entry10a.o ABSOLUTE
    ../clib/microlib/init/entry.s            0x00000000   Number         0  entry12b.o ABSOLUTE
    ../clib/microlib/init/entry.s            0x00000000   Number         0  entry.o ABSOLUTE
    ../clib/microlib/init/entry.s            0x00000000   Number         0  entry9b.o ABSOLUTE
    ../clib/microlib/init/entry.s            0x00000000   Number         0  entry8b.o ABSOLUTE
    ../clib/microlib/init/entry.s            0x00000000   Number         0  entry9a.o ABSOLUTE
    ../clib/microlib/init/entry.s            0x00000000   Number         0  entry8a.o ABSOLUTE
    ../clib/microlib/init/entry.s            0x00000000   Number         0  entry7a.o ABSOLUTE
    ../clib/microlib/init/entry.s            0x00000000   Number         0  entry5.o ABSOLUTE
    ../clib/microlib/init/entry.s            0x00000000   Number         0  entry12a.o ABSOLUTE
    ../clib/microlib/init/entry.s            0x00000000   Number         0  entry11b.o ABSOLUTE
    ../clib/microlib/init/entry.s            0x00000000   Number         0  entry2.o ABSOLUTE
    ../clib/microlib/init/entry.s            0x00000000   Number         0  entry11a.o ABSOLUTE
    ../clib/microlib/longlong.c              0x00000000   Number         0  llushr.o ABSOLUTE
    ../clib/microlib/longlong.c              0x00000000   Number         0  llshl.o ABSOLUTE
    ../clib/microlib/longlong.c              0x00000000   Number         0  llsshr.o ABSOLUTE
    ../clib/microlib/malloc/malloc.c         0x00000000   Number         0  malloc.o ABSOLUTE
    ../clib/microlib/malloc/malloc.c         0x00000000   Number         0  malloca.o ABSOLUTE
    ../clib/microlib/malloc/malloc.c         0x00000000   Number         0  mallocra.o ABSOLUTE
    ../clib/microlib/malloc/malloc.c         0x00000000   Number         0  mallocr.o ABSOLUTE
    ../clib/microlib/malloc/mvars.c          0x00000000   Number         0  mvars.o ABSOLUTE
    ../clib/microlib/printf/printf.c         0x00000000   Number         0  printf1.o ABSOLUTE
    ../clib/microlib/printf/printf.c         0x00000000   Number         0  printf5.o ABSOLUTE
    ../clib/microlib/printf/printf.c         0x00000000   Number         0  printf4.o ABSOLUTE
    ../clib/microlib/printf/printf.c         0x00000000   Number         0  printfb.o ABSOLUTE
    ../clib/microlib/printf/printf.c         0x00000000   Number         0  printf3.o ABSOLUTE
    ../clib/microlib/printf/printf.c         0x00000000   Number         0  printf2.o ABSOLUTE
    ../clib/microlib/printf/printf.c         0x00000000   Number         0  printf8.o ABSOLUTE
    ../clib/microlib/printf/printf.c         0x00000000   Number         0  printfa.o ABSOLUTE
    ../clib/microlib/printf/printf.c         0x00000000   Number         0  printf0.o ABSOLUTE
    ../clib/microlib/printf/printf.c         0x00000000   Number         0  printf7.o ABSOLUTE
    ../clib/microlib/printf/printf.c         0x00000000   Number         0  printf6.o ABSOLUTE
    ../clib/microlib/printf/stubs.s          0x00000000   Number         0  stubs.o ABSOLUTE
    ../clib/microlib/string/memcpy.c         0x00000000   Number         0  memcpyb.o ABSOLUTE
    ../clib/microlib/string/memcpy.c         0x00000000   Number         0  memcpya.o ABSOLUTE
    ../clib/microlib/string/memset.c         0x00000000   Number         0  memseta.o ABSOLUTE
    ../clib/microlib/stubs.s                 0x00000000   Number         0  iusefp.o ABSOLUTE
    ../fplib/microlib/fpadd.c                0x00000000   Number         0  dadd.o ABSOLUTE
    ../fplib/microlib/fpdiv.c                0x00000000   Number         0  ddiv.o ABSOLUTE
    ../fplib/microlib/fpepilogue.c           0x00000000   Number         0  depilogue.o ABSOLUTE
    ../fplib/microlib/fpfix.c                0x00000000   Number         0  dfixul.o ABSOLUTE
    ../fplib/microlib/fpmul.c                0x00000000   Number         0  dmul.o ABSOLUTE
    .\startup_stm32f103x6.s                  0x00000000   Number         0  startup_stm32f103x6.o ABSOLUTE
    cdrcmple.s                               0x00000000   Number         0  cdrcmple.o ABSOLUTE
    d:\Work\1.5w\program\KEY\Core\Src\dma.c  0x00000000   Number         0  dma.o ABSOLUTE
    d:\Work\1.5w\program\KEY\Core\Src\drive.c 0x00000000   Number         0  drive.o ABSOLUTE
    d:\Work\1.5w\program\KEY\Core\Src\flash.c 0x00000000   Number         0  flash.o ABSOLUTE
    d:\Work\1.5w\program\KEY\Core\Src\gpio.c 0x00000000   Number         0  gpio.o ABSOLUTE
    d:\Work\1.5w\program\KEY\Core\Src\main.c 0x00000000   Number         0  main.o ABSOLUTE
    d:\Work\1.5w\program\KEY\Core\Src\message.c 0x00000000   Number         0  message.o ABSOLUTE
    d:\Work\1.5w\program\KEY\Core\Src\stm32f1xx_hal_msp.c 0x00000000   Number         0  stm32f1xx_hal_msp.o ABSOLUTE
    d:\Work\1.5w\program\KEY\Core\Src\stm32f1xx_it.c 0x00000000   Number         0  stm32f1xx_it.o ABSOLUTE
    d:\Work\1.5w\program\KEY\Core\Src\system_stm32f1xx.c 0x00000000   Number         0  system_stm32f1xx.o ABSOLUTE
    d:\Work\1.5w\program\KEY\Core\Src\tim.c  0x00000000   Number         0  tim.o ABSOLUTE
    d:\Work\1.5w\program\KEY\Core\Src\usart.c 0x00000000   Number         0  usart.o ABSOLUTE
    d:\Work\1.5w\program\KEY\Drivers\STM32F1xx_HAL_Driver\Src\stm32f1xx_hal.c 0x00000000   Number         0  stm32f1xx_hal.o ABSOLUTE
    d:\Work\1.5w\program\KEY\Drivers\STM32F1xx_HAL_Driver\Src\stm32f1xx_hal_cortex.c 0x00000000   Number         0  stm32f1xx_hal_cortex.o ABSOLUTE
    d:\Work\1.5w\program\KEY\Drivers\STM32F1xx_HAL_Driver\Src\stm32f1xx_hal_dma.c 0x00000000   Number         0  stm32f1xx_hal_dma.o ABSOLUTE
    d:\Work\1.5w\program\KEY\Drivers\STM32F1xx_HAL_Driver\Src\stm32f1xx_hal_exti.c 0x00000000   Number         0  stm32f1xx_hal_exti.o ABSOLUTE
    d:\Work\1.5w\program\KEY\Drivers\STM32F1xx_HAL_Driver\Src\stm32f1xx_hal_flash.c 0x00000000   Number         0  stm32f1xx_hal_flash.o ABSOLUTE
    d:\Work\1.5w\program\KEY\Drivers\STM32F1xx_HAL_Driver\Src\stm32f1xx_hal_flash_ex.c 0x00000000   Number         0  stm32f1xx_hal_flash_ex.o ABSOLUTE
    d:\Work\1.5w\program\KEY\Drivers\STM32F1xx_HAL_Driver\Src\stm32f1xx_hal_gpio.c 0x00000000   Number         0  stm32f1xx_hal_gpio.o ABSOLUTE
    d:\Work\1.5w\program\KEY\Drivers\STM32F1xx_HAL_Driver\Src\stm32f1xx_hal_gpio_ex.c 0x00000000   Number         0  stm32f1xx_hal_gpio_ex.o ABSOLUTE
    d:\Work\1.5w\program\KEY\Drivers\STM32F1xx_HAL_Driver\Src\stm32f1xx_hal_pwr.c 0x00000000   Number         0  stm32f1xx_hal_pwr.o ABSOLUTE
    d:\Work\1.5w\program\KEY\Drivers\STM32F1xx_HAL_Driver\Src\stm32f1xx_hal_rcc.c 0x00000000   Number         0  stm32f1xx_hal_rcc.o ABSOLUTE
    d:\Work\1.5w\program\KEY\Drivers\STM32F1xx_HAL_Driver\Src\stm32f1xx_hal_rcc_ex.c 0x00000000   Number         0  stm32f1xx_hal_rcc_ex.o ABSOLUTE
    d:\Work\1.5w\program\KEY\Drivers\STM32F1xx_HAL_Driver\Src\stm32f1xx_hal_tim.c 0x00000000   Number         0  stm32f1xx_hal_tim.o ABSOLUTE
    d:\Work\1.5w\program\KEY\Drivers\STM32F1xx_HAL_Driver\Src\stm32f1xx_hal_tim_ex.c 0x00000000   Number         0  stm32f1xx_hal_tim_ex.o ABSOLUTE
    d:\Work\1.5w\program\KEY\Drivers\STM32F1xx_HAL_Driver\Src\stm32f1xx_hal_uart.c 0x00000000   Number         0  stm32f1xx_hal_uart.o ABSOLUTE
    d:\\Work\\1.5w\\program\\KEY\\Core\\Src\\dma.c 0x00000000   Number         0  dma.o ABSOLUTE
    d:\\Work\\1.5w\\program\\KEY\\Core\\Src\\drive.c 0x00000000   Number         0  drive.o ABSOLUTE
    d:\\Work\\1.5w\\program\\KEY\\Core\\Src\\flash.c 0x00000000   Number         0  flash.o ABSOLUTE
    d:\\Work\\1.5w\\program\\KEY\\Core\\Src\\gpio.c 0x00000000   Number         0  gpio.o ABSOLUTE
    d:\\Work\\1.5w\\program\\KEY\\Core\\Src\\main.c 0x00000000   Number         0  main.o ABSOLUTE
    d:\\Work\\1.5w\\program\\KEY\\Core\\Src\\message.c 0x00000000   Number         0  message.o ABSOLUTE
    d:\\Work\\1.5w\\program\\KEY\\Core\\Src\\stm32f1xx_hal_msp.c 0x00000000   Number         0  stm32f1xx_hal_msp.o ABSOLUTE
    d:\\Work\\1.5w\\program\\KEY\\Core\\Src\\stm32f1xx_it.c 0x00000000   Number         0  stm32f1xx_it.o ABSOLUTE
    d:\\Work\\1.5w\\program\\KEY\\Core\\Src\\system_stm32f1xx.c 0x00000000   Number         0  system_stm32f1xx.o ABSOLUTE
    d:\\Work\\1.5w\\program\\KEY\\Core\\Src\\tim.c 0x00000000   Number         0  tim.o ABSOLUTE
    d:\\Work\\1.5w\\program\\KEY\\Core\\Src\\usart.c 0x00000000   Number         0  usart.o ABSOLUTE
    d:\\Work\\1.5w\\program\\KEY\\Drivers\\STM32F1xx_HAL_Driver\\Src\\stm32f1xx_hal.c 0x00000000   Number         0  stm32f1xx_hal.o ABSOLUTE
    d:\\Work\\1.5w\\program\\KEY\\Drivers\\STM32F1xx_HAL_Driver\\Src\\stm32f1xx_hal_cortex.c 0x00000000   Number         0  stm32f1xx_hal_cortex.o ABSOLUTE
    d:\\Work\\1.5w\\program\\KEY\\Drivers\\STM32F1xx_HAL_Driver\\Src\\stm32f1xx_hal_dma.c 0x00000000   Number         0  stm32f1xx_hal_dma.o ABSOLUTE
    d:\\Work\\1.5w\\program\\KEY\\Drivers\\STM32F1xx_HAL_Driver\\Src\\stm32f1xx_hal_exti.c 0x00000000   Number         0  stm32f1xx_hal_exti.o ABSOLUTE
    d:\\Work\\1.5w\\program\\KEY\\Drivers\\STM32F1xx_HAL_Driver\\Src\\stm32f1xx_hal_flash.c 0x00000000   Number         0  stm32f1xx_hal_flash.o ABSOLUTE
    d:\\Work\\1.5w\\program\\KEY\\Drivers\\STM32F1xx_HAL_Driver\\Src\\stm32f1xx_hal_flash_ex.c 0x00000000   Number         0  stm32f1xx_hal_flash_ex.o ABSOLUTE
    d:\\Work\\1.5w\\program\\KEY\\Drivers\\STM32F1xx_HAL_Driver\\Src\\stm32f1xx_hal_gpio.c 0x00000000   Number         0  stm32f1xx_hal_gpio.o ABSOLUTE
    d:\\Work\\1.5w\\program\\KEY\\Drivers\\STM32F1xx_HAL_Driver\\Src\\stm32f1xx_hal_gpio_ex.c 0x00000000   Number         0  stm32f1xx_hal_gpio_ex.o ABSOLUTE
    d:\\Work\\1.5w\\program\\KEY\\Drivers\\STM32F1xx_HAL_Driver\\Src\\stm32f1xx_hal_pwr.c 0x00000000   Number         0  stm32f1xx_hal_pwr.o ABSOLUTE
    d:\\Work\\1.5w\\program\\KEY\\Drivers\\STM32F1xx_HAL_Driver\\Src\\stm32f1xx_hal_rcc.c 0x00000000   Number         0  stm32f1xx_hal_rcc.o ABSOLUTE
    d:\\Work\\1.5w\\program\\KEY\\Drivers\\STM32F1xx_HAL_Driver\\Src\\stm32f1xx_hal_rcc_ex.c 0x00000000   Number         0  stm32f1xx_hal_rcc_ex.o ABSOLUTE
    d:\\Work\\1.5w\\program\\KEY\\Drivers\\STM32F1xx_HAL_Driver\\Src\\stm32f1xx_hal_tim.c 0x00000000   Number         0  stm32f1xx_hal_tim.o ABSOLUTE
    d:\\Work\\1.5w\\program\\KEY\\Drivers\\STM32F1xx_HAL_Driver\\Src\\stm32f1xx_hal_tim_ex.c 0x00000000   Number         0  stm32f1xx_hal_tim_ex.o ABSOLUTE
    d:\\Work\\1.5w\\program\\KEY\\Drivers\\STM32F1xx_HAL_Driver\\Src\\stm32f1xx_hal_uart.c 0x00000000   Number         0  stm32f1xx_hal_uart.o ABSOLUTE
    dc.s                                     0x00000000   Number         0  dc.o ABSOLUTE
    handlers.s                               0x00000000   Number         0  handlers.o ABSOLUTE
    init.s                                   0x00000000   Number         0  init.o ABSOLUTE
    RESET                                    0x08000000   Section      236  startup_stm32f103x6.o(RESET)
    .ARM.Collect$$$$00000000                 0x080000ec   Section        0  entry.o(.ARM.Collect$$$$00000000)
    .ARM.Collect$$$$00000001                 0x080000ec   Section        4  entry2.o(.ARM.Collect$$$$00000001)
    .ARM.Collect$$$$00000004                 0x080000f0   Section        4  entry5.o(.ARM.Collect$$$$00000004)
    .ARM.Collect$$$$00000008                 0x080000f4   Section        0  entry7b.o(.ARM.Collect$$$$00000008)
    .ARM.Collect$$$$0000000A                 0x080000f4   Section        0  entry8b.o(.ARM.Collect$$$$0000000A)
    .ARM.Collect$$$$0000000B                 0x080000f4   Section        8  entry9a.o(.ARM.Collect$$$$0000000B)
    .ARM.Collect$$$$0000000E                 0x080000fc   Section        4  entry12b.o(.ARM.Collect$$$$0000000E)
    .ARM.Collect$$$$0000000F                 0x08000100   Section        0  entry10a.o(.ARM.Collect$$$$0000000F)
    .ARM.Collect$$$$00000011                 0x08000100   Section        0  entry11a.o(.ARM.Collect$$$$00000011)
    .ARM.Collect$$$$00002712                 0x08000100   Section        4  entry2.o(.ARM.Collect$$$$00002712)
    __lit__00000000                          0x08000100   Data           4  entry2.o(.ARM.Collect$$$$00002712)
    .text                                    0x08000104   Section       36  startup_stm32f103x6.o(.text)
    .text                                    0x08000128   Section        0  llushr.o(.text)
    .text                                    0x08000148   Section        0  memcpya.o(.text)
    .text                                    0x0800016c   Section        0  memseta.o(.text)
    .text                                    0x08000190   Section        0  uldiv.o(.text)
    .text                                    0x080001f4   Section       36  init.o(.text)
    .text                                    0x08000218   Section        0  llshl.o(.text)
    i.BusFault_Handler                       0x08000236   Section        0  stm32f1xx_it.o(i.BusFault_Handler)
    i.DMA1_Channel4_IRQHandler               0x0800023c   Section        0  stm32f1xx_it.o(i.DMA1_Channel4_IRQHandler)
    i.DMA1_Channel5_IRQHandler               0x0800024c   Section        0  stm32f1xx_it.o(i.DMA1_Channel5_IRQHandler)
    i.DMA1_Channel6_IRQHandler               0x0800025c   Section        0  stm32f1xx_it.o(i.DMA1_Channel6_IRQHandler)
    i.DMA1_Channel7_IRQHandler               0x0800026c   Section        0  stm32f1xx_it.o(i.DMA1_Channel7_IRQHandler)
    i.DebugMon_Handler                       0x0800027c   Section        0  stm32f1xx_it.o(i.DebugMon_Handler)
    i.Error_Handler                          0x0800027e   Section        0  main.o(i.Error_Handler)
    i.FLASH_MassErase                        0x08000284   Section        0  stm32f1xx_hal_flash_ex.o(i.FLASH_MassErase)
    FLASH_MassErase                          0x08000285   Thumb Code    30  stm32f1xx_hal_flash_ex.o(i.FLASH_MassErase)
    i.FLASH_PageErase                        0x080002ac   Section        0  stm32f1xx_hal_flash_ex.o(i.FLASH_PageErase)
    i.FLASH_Program_HalfWord                 0x080002d4   Section        0  stm32f1xx_hal_flash.o(i.FLASH_Program_HalfWord)
    FLASH_Program_HalfWord                   0x080002d5   Thumb Code    22  stm32f1xx_hal_flash.o(i.FLASH_Program_HalfWord)
    i.FLASH_Read                             0x080002f4   Section        0  flash.o(i.FLASH_Read)
    i.FLASH_SetErrorCode                     0x08000348   Section        0  stm32f1xx_hal_flash.o(i.FLASH_SetErrorCode)
    FLASH_SetErrorCode                       0x08000349   Thumb Code   124  stm32f1xx_hal_flash.o(i.FLASH_SetErrorCode)
    i.FLASH_WaitForLastOperation             0x080003cc   Section        0  stm32f1xx_hal_flash.o(i.FLASH_WaitForLastOperation)
    i.FLASH_Write                            0x0800043c   Section        0  flash.o(i.FLASH_Write)
    i.FLASH_WriteNotCheck                    0x08000588   Section        0  flash.o(i.FLASH_WriteNotCheck)
    i.Get_Data_Fram                          0x080005d0   Section        0  message.o(i.Get_Data_Fram)
    i.HAL_DMA_Abort                          0x08000704   Section        0  stm32f1xx_hal_dma.o(i.HAL_DMA_Abort)
    i.HAL_DMA_Abort_IT                       0x0800075c   Section        0  stm32f1xx_hal_dma.o(i.HAL_DMA_Abort_IT)
    i.HAL_DMA_IRQHandler                     0x0800080c   Section        0  stm32f1xx_hal_dma.o(i.HAL_DMA_IRQHandler)
    i.HAL_DMA_Init                           0x080009a8   Section        0  stm32f1xx_hal_dma.o(i.HAL_DMA_Init)
    i.HAL_Delay                              0x08000a10   Section        0  stm32f1xx_hal.o(i.HAL_Delay)
    i.HAL_FLASHEx_Erase                      0x08000a38   Section        0  stm32f1xx_hal_flash_ex.o(i.HAL_FLASHEx_Erase)
    i.HAL_FLASH_Lock                         0x08000ae8   Section        0  stm32f1xx_hal_flash.o(i.HAL_FLASH_Lock)
    i.HAL_FLASH_Program                      0x08000afc   Section        0  stm32f1xx_hal_flash.o(i.HAL_FLASH_Program)
    i.HAL_FLASH_Unlock                       0x08000bac   Section        0  stm32f1xx_hal_flash.o(i.HAL_FLASH_Unlock)
    i.HAL_GPIO_Init                          0x08000bdc   Section        0  stm32f1xx_hal_gpio.o(i.HAL_GPIO_Init)
    i.HAL_GPIO_ReadPin                       0x08000ee8   Section        0  stm32f1xx_hal_gpio.o(i.HAL_GPIO_ReadPin)
    i.HAL_GPIO_TogglePin                     0x08000ef8   Section        0  stm32f1xx_hal_gpio.o(i.HAL_GPIO_TogglePin)
    i.HAL_GPIO_WritePin                      0x08000f0c   Section        0  stm32f1xx_hal_gpio.o(i.HAL_GPIO_WritePin)
    i.HAL_GetTick                            0x08000f18   Section        0  stm32f1xx_hal.o(i.HAL_GetTick)
    i.HAL_IncTick                            0x08000f24   Section        0  stm32f1xx_hal.o(i.HAL_IncTick)
    i.HAL_Init                               0x08000f3c   Section        0  stm32f1xx_hal.o(i.HAL_Init)
    i.HAL_InitTick                           0x08000f64   Section        0  stm32f1xx_hal.o(i.HAL_InitTick)
    i.HAL_MspInit                            0x08000fb0   Section        0  stm32f1xx_hal_msp.o(i.HAL_MspInit)
    i.HAL_NVIC_EnableIRQ                     0x08001004   Section        0  stm32f1xx_hal_cortex.o(i.HAL_NVIC_EnableIRQ)
    i.HAL_NVIC_SetPriority                   0x08001024   Section        0  stm32f1xx_hal_cortex.o(i.HAL_NVIC_SetPriority)
    i.HAL_NVIC_SetPriorityGrouping           0x080010a0   Section        0  stm32f1xx_hal_cortex.o(i.HAL_NVIC_SetPriorityGrouping)
    i.HAL_RCC_ClockConfig                    0x080010c8   Section        0  stm32f1xx_hal_rcc.o(i.HAL_RCC_ClockConfig)
    i.HAL_RCC_GetHCLKFreq                    0x08001254   Section        0  stm32f1xx_hal_rcc.o(i.HAL_RCC_GetHCLKFreq)
    i.HAL_RCC_GetPCLK1Freq                   0x08001260   Section        0  stm32f1xx_hal_rcc.o(i.HAL_RCC_GetPCLK1Freq)
    i.HAL_RCC_GetPCLK2Freq                   0x08001280   Section        0  stm32f1xx_hal_rcc.o(i.HAL_RCC_GetPCLK2Freq)
    i.HAL_RCC_GetSysClockFreq                0x080012a0   Section        0  stm32f1xx_hal_rcc.o(i.HAL_RCC_GetSysClockFreq)
    i.HAL_RCC_OscConfig                      0x08001334   Section        0  stm32f1xx_hal_rcc.o(i.HAL_RCC_OscConfig)
    i.HAL_SYSTICK_Config                     0x08001798   Section        0  stm32f1xx_hal_cortex.o(i.HAL_SYSTICK_Config)
    i.HAL_TIMEx_BreakCallback                0x080017cc   Section        0  stm32f1xx_hal_tim_ex.o(i.HAL_TIMEx_BreakCallback)
    i.HAL_TIMEx_CommutCallback               0x080017ce   Section        0  stm32f1xx_hal_tim_ex.o(i.HAL_TIMEx_CommutCallback)
    i.HAL_TIMEx_MasterConfigSynchronization  0x080017d0   Section        0  stm32f1xx_hal_tim_ex.o(i.HAL_TIMEx_MasterConfigSynchronization)
    i.HAL_TIM_Base_Init                      0x08001848   Section        0  stm32f1xx_hal_tim.o(i.HAL_TIM_Base_Init)
    i.HAL_TIM_Base_MspInit                   0x080018b0   Section        0  tim.o(i.HAL_TIM_Base_MspInit)
    i.HAL_TIM_Base_Start_IT                  0x080018f4   Section        0  stm32f1xx_hal_tim.o(i.HAL_TIM_Base_Start_IT)
    i.HAL_TIM_ConfigClockSource              0x08001960   Section        0  stm32f1xx_hal_tim.o(i.HAL_TIM_ConfigClockSource)
    i.HAL_TIM_IC_CaptureCallback             0x08001a68   Section        0  stm32f1xx_hal_tim.o(i.HAL_TIM_IC_CaptureCallback)
    i.HAL_TIM_IRQHandler                     0x08001a6a   Section        0  stm32f1xx_hal_tim.o(i.HAL_TIM_IRQHandler)
    i.HAL_TIM_OC_DelayElapsedCallback        0x08001c00   Section        0  stm32f1xx_hal_tim.o(i.HAL_TIM_OC_DelayElapsedCallback)
    i.HAL_TIM_PWM_PulseFinishedCallback      0x08001c02   Section        0  stm32f1xx_hal_tim.o(i.HAL_TIM_PWM_PulseFinishedCallback)
    i.HAL_TIM_PeriodElapsedCallback          0x08001c04   Section        0  main.o(i.HAL_TIM_PeriodElapsedCallback)
    i.HAL_TIM_TriggerCallback                0x08001c80   Section        0  stm32f1xx_hal_tim.o(i.HAL_TIM_TriggerCallback)
    i.HAL_UARTEx_RxEventCallback             0x08001c82   Section        0  stm32f1xx_hal_uart.o(i.HAL_UARTEx_RxEventCallback)
    i.HAL_UART_ErrorCallback                 0x08001c84   Section        0  stm32f1xx_hal_uart.o(i.HAL_UART_ErrorCallback)
    i.HAL_UART_IRQHandler                    0x08001c88   Section        0  stm32f1xx_hal_uart.o(i.HAL_UART_IRQHandler)
    i.HAL_UART_Init                          0x08001ed4   Section        0  stm32f1xx_hal_uart.o(i.HAL_UART_Init)
    i.HAL_UART_MspInit                       0x08001f48   Section        0  usart.o(i.HAL_UART_MspInit)
    i.HAL_UART_Receive_IT                    0x0800214c   Section        0  stm32f1xx_hal_uart.o(i.HAL_UART_Receive_IT)
    i.HAL_UART_RxCpltCallback                0x08002190   Section        0  main.o(i.HAL_UART_RxCpltCallback)
    i.HAL_UART_Transmit                      0x080021e0   Section        0  stm32f1xx_hal_uart.o(i.HAL_UART_Transmit)
    i.HAL_UART_TxCpltCallback                0x080022b2   Section        0  stm32f1xx_hal_uart.o(i.HAL_UART_TxCpltCallback)
    i.HardFault_Handler                      0x080022b4   Section        0  stm32f1xx_it.o(i.HardFault_Handler)
    i.MX_DMA_Init                            0x080022b8   Section        0  dma.o(i.MX_DMA_Init)
    i.MX_GPIO_Init                           0x0800231c   Section        0  gpio.o(i.MX_GPIO_Init)
    i.MX_TIM3_Init                           0x080023fc   Section        0  tim.o(i.MX_TIM3_Init)
    i.MX_USART1_UART_Init                    0x08002468   Section        0  usart.o(i.MX_USART1_UART_Init)
    i.MX_USART2_UART_Init                    0x080024a0   Section        0  usart.o(i.MX_USART2_UART_Init)
    i.MemManage_Handler                      0x080024d8   Section        0  stm32f1xx_it.o(i.MemManage_Handler)
    i.NMI_Handler                            0x080024dc   Section        0  stm32f1xx_it.o(i.NMI_Handler)
    i.PendSV_Handler                         0x080024e0   Section        0  stm32f1xx_it.o(i.PendSV_Handler)
    i.RCC_Delay                              0x080024e4   Section        0  stm32f1xx_hal_rcc.o(i.RCC_Delay)
    RCC_Delay                                0x080024e5   Thumb Code    36  stm32f1xx_hal_rcc.o(i.RCC_Delay)
    i.SVC_Handler                            0x0800250c   Section        0  stm32f1xx_it.o(i.SVC_Handler)
    i.SysTick_Handler                        0x0800250e   Section        0  stm32f1xx_it.o(i.SysTick_Handler)
    i.SystemClock_Config                     0x08002516   Section        0  main.o(i.SystemClock_Config)
    i.SystemInit                             0x0800257c   Section        0  system_stm32f1xx.o(i.SystemInit)
    i.TIM3_IRQHandler                        0x08002580   Section        0  stm32f1xx_it.o(i.TIM3_IRQHandler)
    i.TIM_Base_SetConfig                     0x08002590   Section        0  stm32f1xx_hal_tim.o(i.TIM_Base_SetConfig)
    i.TIM_ETR_SetConfig                      0x080025f4   Section        0  stm32f1xx_hal_tim.o(i.TIM_ETR_SetConfig)
    i.TIM_ITRx_SetConfig                     0x0800260a   Section        0  stm32f1xx_hal_tim.o(i.TIM_ITRx_SetConfig)
    TIM_ITRx_SetConfig                       0x0800260b   Thumb Code    18  stm32f1xx_hal_tim.o(i.TIM_ITRx_SetConfig)
    i.TIM_TI1_ConfigInputStage               0x0800261c   Section        0  stm32f1xx_hal_tim.o(i.TIM_TI1_ConfigInputStage)
    TIM_TI1_ConfigInputStage                 0x0800261d   Thumb Code    38  stm32f1xx_hal_tim.o(i.TIM_TI1_ConfigInputStage)
    i.TIM_TI2_ConfigInputStage               0x08002642   Section        0  stm32f1xx_hal_tim.o(i.TIM_TI2_ConfigInputStage)
    TIM_TI2_ConfigInputStage                 0x08002643   Thumb Code    40  stm32f1xx_hal_tim.o(i.TIM_TI2_ConfigInputStage)
    i.UART_DMAAbortOnError                   0x0800266a   Section        0  stm32f1xx_hal_uart.o(i.UART_DMAAbortOnError)
    UART_DMAAbortOnError                     0x0800266b   Thumb Code    20  stm32f1xx_hal_uart.o(i.UART_DMAAbortOnError)
    i.UART_EndRxTransfer                     0x0800267e   Section        0  stm32f1xx_hal_uart.o(i.UART_EndRxTransfer)
    UART_EndRxTransfer                       0x0800267f   Thumb Code    54  stm32f1xx_hal_uart.o(i.UART_EndRxTransfer)
    i.UART_EndTransmit_IT                    0x080026b4   Section        0  stm32f1xx_hal_uart.o(i.UART_EndTransmit_IT)
    UART_EndTransmit_IT                      0x080026b5   Thumb Code    32  stm32f1xx_hal_uart.o(i.UART_EndTransmit_IT)
    i.UART_Receive_IT                        0x080026d4   Section        0  stm32f1xx_hal_uart.o(i.UART_Receive_IT)
    UART_Receive_IT                          0x080026d5   Thumb Code   228  stm32f1xx_hal_uart.o(i.UART_Receive_IT)
    i.UART_SetConfig                         0x080027b8   Section        0  stm32f1xx_hal_uart.o(i.UART_SetConfig)
    UART_SetConfig                           0x080027b9   Thumb Code   248  stm32f1xx_hal_uart.o(i.UART_SetConfig)
    i.UART_Start_Receive_IT                  0x080028b4   Section        0  stm32f1xx_hal_uart.o(i.UART_Start_Receive_IT)
    i.UART_Transmit_IT                       0x080028fa   Section        0  stm32f1xx_hal_uart.o(i.UART_Transmit_IT)
    UART_Transmit_IT                         0x080028fb   Thumb Code    96  stm32f1xx_hal_uart.o(i.UART_Transmit_IT)
    i.UART_WaitOnFlagUntilTimeout            0x0800295a   Section        0  stm32f1xx_hal_uart.o(i.UART_WaitOnFlagUntilTimeout)
    UART_WaitOnFlagUntilTimeout              0x0800295b   Thumb Code   108  stm32f1xx_hal_uart.o(i.UART_WaitOnFlagUntilTimeout)
    i.USART1_IRQHandler                      0x080029c8   Section        0  stm32f1xx_it.o(i.USART1_IRQHandler)
    i.USART2_IRQHandler                      0x080029d8   Section        0  stm32f1xx_it.o(i.USART2_IRQHandler)
    i.UsageFault_Handler                     0x080029e8   Section        0  stm32f1xx_it.o(i.UsageFault_Handler)
    i.__0printf$5                            0x080029ec   Section        0  printf5.o(i.__0printf$5)
    i.__NVIC_GetPriorityGrouping             0x08002a0c   Section        0  stm32f1xx_hal_cortex.o(i.__NVIC_GetPriorityGrouping)
    __NVIC_GetPriorityGrouping               0x08002a0d   Thumb Code    10  stm32f1xx_hal_cortex.o(i.__NVIC_GetPriorityGrouping)
    i.__NVIC_SetPriority                     0x08002a1c   Section        0  stm32f1xx_hal_cortex.o(i.__NVIC_SetPriority)
    __NVIC_SetPriority                       0x08002a1d   Thumb Code    32  stm32f1xx_hal_cortex.o(i.__NVIC_SetPriority)
    i.__scatterload_copy                     0x08002a44   Section       14  handlers.o(i.__scatterload_copy)
    i.__scatterload_null                     0x08002a52   Section        2  handlers.o(i.__scatterload_null)
    i.__scatterload_zeroinit                 0x08002a54   Section       14  handlers.o(i.__scatterload_zeroinit)
    i._printf_core                           0x08002a64   Section        0  printf5.o(i._printf_core)
    _printf_core                             0x08002a65   Thumb Code   660  printf5.o(i._printf_core)
    i.change_ID                              0x08002d24   Section        0  drive.o(i.change_ID)
    i.check_data                             0x08002e74   Section        0  message.o(i.check_data)
    i.check_drive                            0x08002f14   Section        0  drive.o(i.check_drive)
    i.fputc                                  0x08003010   Section        0  usart.o(i.fputc)
    i.free                                   0x0800302c   Section        0  malloc.o(i.free)
    i.get_sys_clk                            0x0800307c   Section        0  main.o(i.get_sys_clk)
    i.init_myself                            0x08003088   Section        0  drive.o(i.init_myself)
    i.key_drive_oper                         0x080030f8   Section        0  drive.o(i.key_drive_oper)
    i.key_led_Toggle                         0x08003268   Section        0  drive.o(i.key_led_Toggle)
    key_led_Toggle                           0x08003269   Thumb Code   136  drive.o(i.key_led_Toggle)
    i.key_scan                               0x080032f8   Section        0  drive.o(i.key_scan)
    i.key_scan_call                          0x080033f8   Section        0  drive.o(i.key_scan_call)
    key_scan_call                            0x080033f9   Thumb Code   138  drive.o(i.key_scan_call)
    i.main                                   0x0800348c   Section        0  main.o(i.main)
    i.malloc                                 0x080034fc   Section        0  malloc.o(i.malloc)
    i.message_init                           0x08003568   Section        0  message.o(i.message_init)
    i.polling                                0x0800359c   Section        0  message.o(i.polling)
    i.report_heartbeat                       0x08003804   Section        0  drive.o(i.report_heartbeat)
    i.send_message                           0x08003920   Section        0  message.o(i.send_message)
    i.uart_drive_init                        0x080039d8   Section        0  main.o(i.uart_drive_init)
    uart_drive_init                          0x080039d9   Thumb Code    26  main.o(i.uart_drive_init)
    .constdata                               0x08003a00   Section       24  system_stm32f1xx.o(.constdata)
    .data                                    0x20000000   Section       10  drive.o(.data)
    report_flag                              0x20000008   Data           1  drive.o(.data)
    flip_100ms_last                          0x20000009   Data           1  drive.o(.data)
    .data                                    0x2000000c   Section       12  main.o(.data)
    time                                     0x20000016   Data           2  main.o(.data)
    .data                                    0x20000018   Section       28  message.o(.data)
    data_len                                 0x20000030   Data           2  message.o(.data)
    local                                    0x20000032   Data           1  message.o(.data)
    data_last                                0x20000033   Data           1  message.o(.data)
    .data                                    0x20000034   Section        4  system_stm32f1xx.o(.data)
    .data                                    0x20000038   Section        4  usart.o(.data)
    .data                                    0x2000003c   Section        9  stm32f1xx_hal.o(.data)
    .data                                    0x20000048   Section        4  mvars.o(.data)
    .data                                    0x2000004c   Section        4  mvars.o(.data)
    .bss                                     0x20000050   Section       10  drive.o(.bss)
    key_time                                 0x20000050   Data          10  drive.o(.bss)
    .bss                                     0x2000005a   Section     1024  flash.o(.bss)
    FlashBuffer                              0x2000005a   Data        1024  flash.o(.bss)
    .bss                                     0x2000045c   Section       72  tim.o(.bss)
    .bss                                     0x200004a4   Section      408  usart.o(.bss)
    .bss                                     0x20000640   Section       32  stm32f1xx_hal_flash.o(.bss)
    HEAP                                     0x20000660   Section     3840  startup_stm32f103x6.o(HEAP)
    STACK                                    0x20001560   Section     3840  startup_stm32f103x6.o(STACK)

    Global Symbols

    Symbol Name                              Value     Ov Type        Size  Object(Section)

    BuildAttributes$$THM_ISAv4$P$D$K$B$S$PE$A:L22UL41UL21$X:L11$S22US41US21$IEEE1$IW$USESV6$~STKCKD$USESV7$~SHL$OSPACE$ROPI$EBA8$MICROLIB$REQ8$PRES8$EABIv2 0x00000000   Number         0  anon$$obj.o ABSOLUTE
    __ARM_use_no_argv                        0x00000000   Number         0  main.o ABSOLUTE
    _printf_a                                0x00000000   Number         0  stubs.o ABSOLUTE
    _printf_c                                0x00000000   Number         0  stubs.o ABSOLUTE
    _printf_charcount                        0x00000000   Number         0  stubs.o ABSOLUTE
    _printf_d                                0x00000000   Number         0  stubs.o ABSOLUTE
    _printf_e                                0x00000000   Number         0  stubs.o ABSOLUTE
    _printf_f                                0x00000000   Number         0  stubs.o ABSOLUTE
    _printf_flags                            0x00000000   Number         0  stubs.o ABSOLUTE
    _printf_fp_dec                           0x00000000   Number         0  stubs.o ABSOLUTE
    _printf_fp_hex                           0x00000000   Number         0  stubs.o ABSOLUTE
    _printf_g                                0x00000000   Number         0  stubs.o ABSOLUTE
    _printf_i                                0x00000000   Number         0  stubs.o ABSOLUTE
    _printf_int_dec                          0x00000000   Number         0  stubs.o ABSOLUTE
    _printf_l                                0x00000000   Number         0  stubs.o ABSOLUTE
    _printf_lc                               0x00000000   Number         0  stubs.o ABSOLUTE
    _printf_ll                               0x00000000   Number         0  stubs.o ABSOLUTE
    _printf_lld                              0x00000000   Number         0  stubs.o ABSOLUTE
    _printf_lli                              0x00000000   Number         0  stubs.o ABSOLUTE
    _printf_llo                              0x00000000   Number         0  stubs.o ABSOLUTE
    _printf_llu                              0x00000000   Number         0  stubs.o ABSOLUTE
    _printf_llx                              0x00000000   Number         0  stubs.o ABSOLUTE
    _printf_longlong_dec                     0x00000000   Number         0  stubs.o ABSOLUTE
    _printf_longlong_hex                     0x00000000   Number         0  stubs.o ABSOLUTE
    _printf_longlong_oct                     0x00000000   Number         0  stubs.o ABSOLUTE
    _printf_ls                               0x00000000   Number         0  stubs.o ABSOLUTE
    _printf_mbtowc                           0x00000000   Number         0  stubs.o ABSOLUTE
    _printf_n                                0x00000000   Number         0  stubs.o ABSOLUTE
    _printf_o                                0x00000000   Number         0  stubs.o ABSOLUTE
    _printf_p                                0x00000000   Number         0  stubs.o ABSOLUTE
    _printf_percent                          0x00000000   Number         0  stubs.o ABSOLUTE
    _printf_pre_padding                      0x00000000   Number         0  stubs.o ABSOLUTE
    _printf_return_value                     0x00000000   Number         0  stubs.o ABSOLUTE
    _printf_s                                0x00000000   Number         0  stubs.o ABSOLUTE
    _printf_sizespec                         0x00000000   Number         0  stubs.o ABSOLUTE
    _printf_str                              0x00000000   Number         0  stubs.o ABSOLUTE
    _printf_truncate_signed                  0x00000000   Number         0  stubs.o ABSOLUTE
    _printf_truncate_unsigned                0x00000000   Number         0  stubs.o ABSOLUTE
    _printf_u                                0x00000000   Number         0  stubs.o ABSOLUTE
    _printf_wc                               0x00000000   Number         0  stubs.o ABSOLUTE
    _printf_wctomb                           0x00000000   Number         0  stubs.o ABSOLUTE
    _printf_widthprec                        0x00000000   Number         0  stubs.o ABSOLUTE
    _printf_x                                0x00000000   Number         0  stubs.o ABSOLUTE
    __arm_fini_                               - Undefined Weak Reference
    __cpp_initialize__aeabi_                  - Undefined Weak Reference
    __cxa_finalize                            - Undefined Weak Reference
    __decompress                              - Undefined Weak Reference
    _clock_init                               - Undefined Weak Reference
    _microlib_exit                            - Undefined Weak Reference
    __Vectors_Size                           0x000000ec   Number         0  startup_stm32f103x6.o ABSOLUTE
    __Vectors                                0x08000000   Data           4  startup_stm32f103x6.o(RESET)
    __Vectors_End                            0x080000ec   Data           0  startup_stm32f103x6.o(RESET)
    __main                                   0x080000ed   Thumb Code     0  entry.o(.ARM.Collect$$$$00000000)
    _main_stk                                0x080000ed   Thumb Code     0  entry2.o(.ARM.Collect$$$$00000001)
    _main_scatterload                        0x080000f1   Thumb Code     0  entry5.o(.ARM.Collect$$$$00000004)
    __main_after_scatterload                 0x080000f5   Thumb Code     0  entry5.o(.ARM.Collect$$$$00000004)
    _main_clock                              0x080000f5   Thumb Code     0  entry7b.o(.ARM.Collect$$$$00000008)
    _main_cpp_init                           0x080000f5   Thumb Code     0  entry8b.o(.ARM.Collect$$$$0000000A)
    _main_init                               0x080000f5   Thumb Code     0  entry9a.o(.ARM.Collect$$$$0000000B)
    __rt_lib_shutdown_fini                   0x080000fd   Thumb Code     0  entry12b.o(.ARM.Collect$$$$0000000E)
    __rt_final_cpp                           0x08000101   Thumb Code     0  entry10a.o(.ARM.Collect$$$$0000000F)
    __rt_final_exit                          0x08000101   Thumb Code     0  entry11a.o(.ARM.Collect$$$$00000011)
    Reset_Handler                            0x08000105   Thumb Code     8  startup_stm32f103x6.o(.text)
    ADC1_2_IRQHandler                        0x0800011f   Thumb Code     0  startup_stm32f103x6.o(.text)
    CAN1_RX1_IRQHandler                      0x0800011f   Thumb Code     0  startup_stm32f103x6.o(.text)
    CAN1_SCE_IRQHandler                      0x0800011f   Thumb Code     0  startup_stm32f103x6.o(.text)
    DMA1_Channel1_IRQHandler                 0x0800011f   Thumb Code     0  startup_stm32f103x6.o(.text)
    DMA1_Channel2_IRQHandler                 0x0800011f   Thumb Code     0  startup_stm32f103x6.o(.text)
    DMA1_Channel3_IRQHandler                 0x0800011f   Thumb Code     0  startup_stm32f103x6.o(.text)
    EXTI0_IRQHandler                         0x0800011f   Thumb Code     0  startup_stm32f103x6.o(.text)
    EXTI15_10_IRQHandler                     0x0800011f   Thumb Code     0  startup_stm32f103x6.o(.text)
    EXTI1_IRQHandler                         0x0800011f   Thumb Code     0  startup_stm32f103x6.o(.text)
    EXTI2_IRQHandler                         0x0800011f   Thumb Code     0  startup_stm32f103x6.o(.text)
    EXTI3_IRQHandler                         0x0800011f   Thumb Code     0  startup_stm32f103x6.o(.text)
    EXTI4_IRQHandler                         0x0800011f   Thumb Code     0  startup_stm32f103x6.o(.text)
    EXTI9_5_IRQHandler                       0x0800011f   Thumb Code     0  startup_stm32f103x6.o(.text)
    FLASH_IRQHandler                         0x0800011f   Thumb Code     0  startup_stm32f103x6.o(.text)
    I2C1_ER_IRQHandler                       0x0800011f   Thumb Code     0  startup_stm32f103x6.o(.text)
    I2C1_EV_IRQHandler                       0x0800011f   Thumb Code     0  startup_stm32f103x6.o(.text)
    PVD_IRQHandler                           0x0800011f   Thumb Code     0  startup_stm32f103x6.o(.text)
    RCC_IRQHandler                           0x0800011f   Thumb Code     0  startup_stm32f103x6.o(.text)
    RTC_Alarm_IRQHandler                     0x0800011f   Thumb Code     0  startup_stm32f103x6.o(.text)
    RTC_IRQHandler                           0x0800011f   Thumb Code     0  startup_stm32f103x6.o(.text)
    SPI1_IRQHandler                          0x0800011f   Thumb Code     0  startup_stm32f103x6.o(.text)
    TAMPER_IRQHandler                        0x0800011f   Thumb Code     0  startup_stm32f103x6.o(.text)
    TIM1_BRK_IRQHandler                      0x0800011f   Thumb Code     0  startup_stm32f103x6.o(.text)
    TIM1_CC_IRQHandler                       0x0800011f   Thumb Code     0  startup_stm32f103x6.o(.text)
    TIM1_TRG_COM_IRQHandler                  0x0800011f   Thumb Code     0  startup_stm32f103x6.o(.text)
    TIM1_UP_IRQHandler                       0x0800011f   Thumb Code     0  startup_stm32f103x6.o(.text)
    TIM2_IRQHandler                          0x0800011f   Thumb Code     0  startup_stm32f103x6.o(.text)
    USBWakeUp_IRQHandler                     0x0800011f   Thumb Code     0  startup_stm32f103x6.o(.text)
    USB_HP_CAN1_TX_IRQHandler                0x0800011f   Thumb Code     0  startup_stm32f103x6.o(.text)
    USB_LP_CAN1_RX0_IRQHandler               0x0800011f   Thumb Code     0  startup_stm32f103x6.o(.text)
    WWDG_IRQHandler                          0x0800011f   Thumb Code     0  startup_stm32f103x6.o(.text)
    __aeabi_llsr                             0x08000129   Thumb Code    32  llushr.o(.text)
    _ll_ushift_r                             0x08000129   Thumb Code     0  llushr.o(.text)
    __aeabi_memcpy                           0x08000149   Thumb Code    36  memcpya.o(.text)
    __aeabi_memcpy4                          0x08000149   Thumb Code     0  memcpya.o(.text)
    __aeabi_memcpy8                          0x08000149   Thumb Code     0  memcpya.o(.text)
    __aeabi_memset                           0x0800016d   Thumb Code    14  memseta.o(.text)
    __aeabi_memset4                          0x0800016d   Thumb Code     0  memseta.o(.text)
    __aeabi_memset8                          0x0800016d   Thumb Code     0  memseta.o(.text)
    __aeabi_memclr                           0x0800017b   Thumb Code     4  memseta.o(.text)
    __aeabi_memclr4                          0x0800017b   Thumb Code     0  memseta.o(.text)
    __aeabi_memclr8                          0x0800017b   Thumb Code     0  memseta.o(.text)
    _memset$wrapper                          0x0800017f   Thumb Code    18  memseta.o(.text)
    __aeabi_uldivmod                         0x08000191   Thumb Code    98  uldiv.o(.text)
    __scatterload                            0x080001f5   Thumb Code    28  init.o(.text)
    __scatterload_rt2                        0x080001f5   Thumb Code     0  init.o(.text)
    __aeabi_llsl                             0x08000219   Thumb Code    30  llshl.o(.text)
    _ll_shift_l                              0x08000219   Thumb Code     0  llshl.o(.text)
    BusFault_Handler                         0x08000237   Thumb Code     4  stm32f1xx_it.o(i.BusFault_Handler)
    DMA1_Channel4_IRQHandler                 0x0800023d   Thumb Code    10  stm32f1xx_it.o(i.DMA1_Channel4_IRQHandler)
    DMA1_Channel5_IRQHandler                 0x0800024d   Thumb Code    10  stm32f1xx_it.o(i.DMA1_Channel5_IRQHandler)
    DMA1_Channel6_IRQHandler                 0x0800025d   Thumb Code    10  stm32f1xx_it.o(i.DMA1_Channel6_IRQHandler)
    DMA1_Channel7_IRQHandler                 0x0800026d   Thumb Code    10  stm32f1xx_it.o(i.DMA1_Channel7_IRQHandler)
    DebugMon_Handler                         0x0800027d   Thumb Code     2  stm32f1xx_it.o(i.DebugMon_Handler)
    Error_Handler                            0x0800027f   Thumb Code     6  main.o(i.Error_Handler)
    FLASH_PageErase                          0x080002ad   Thumb Code    32  stm32f1xx_hal_flash_ex.o(i.FLASH_PageErase)
    FLASH_Read                               0x080002f5   Thumb Code    80  flash.o(i.FLASH_Read)
    FLASH_WaitForLastOperation               0x080003cd   Thumb Code   106  stm32f1xx_hal_flash.o(i.FLASH_WaitForLastOperation)
    FLASH_Write                              0x0800043d   Thumb Code   322  flash.o(i.FLASH_Write)
    FLASH_WriteNotCheck                      0x08000589   Thumb Code    68  flash.o(i.FLASH_WriteNotCheck)
    Get_Data_Fram                            0x080005d1   Thumb Code   286  message.o(i.Get_Data_Fram)
    HAL_DMA_Abort                            0x08000705   Thumb Code    86  stm32f1xx_hal_dma.o(i.HAL_DMA_Abort)
    HAL_DMA_Abort_IT                         0x0800075d   Thumb Code   172  stm32f1xx_hal_dma.o(i.HAL_DMA_Abort_IT)
    HAL_DMA_IRQHandler                       0x0800080d   Thumb Code   408  stm32f1xx_hal_dma.o(i.HAL_DMA_IRQHandler)
    HAL_DMA_Init                             0x080009a9   Thumb Code   100  stm32f1xx_hal_dma.o(i.HAL_DMA_Init)
    HAL_Delay                                0x08000a11   Thumb Code    36  stm32f1xx_hal.o(i.HAL_Delay)
    HAL_FLASHEx_Erase                        0x08000a39   Thumb Code   168  stm32f1xx_hal_flash_ex.o(i.HAL_FLASHEx_Erase)
    HAL_FLASH_Lock                           0x08000ae9   Thumb Code    16  stm32f1xx_hal_flash.o(i.HAL_FLASH_Lock)
    HAL_FLASH_Program                        0x08000afd   Thumb Code   168  stm32f1xx_hal_flash.o(i.HAL_FLASH_Program)
    HAL_FLASH_Unlock                         0x08000bad   Thumb Code    36  stm32f1xx_hal_flash.o(i.HAL_FLASH_Unlock)
    HAL_GPIO_Init                            0x08000bdd   Thumb Code   750  stm32f1xx_hal_gpio.o(i.HAL_GPIO_Init)
    HAL_GPIO_ReadPin                         0x08000ee9   Thumb Code    16  stm32f1xx_hal_gpio.o(i.HAL_GPIO_ReadPin)
    HAL_GPIO_TogglePin                       0x08000ef9   Thumb Code    20  stm32f1xx_hal_gpio.o(i.HAL_GPIO_TogglePin)
    HAL_GPIO_WritePin                        0x08000f0d   Thumb Code    12  stm32f1xx_hal_gpio.o(i.HAL_GPIO_WritePin)
    HAL_GetTick                              0x08000f19   Thumb Code     6  stm32f1xx_hal.o(i.HAL_GetTick)
    HAL_IncTick                              0x08000f25   Thumb Code    16  stm32f1xx_hal.o(i.HAL_IncTick)
    HAL_Init                                 0x08000f3d   Thumb Code    34  stm32f1xx_hal.o(i.HAL_Init)
    HAL_InitTick                             0x08000f65   Thumb Code    64  stm32f1xx_hal.o(i.HAL_InitTick)
    HAL_MspInit                              0x08000fb1   Thumb Code    76  stm32f1xx_hal_msp.o(i.HAL_MspInit)
    HAL_NVIC_EnableIRQ                       0x08001005   Thumb Code    32  stm32f1xx_hal_cortex.o(i.HAL_NVIC_EnableIRQ)
    HAL_NVIC_SetPriority                     0x08001025   Thumb Code   124  stm32f1xx_hal_cortex.o(i.HAL_NVIC_SetPriority)
    HAL_NVIC_SetPriorityGrouping             0x080010a1   Thumb Code    32  stm32f1xx_hal_cortex.o(i.HAL_NVIC_SetPriorityGrouping)
    HAL_RCC_ClockConfig                      0x080010c9   Thumb Code   376  stm32f1xx_hal_rcc.o(i.HAL_RCC_ClockConfig)
    HAL_RCC_GetHCLKFreq                      0x08001255   Thumb Code     6  stm32f1xx_hal_rcc.o(i.HAL_RCC_GetHCLKFreq)
    HAL_RCC_GetPCLK1Freq                     0x08001261   Thumb Code    22  stm32f1xx_hal_rcc.o(i.HAL_RCC_GetPCLK1Freq)
    HAL_RCC_GetPCLK2Freq                     0x08001281   Thumb Code    22  stm32f1xx_hal_rcc.o(i.HAL_RCC_GetPCLK2Freq)
    HAL_RCC_GetSysClockFreq                  0x080012a1   Thumb Code   116  stm32f1xx_hal_rcc.o(i.HAL_RCC_GetSysClockFreq)
    HAL_RCC_OscConfig                        0x08001335   Thumb Code  1114  stm32f1xx_hal_rcc.o(i.HAL_RCC_OscConfig)
    HAL_SYSTICK_Config                       0x08001799   Thumb Code    52  stm32f1xx_hal_cortex.o(i.HAL_SYSTICK_Config)
    HAL_TIMEx_BreakCallback                  0x080017cd   Thumb Code     2  stm32f1xx_hal_tim_ex.o(i.HAL_TIMEx_BreakCallback)
    HAL_TIMEx_CommutCallback                 0x080017cf   Thumb Code     2  stm32f1xx_hal_tim_ex.o(i.HAL_TIMEx_CommutCallback)
    HAL_TIMEx_MasterConfigSynchronization    0x080017d1   Thumb Code   110  stm32f1xx_hal_tim_ex.o(i.HAL_TIMEx_MasterConfigSynchronization)
    HAL_TIM_Base_Init                        0x08001849   Thumb Code   102  stm32f1xx_hal_tim.o(i.HAL_TIM_Base_Init)
    HAL_TIM_Base_MspInit                     0x080018b1   Thumb Code    58  tim.o(i.HAL_TIM_Base_MspInit)
    HAL_TIM_Base_Start_IT                    0x080018f5   Thumb Code    98  stm32f1xx_hal_tim.o(i.HAL_TIM_Base_Start_IT)
    HAL_TIM_ConfigClockSource                0x08001961   Thumb Code   264  stm32f1xx_hal_tim.o(i.HAL_TIM_ConfigClockSource)
    HAL_TIM_IC_CaptureCallback               0x08001a69   Thumb Code     2  stm32f1xx_hal_tim.o(i.HAL_TIM_IC_CaptureCallback)
    HAL_TIM_IRQHandler                       0x08001a6b   Thumb Code   406  stm32f1xx_hal_tim.o(i.HAL_TIM_IRQHandler)
    HAL_TIM_OC_DelayElapsedCallback          0x08001c01   Thumb Code     2  stm32f1xx_hal_tim.o(i.HAL_TIM_OC_DelayElapsedCallback)
    HAL_TIM_PWM_PulseFinishedCallback        0x08001c03   Thumb Code     2  stm32f1xx_hal_tim.o(i.HAL_TIM_PWM_PulseFinishedCallback)
    HAL_TIM_PeriodElapsedCallback            0x08001c05   Thumb Code   104  main.o(i.HAL_TIM_PeriodElapsedCallback)
    HAL_TIM_TriggerCallback                  0x08001c81   Thumb Code     2  stm32f1xx_hal_tim.o(i.HAL_TIM_TriggerCallback)
    HAL_UARTEx_RxEventCallback               0x08001c83   Thumb Code     2  stm32f1xx_hal_uart.o(i.HAL_UARTEx_RxEventCallback)
    HAL_UART_ErrorCallback                   0x08001c85   Thumb Code     2  stm32f1xx_hal_uart.o(i.HAL_UART_ErrorCallback)
    HAL_UART_IRQHandler                      0x08001c89   Thumb Code   582  stm32f1xx_hal_uart.o(i.HAL_UART_IRQHandler)
    HAL_UART_Init                            0x08001ed5   Thumb Code   114  stm32f1xx_hal_uart.o(i.HAL_UART_Init)
    HAL_UART_MspInit                         0x08001f49   Thumb Code   480  usart.o(i.HAL_UART_MspInit)
    HAL_UART_Receive_IT                      0x0800214d   Thumb Code    66  stm32f1xx_hal_uart.o(i.HAL_UART_Receive_IT)
    HAL_UART_RxCpltCallback                  0x08002191   Thumb Code    60  main.o(i.HAL_UART_RxCpltCallback)
    HAL_UART_Transmit                        0x080021e1   Thumb Code   210  stm32f1xx_hal_uart.o(i.HAL_UART_Transmit)
    HAL_UART_TxCpltCallback                  0x080022b3   Thumb Code     2  stm32f1xx_hal_uart.o(i.HAL_UART_TxCpltCallback)
    HardFault_Handler                        0x080022b5   Thumb Code     4  stm32f1xx_it.o(i.HardFault_Handler)
    MX_DMA_Init                              0x080022b9   Thumb Code    96  dma.o(i.MX_DMA_Init)
    MX_GPIO_Init                             0x0800231d   Thumb Code   212  gpio.o(i.MX_GPIO_Init)
    MX_TIM3_Init                             0x080023fd   Thumb Code   100  tim.o(i.MX_TIM3_Init)
    MX_USART1_UART_Init                      0x08002469   Thumb Code    46  usart.o(i.MX_USART1_UART_Init)
    MX_USART2_UART_Init                      0x080024a1   Thumb Code    46  usart.o(i.MX_USART2_UART_Init)
    MemManage_Handler                        0x080024d9   Thumb Code     4  stm32f1xx_it.o(i.MemManage_Handler)
    NMI_Handler                              0x080024dd   Thumb Code     4  stm32f1xx_it.o(i.NMI_Handler)
    PendSV_Handler                           0x080024e1   Thumb Code     2  stm32f1xx_it.o(i.PendSV_Handler)
    SVC_Handler                              0x0800250d   Thumb Code     2  stm32f1xx_it.o(i.SVC_Handler)
    SysTick_Handler                          0x0800250f   Thumb Code     8  stm32f1xx_it.o(i.SysTick_Handler)
    SystemClock_Config                       0x08002517   Thumb Code   102  main.o(i.SystemClock_Config)
    SystemInit                               0x0800257d   Thumb Code     2  system_stm32f1xx.o(i.SystemInit)
    TIM3_IRQHandler                          0x08002581   Thumb Code    10  stm32f1xx_it.o(i.TIM3_IRQHandler)
    TIM_Base_SetConfig                       0x08002591   Thumb Code    92  stm32f1xx_hal_tim.o(i.TIM_Base_SetConfig)
    TIM_ETR_SetConfig                        0x080025f5   Thumb Code    22  stm32f1xx_hal_tim.o(i.TIM_ETR_SetConfig)
    UART_Start_Receive_IT                    0x080028b5   Thumb Code    70  stm32f1xx_hal_uart.o(i.UART_Start_Receive_IT)
    USART1_IRQHandler                        0x080029c9   Thumb Code    10  stm32f1xx_it.o(i.USART1_IRQHandler)
    USART2_IRQHandler                        0x080029d9   Thumb Code    10  stm32f1xx_it.o(i.USART2_IRQHandler)
    UsageFault_Handler                       0x080029e9   Thumb Code     4  stm32f1xx_it.o(i.UsageFault_Handler)
    __0printf$5                              0x080029ed   Thumb Code    22  printf5.o(i.__0printf$5)
    __1printf$5                              0x080029ed   Thumb Code     0  printf5.o(i.__0printf$5)
    __2printf                                0x080029ed   Thumb Code     0  printf5.o(i.__0printf$5)
    __scatterload_copy                       0x08002a45   Thumb Code    14  handlers.o(i.__scatterload_copy)
    __scatterload_null                       0x08002a53   Thumb Code     2  handlers.o(i.__scatterload_null)
    __scatterload_zeroinit                   0x08002a55   Thumb Code    14  handlers.o(i.__scatterload_zeroinit)
    change_ID                                0x08002d25   Thumb Code   184  drive.o(i.change_ID)
    check_data                               0x08002e75   Thumb Code   144  message.o(i.check_data)
    check_drive                              0x08002f15   Thumb Code   196  drive.o(i.check_drive)
    fputc                                    0x08003011   Thumb Code    22  usart.o(i.fputc)
    free                                     0x0800302d   Thumb Code    76  malloc.o(i.free)
    get_sys_clk                              0x0800307d   Thumb Code     6  main.o(i.get_sys_clk)
    init_myself                              0x08003089   Thumb Code   104  drive.o(i.init_myself)
    key_drive_oper                           0x080030f9   Thumb Code   356  drive.o(i.key_drive_oper)
    key_scan                                 0x080032f9   Thumb Code   238  drive.o(i.key_scan)
    main                                     0x0800348d   Thumb Code    96  main.o(i.main)
    malloc                                   0x080034fd   Thumb Code    92  malloc.o(i.malloc)
    message_init                             0x08003569   Thumb Code    44  message.o(i.message_init)
    polling                                  0x0800359d   Thumb Code   590  message.o(i.polling)
    report_heartbeat                         0x08003805   Thumb Code   262  drive.o(i.report_heartbeat)
    send_message                             0x08003921   Thumb Code   178  message.o(i.send_message)
    AHBPrescTable                            0x08003a00   Data          16  system_stm32f1xx.o(.constdata)
    APBPrescTable                            0x08003a10   Data           8  system_stm32f1xx.o(.constdata)
    Region$$Table$$Base                      0x08003a18   Number         0  anon$$obj.o(Region$$Table)
    Region$$Table$$Limit                     0x08003a38   Number         0  anon$$obj.o(Region$$Table)
    operation_flag                           0x20000000   Data           1  drive.o(.data)
    drive_myself                             0x20000004   Data           4  drive.o(.data)
    uart_message                             0x2000000c   Data           2  main.o(.data)
    flip_100ms                               0x2000000e   Data           1  main.o(.data)
    wait_init_time_flag                      0x2000000f   Data           1  main.o(.data)
    sys_time                                 0x20000010   Data           4  main.o(.data)
    flash_test                               0x20000014   Data           2  main.o(.data)
    message_fram                             0x20000018   Data           4  message.o(.data)
    send_fram                                0x2000001c   Data           4  message.o(.data)
    frem_read_end                            0x20000020   Data           1  message.o(.data)
    test                                     0x20000028   Data           8  message.o(.data)
    SystemCoreClock                          0x20000034   Data           4  system_stm32f1xx.o(.data)
    __stdout                                 0x20000038   Data           4  usart.o(.data)
    uwTick                                   0x2000003c   Data           4  stm32f1xx_hal.o(.data)
    uwTickPrio                               0x20000040   Data           4  stm32f1xx_hal.o(.data)
    uwTickFreq                               0x20000044   Data           1  stm32f1xx_hal.o(.data)
    __microlib_freelist                      0x20000048   Data           4  mvars.o(.data)
    __microlib_freelist_initialised          0x2000004c   Data           4  mvars.o(.data)
    htim3                                    0x2000045c   Data          72  tim.o(.bss)
    huart1                                   0x200004a4   Data          68  usart.o(.bss)
    huart2                                   0x200004e8   Data          68  usart.o(.bss)
    hdma_usart1_rx                           0x2000052c   Data          68  usart.o(.bss)
    hdma_usart1_tx                           0x20000570   Data          68  usart.o(.bss)
    hdma_usart2_rx                           0x200005b4   Data          68  usart.o(.bss)
    hdma_usart2_tx                           0x200005f8   Data          68  usart.o(.bss)
    pFlash                                   0x20000640   Data          32  stm32f1xx_hal_flash.o(.bss)
    __heap_base                              0x20000660   Data           0  startup_stm32f103x6.o(HEAP)
    __heap_limit                             0x20001560   Data           0  startup_stm32f103x6.o(HEAP)
    __initial_sp                             0x20002460   Data           0  startup_stm32f103x6.o(STACK)



==============================================================================

Memory Map of the image

  Image Entry point : 0x080000ed

  Load Region LR_IROM1 (Base: 0x08000000, Size: 0x00003a88, Max: 0x00008000, ABSOLUTE)

    Execution Region ER_IROM1 (Base: 0x08000000, Size: 0x00003a38, Max: 0x00008000, ABSOLUTE)

    Base Addr    Size         Type   Attr      Idx    E Section Name        Object

    0x08000000   0x000000ec   Data   RO         3119    RESET               startup_stm32f103x6.o
    0x080000ec   0x00000000   Code   RO         3124  * .ARM.Collect$$$$00000000  mc_w.l(entry.o)
    0x080000ec   0x00000004   Code   RO         3424    .ARM.Collect$$$$00000001  mc_w.l(entry2.o)
    0x080000f0   0x00000004   Code   RO         3427    .ARM.Collect$$$$00000004  mc_w.l(entry5.o)
    0x080000f4   0x00000000   Code   RO         3429    .ARM.Collect$$$$00000008  mc_w.l(entry7b.o)
    0x080000f4   0x00000000   Code   RO         3431    .ARM.Collect$$$$0000000A  mc_w.l(entry8b.o)
    0x080000f4   0x00000008   Code   RO         3432    .ARM.Collect$$$$0000000B  mc_w.l(entry9a.o)
    0x080000fc   0x00000004   Code   RO         3439    .ARM.Collect$$$$0000000E  mc_w.l(entry12b.o)
    0x08000100   0x00000000   Code   RO         3434    .ARM.Collect$$$$0000000F  mc_w.l(entry10a.o)
    0x08000100   0x00000000   Code   RO         3436    .ARM.Collect$$$$00000011  mc_w.l(entry11a.o)
    0x08000100   0x00000004   Code   RO         3425    .ARM.Collect$$$$00002712  mc_w.l(entry2.o)
    0x08000104   0x00000024   Code   RO         3120    .text               startup_stm32f103x6.o
    0x08000128   0x00000020   Code   RO         3127    .text               mc_w.l(llushr.o)
    0x08000148   0x00000024   Code   RO         3129    .text               mc_w.l(memcpya.o)
    0x0800016c   0x00000024   Code   RO         3131    .text               mc_w.l(memseta.o)
    0x08000190   0x00000062   Code   RO         3442    .text               mc_w.l(uldiv.o)
    0x080001f2   0x00000002   PAD
    0x080001f4   0x00000024   Code   RO         3457    .text               mc_w.l(init.o)
    0x08000218   0x0000001e   Code   RO         3459    .text               mc_w.l(llshl.o)
    0x08000236   0x00000004   Code   RO          465    i.BusFault_Handler  stm32f1xx_it.o
    0x0800023a   0x00000002   PAD
    0x0800023c   0x00000010   Code   RO          466    i.DMA1_Channel4_IRQHandler  stm32f1xx_it.o
    0x0800024c   0x00000010   Code   RO          467    i.DMA1_Channel5_IRQHandler  stm32f1xx_it.o
    0x0800025c   0x00000010   Code   RO          468    i.DMA1_Channel6_IRQHandler  stm32f1xx_it.o
    0x0800026c   0x00000010   Code   RO          469    i.DMA1_Channel7_IRQHandler  stm32f1xx_it.o
    0x0800027c   0x00000002   Code   RO          470    i.DebugMon_Handler  stm32f1xx_it.o
    0x0800027e   0x00000006   Code   RO          311    i.Error_Handler     main.o
    0x08000284   0x00000028   Code   RO         1293    i.FLASH_MassErase   stm32f1xx_hal_flash_ex.o
    0x080002ac   0x00000028   Code   RO         1302    i.FLASH_PageErase   stm32f1xx_hal_flash_ex.o
    0x080002d4   0x00000020   Code   RO         1190    i.FLASH_Program_HalfWord  stm32f1xx_hal_flash.o
    0x080002f4   0x00000054   Code   RO          220    i.FLASH_Read        flash.o
    0x08000348   0x00000084   Code   RO         1191    i.FLASH_SetErrorCode  stm32f1xx_hal_flash.o
    0x080003cc   0x00000070   Code   RO         1192    i.FLASH_WaitForLastOperation  stm32f1xx_hal_flash.o
    0x0800043c   0x0000014c   Code   RO          222    i.FLASH_Write       flash.o
    0x08000588   0x00000048   Code   RO          223    i.FLASH_WriteNotCheck  flash.o
    0x080005d0   0x00000134   Code   RO          386    i.Get_Data_Fram     message.o
    0x08000704   0x00000056   Code   RO         1024    i.HAL_DMA_Abort     stm32f1xx_hal_dma.o
    0x0800075a   0x00000002   PAD
    0x0800075c   0x000000b0   Code   RO         1025    i.HAL_DMA_Abort_IT  stm32f1xx_hal_dma.o
    0x0800080c   0x0000019c   Code   RO         1029    i.HAL_DMA_IRQHandler  stm32f1xx_hal_dma.o
    0x080009a8   0x00000068   Code   RO         1030    i.HAL_DMA_Init      stm32f1xx_hal_dma.o
    0x08000a10   0x00000028   Code   RO          734    i.HAL_Delay         stm32f1xx_hal.o
    0x08000a38   0x000000b0   Code   RO         1303    i.HAL_FLASHEx_Erase  stm32f1xx_hal_flash_ex.o
    0x08000ae8   0x00000014   Code   RO         1196    i.HAL_FLASH_Lock    stm32f1xx_hal_flash.o
    0x08000afc   0x000000b0   Code   RO         1201    i.HAL_FLASH_Program  stm32f1xx_hal_flash.o
    0x08000bac   0x00000030   Code   RO         1203    i.HAL_FLASH_Unlock  stm32f1xx_hal_flash.o
    0x08000bdc   0x0000030c   Code   RO         1402    i.HAL_GPIO_Init     stm32f1xx_hal_gpio.o
    0x08000ee8   0x00000010   Code   RO         1404    i.HAL_GPIO_ReadPin  stm32f1xx_hal_gpio.o
    0x08000ef8   0x00000014   Code   RO         1405    i.HAL_GPIO_TogglePin  stm32f1xx_hal_gpio.o
    0x08000f0c   0x0000000c   Code   RO         1406    i.HAL_GPIO_WritePin  stm32f1xx_hal_gpio.o
    0x08000f18   0x0000000c   Code   RO          738    i.HAL_GetTick       stm32f1xx_hal.o
    0x08000f24   0x00000018   Code   RO          744    i.HAL_IncTick       stm32f1xx_hal.o
    0x08000f3c   0x00000028   Code   RO          745    i.HAL_Init          stm32f1xx_hal.o
    0x08000f64   0x0000004c   Code   RO          746    i.HAL_InitTick      stm32f1xx_hal.o
    0x08000fb0   0x00000054   Code   RO          441    i.HAL_MspInit       stm32f1xx_hal_msp.o
    0x08001004   0x00000020   Code   RO          903    i.HAL_NVIC_EnableIRQ  stm32f1xx_hal_cortex.o
    0x08001024   0x0000007c   Code   RO          909    i.HAL_NVIC_SetPriority  stm32f1xx_hal_cortex.o
    0x080010a0   0x00000028   Code   RO          910    i.HAL_NVIC_SetPriorityGrouping  stm32f1xx_hal_cortex.o
    0x080010c8   0x0000018c   Code   RO         1627    i.HAL_RCC_ClockConfig  stm32f1xx_hal_rcc.o
    0x08001254   0x0000000c   Code   RO         1632    i.HAL_RCC_GetHCLKFreq  stm32f1xx_hal_rcc.o
    0x08001260   0x00000020   Code   RO         1634    i.HAL_RCC_GetPCLK1Freq  stm32f1xx_hal_rcc.o
    0x08001280   0x00000020   Code   RO         1635    i.HAL_RCC_GetPCLK2Freq  stm32f1xx_hal_rcc.o
    0x080012a0   0x00000094   Code   RO         1636    i.HAL_RCC_GetSysClockFreq  stm32f1xx_hal_rcc.o
    0x08001334   0x00000464   Code   RO         1639    i.HAL_RCC_OscConfig  stm32f1xx_hal_rcc.o
    0x08001798   0x00000034   Code   RO          914    i.HAL_SYSTICK_Config  stm32f1xx_hal_cortex.o
    0x080017cc   0x00000002   Code   RO         2486    i.HAL_TIMEx_BreakCallback  stm32f1xx_hal_tim_ex.o
    0x080017ce   0x00000002   Code   RO         2487    i.HAL_TIMEx_CommutCallback  stm32f1xx_hal_tim_ex.o
    0x080017d0   0x00000078   Code   RO         2505    i.HAL_TIMEx_MasterConfigSynchronization  stm32f1xx_hal_tim_ex.o
    0x08001848   0x00000066   Code   RO         1771    i.HAL_TIM_Base_Init  stm32f1xx_hal_tim.o
    0x080018ae   0x00000002   PAD
    0x080018b0   0x00000044   Code   RO          621    i.HAL_TIM_Base_MspInit  tim.o
    0x080018f4   0x0000006c   Code   RO         1776    i.HAL_TIM_Base_Start_IT  stm32f1xx_hal_tim.o
    0x08001960   0x00000108   Code   RO         1780    i.HAL_TIM_ConfigClockSource  stm32f1xx_hal_tim.o
    0x08001a68   0x00000002   Code   RO         1805    i.HAL_TIM_IC_CaptureCallback  stm32f1xx_hal_tim.o
    0x08001a6a   0x00000196   Code   RO         1819    i.HAL_TIM_IRQHandler  stm32f1xx_hal_tim.o
    0x08001c00   0x00000002   Code   RO         1822    i.HAL_TIM_OC_DelayElapsedCallback  stm32f1xx_hal_tim.o
    0x08001c02   0x00000002   Code   RO         1849    i.HAL_TIM_PWM_PulseFinishedCallback  stm32f1xx_hal_tim.o
    0x08001c04   0x0000007c   Code   RO          312    i.HAL_TIM_PeriodElapsedCallback  main.o
    0x08001c80   0x00000002   Code   RO         1862    i.HAL_TIM_TriggerCallback  stm32f1xx_hal_tim.o
    0x08001c82   0x00000002   Code   RO         2764    i.HAL_UARTEx_RxEventCallback  stm32f1xx_hal_uart.o
    0x08001c84   0x00000002   Code   RO         2778    i.HAL_UART_ErrorCallback  stm32f1xx_hal_uart.o
    0x08001c86   0x00000002   PAD
    0x08001c88   0x0000024c   Code   RO         2781    i.HAL_UART_IRQHandler  stm32f1xx_hal_uart.o
    0x08001ed4   0x00000072   Code   RO         2782    i.HAL_UART_Init     stm32f1xx_hal_uart.o
    0x08001f46   0x00000002   PAD
    0x08001f48   0x00000204   Code   RO          663    i.HAL_UART_MspInit  usart.o
    0x0800214c   0x00000042   Code   RO         2787    i.HAL_UART_Receive_IT  stm32f1xx_hal_uart.o
    0x0800218e   0x00000002   PAD
    0x08002190   0x00000050   Code   RO          313    i.HAL_UART_RxCpltCallback  main.o
    0x080021e0   0x000000d2   Code   RO         2790    i.HAL_UART_Transmit  stm32f1xx_hal_uart.o
    0x080022b2   0x00000002   Code   RO         2793    i.HAL_UART_TxCpltCallback  stm32f1xx_hal_uart.o
    0x080022b4   0x00000004   Code   RO          471    i.HardFault_Handler  stm32f1xx_it.o
    0x080022b8   0x00000064   Code   RO            4    i.MX_DMA_Init       dma.o
    0x0800231c   0x000000e0   Code   RO          284    i.MX_GPIO_Init      gpio.o
    0x080023fc   0x0000006c   Code   RO          622    i.MX_TIM3_Init      tim.o
    0x08002468   0x00000038   Code   RO          664    i.MX_USART1_UART_Init  usart.o
    0x080024a0   0x00000038   Code   RO          665    i.MX_USART2_UART_Init  usart.o
    0x080024d8   0x00000004   Code   RO          472    i.MemManage_Handler  stm32f1xx_it.o
    0x080024dc   0x00000004   Code   RO          473    i.NMI_Handler       stm32f1xx_it.o
    0x080024e0   0x00000002   Code   RO          474    i.PendSV_Handler    stm32f1xx_it.o
    0x080024e2   0x00000002   PAD
    0x080024e4   0x00000028   Code   RO         1640    i.RCC_Delay         stm32f1xx_hal_rcc.o
    0x0800250c   0x00000002   Code   RO          475    i.SVC_Handler       stm32f1xx_it.o
    0x0800250e   0x00000008   Code   RO          476    i.SysTick_Handler   stm32f1xx_it.o
    0x08002516   0x00000066   Code   RO          314    i.SystemClock_Config  main.o
    0x0800257c   0x00000002   Code   RO          584    i.SystemInit        system_stm32f1xx.o
    0x0800257e   0x00000002   PAD
    0x08002580   0x00000010   Code   RO          477    i.TIM3_IRQHandler   stm32f1xx_it.o
    0x08002590   0x00000064   Code   RO         1864    i.TIM_Base_SetConfig  stm32f1xx_hal_tim.o
    0x080025f4   0x00000016   Code   RO         1875    i.TIM_ETR_SetConfig  stm32f1xx_hal_tim.o
    0x0800260a   0x00000012   Code   RO         1876    i.TIM_ITRx_SetConfig  stm32f1xx_hal_tim.o
    0x0800261c   0x00000026   Code   RO         1882    i.TIM_TI1_ConfigInputStage  stm32f1xx_hal_tim.o
    0x08002642   0x00000028   Code   RO         1884    i.TIM_TI2_ConfigInputStage  stm32f1xx_hal_tim.o
    0x0800266a   0x00000014   Code   RO         2795    i.UART_DMAAbortOnError  stm32f1xx_hal_uart.o
    0x0800267e   0x00000036   Code   RO         2805    i.UART_EndRxTransfer  stm32f1xx_hal_uart.o
    0x080026b4   0x00000020   Code   RO         2806    i.UART_EndTransmit_IT  stm32f1xx_hal_uart.o
    0x080026d4   0x000000e4   Code   RO         2808    i.UART_Receive_IT   stm32f1xx_hal_uart.o
    0x080027b8   0x000000fc   Code   RO         2809    i.UART_SetConfig    stm32f1xx_hal_uart.o
    0x080028b4   0x00000046   Code   RO         2811    i.UART_Start_Receive_IT  stm32f1xx_hal_uart.o
    0x080028fa   0x00000060   Code   RO         2812    i.UART_Transmit_IT  stm32f1xx_hal_uart.o
    0x0800295a   0x0000006c   Code   RO         2813    i.UART_WaitOnFlagUntilTimeout  stm32f1xx_hal_uart.o
    0x080029c6   0x00000002   PAD
    0x080029c8   0x00000010   Code   RO          478    i.USART1_IRQHandler  stm32f1xx_it.o
    0x080029d8   0x00000010   Code   RO          479    i.USART2_IRQHandler  stm32f1xx_it.o
    0x080029e8   0x00000004   Code   RO          480    i.UsageFault_Handler  stm32f1xx_it.o
    0x080029ec   0x00000020   Code   RO         3268    i.__0printf$5       mc_w.l(printf5.o)
    0x08002a0c   0x00000010   Code   RO          916    i.__NVIC_GetPriorityGrouping  stm32f1xx_hal_cortex.o
    0x08002a1c   0x00000028   Code   RO          917    i.__NVIC_SetPriority  stm32f1xx_hal_cortex.o
    0x08002a44   0x0000000e   Code   RO         3467    i.__scatterload_copy  mc_w.l(handlers.o)
    0x08002a52   0x00000002   Code   RO         3468    i.__scatterload_null  mc_w.l(handlers.o)
    0x08002a54   0x0000000e   Code   RO         3469    i.__scatterload_zeroinit  mc_w.l(handlers.o)
    0x08002a62   0x00000002   PAD
    0x08002a64   0x000002c0   Code   RO         3275    i._printf_core      mc_w.l(printf5.o)
    0x08002d24   0x00000150   Code   RO          125    i.change_ID         drive.o
    0x08002e74   0x000000a0   Code   RO          387    i.check_data        message.o
    0x08002f14   0x000000fc   Code   RO          126    i.check_drive       drive.o
    0x08003010   0x0000001c   Code   RO          667    i.fputc             usart.o
    0x0800302c   0x00000050   Code   RO         3396    i.free              mc_w.l(malloc.o)
    0x0800307c   0x0000000c   Code   RO          316    i.get_sys_clk       main.o
    0x08003088   0x00000070   Code   RO          127    i.init_myself       drive.o
    0x080030f8   0x00000170   Code   RO          128    i.key_drive_oper    drive.o
    0x08003268   0x00000090   Code   RO          129    i.key_led_Toggle    drive.o
    0x080032f8   0x00000100   Code   RO          130    i.key_scan          drive.o
    0x080033f8   0x00000094   Code   RO          131    i.key_scan_call     drive.o
    0x0800348c   0x00000070   Code   RO          317    i.main              main.o
    0x080034fc   0x0000006c   Code   RO         3397    i.malloc            mc_w.l(malloc.o)
    0x08003568   0x00000034   Code   RO          388    i.message_init      message.o
    0x0800359c   0x00000268   Code   RO          389    i.polling           message.o
    0x08003804   0x0000011c   Code   RO          132    i.report_heartbeat  drive.o
    0x08003920   0x000000b8   Code   RO          390    i.send_message      message.o
    0x080039d8   0x00000028   Code   RO          318    i.uart_drive_init   main.o
    0x08003a00   0x00000018   Data   RO          585    .constdata          system_stm32f1xx.o
    0x08003a18   0x00000020   Data   RO         3465    Region$$Table       anon$$obj.o


    Execution Region RW_IRAM1 (Base: 0x20000000, Size: 0x00002460, Max: 0x00002800, ABSOLUTE)

    Base Addr    Size         Type   Attr      Idx    E Section Name        Object

    0x20000000   0x0000000a   Data   RW          134    .data               drive.o
    0x2000000a   0x00000002   PAD
    0x2000000c   0x0000000c   Data   RW          319    .data               main.o
    0x20000018   0x0000001c   Data   RW          391    .data               message.o
    0x20000034   0x00000004   Data   RW          586    .data               system_stm32f1xx.o
    0x20000038   0x00000004   Data   RW          669    .data               usart.o
    0x2000003c   0x00000009   Data   RW          752    .data               stm32f1xx_hal.o
    0x20000045   0x00000003   PAD
    0x20000048   0x00000004   Data   RW         3444    .data               mc_w.l(mvars.o)
    0x2000004c   0x00000004   Data   RW         3445    .data               mc_w.l(mvars.o)
    0x20000050   0x0000000a   Zero   RW          133    .bss                drive.o
    0x2000005a   0x00000400   Zero   RW          225    .bss                flash.o
    0x2000045a   0x00000002   PAD
    0x2000045c   0x00000048   Zero   RW          623    .bss                tim.o
    0x200004a4   0x00000198   Zero   RW          668    .bss                usart.o
    0x2000063c   0x00000004   PAD
    0x20000640   0x00000020   Zero   RW         1204    .bss                stm32f1xx_hal_flash.o
    0x20000660   0x00000f00   Zero   RW         3118    HEAP                startup_stm32f103x6.o
    0x20001560   0x00000f00   Zero   RW         3117    STACK               startup_stm32f103x6.o


==============================================================================

Image component sizes


      Code (inc. data)   RO Data    RW Data    ZI Data      Debug   Object Name

       100          4          0          0          0     423430   dma.o
      1900        306          0         10         10       5733   drive.o
       488         18          0          0       1024       3425   flash.o
       224         12          0          0          0        923   gpio.o
       476         76          0         12          0       4226   main.o
      1320         86          0         28          0       5062   message.o
        36          8        236          0       7680        744   startup_stm32f103x6.o
       192         36          0          9          0       5397   stm32f1xx_hal.o
       304         22          0          0          0      29263   stm32f1xx_hal_cortex.o
       778         12          0          0          0       3231   stm32f1xx_hal_dma.o
       520         48          0          0         32       4022   stm32f1xx_hal_flash.o
       256         26          0          0          0       2487   stm32f1xx_hal_flash_ex.o
       828         30          0          0          0       3840   stm32f1xx_hal_gpio.o
        84          8          0          0          0        862   stm32f1xx_hal_msp.o
      1784        110          0          0          0       5880   stm32f1xx_hal_rcc.o
      1106         18          0          0          0       8935   stm32f1xx_hal_tim.o
       124         10          0          0          0       2321   stm32f1xx_hal_tim_ex.o
      1844         10          0          0          0      10996   stm32f1xx_hal_uart.o
       146         42          0          0          0       6956   stm32f1xx_it.o
         2          0         24          4          0       1043   system_stm32f1xx.o
       176         18          0          0         72       1558   tim.o
       656         62          0          4        408       4403   usart.o

    ----------------------------------------------------------------------
     13362        962        292         72       9232     534737   Object Totals
         0          0         32          0          0          0   (incl. Generated)
        18          0          0          5          6          0   (incl. Padding)

    ----------------------------------------------------------------------

      Code (inc. data)   RO Data    RW Data    ZI Data      Debug   Library Member Name

         0          0          0          0          0          0   entry.o
         0          0          0          0          0          0   entry10a.o
         0          0          0          0          0          0   entry11a.o
         4          0          0          0          0          0   entry12b.o
         8          4          0          0          0          0   entry2.o
         4          0          0          0          0          0   entry5.o
         0          0          0          0          0          0   entry7b.o
         0          0          0          0          0          0   entry8b.o
         8          4          0          0          0          0   entry9a.o
        30          0          0          0          0          0   handlers.o
        36          8          0          0          0         68   init.o
        30          0          0          0          0         68   llshl.o
        32          0          0          0          0         68   llushr.o
       188         20          0          0          0        160   malloc.o
        36          0          0          0          0         68   memcpya.o
        36          0          0          0          0        108   memseta.o
         0          0          0          8          0          0   mvars.o
       736         54          0          0          0        184   printf5.o
        98          0          0          0          0         92   uldiv.o

    ----------------------------------------------------------------------
      1250         90          0          8          0        816   Library Totals
         4          0          0          0          0          0   (incl. Padding)

    ----------------------------------------------------------------------

      Code (inc. data)   RO Data    RW Data    ZI Data      Debug   Library Name

      1246         90          0          8          0        816   mc_w.l

    ----------------------------------------------------------------------
      1250         90          0          8          0        816   Library Totals

    ----------------------------------------------------------------------

==============================================================================


      Code (inc. data)   RO Data    RW Data    ZI Data      Debug   

     14612       1052        292         80       9232     529621   Grand Totals
     14612       1052        292         80       9232     529621   ELF Image Totals
     14612       1052        292         80          0          0   ROM Totals

==============================================================================

    Total RO  Size (Code + RO Data)                14904 (  14.55kB)
    Total RW  Size (RW Data + ZI Data)              9312 (   9.09kB)
    Total ROM Size (Code + RO Data + RW Data)      14984 (  14.63kB)

==============================================================================

