S315080000006024002005010008DD240008B522000848
S31508000010D924000837020008E92900080000000072
S315080000200000000000000000000000000D25000888
S315080000307D02000800000000E12400080F250008E2
S315080000401F0100081F0100081F0100081F01000802
S315080000501F0100081F0100081F0100081F010008F2
S315080000601F0100081F0100081F0100081F010008E2
S315080000701F0100081F0100083D0200084D02000884
S315080000805D0200086D0200081F0100081F01000834
S315080000901F0100081F0100081F0100081F010008B2
S315080000A01F0100081F0100081F0100081F010008A2
S315080000B01F01000881250008000000001F01000834
S315080000C01F01000800000000000000001F010008D2
S315080000D000000000C9290008D9290008000000000E
S315080000E01F0100081F0100081F010008DFF810D0D3
S315080000F000F080F8004800478D340008AFF3008010
S31508000100602400200648804706480047FEE7FEE7C9
S31508000110FEE7FEE7FEE7FEE7FEE7FEE7FEE7FEE7A9
S315080001207D250008ED000008202A04DB203A21FA84
S3150800013002F00021704721FA02F3D040C2F12002F2
S31508000140914008431946704740EA01039B0703D0CC
S3150800015009E008C9121F08C0042AFAD203E011F8F8
S31508000160013B00F8013B521EF9D27047D2B201E0BA
S3150800017000F8012B491EFBD270470022F6E710B59E
S3150800018013460A4604461946FFF7F0FF204610BDF7
S315080001902DE9F05F0546002092469B4688460646AE
S315080001A0814640241BE02846414647462246FFF73B
S315080001B0BBFF53465A46C01A914110D311461846FA
S315080001C0224600F029F82D1A67EB01084F46224609
S315080001D00120002100F020F817EB00094E41201EEF
S315080001E0A4F10104DFDC484631462A464346BDE809
S315080001F0F09F0000064C074D06E0E06840F001035A
S3150800020094E8070098471034AC42F6D3FFF772FF1C
S31508000210183A0008383A0008202A04DB203A00FA7F
S3150800022002F1002070479140C2F1200320FA03F33F
S3150800023019439040704700BFFEE7000010B502481A
S3150800024000F0E4FA10BD00007005002010B5024861
S3150800025000F0DCFA10BD00002C05002010B502489D
S3150800026000F0D4FA10BD0000B405002010B502480D
S3150800027000F0CCFA10BD0000F8050020704772B6F1
S3150800028000BFFEE70021074AD1610749096941F025
S315080002900401054A11611146096941F040011161DD
S315080002A07047000040060020002002400021074A4F
S315080002B0D1610749096941F00201054A11611146F0
S315080002C04861096941F04001116170474006002004
S315080002D0002002400022054BDA61054A126942F005
S315080002E00102034B1A610180704700004006002096
S315080002F00020024070B504460D46164632462B4687
S3150800030021462DB1B4F1006F02D30E48844201D3C1
S31508000310002070BD04E0086818601B1D091D121F27
S31508000320042A03D30748001F8142F4D904E011F8D0
S31508000330010B03F8010B521E12B102488142F6D393
S31508000340B01AE6E70080000800201E49C96801F0D7
S31508000350100139B11C49C96941F002011A4AD16133
S3150800036040F010001749C96801F0040139B116496F
S31508000370C96941F00101144AD16140F004001149EC
S31508000380C96901F0010169B10F49C96941F0040160
S315080003900D4AD16100BF0B49C96921F00101094A1B
S315080003A0D16100BF00BF40F20111884206D105495C
S315080003B0C96921F00101034AD16101E00149C86018
S315080003C000BF7047002002404006002070B5044672
S315080003D000F0A2FD054609E0601C38B124B100F022
S315080003E09BFD401BA04201D9032070BD1248C0687E
S315080003F000F001000028EFD10F48C06800F0200087
S3150800040020B100BF20200C49C86000BF0A48C06858
S3150800041000F0100048B90848C06900F0010020B98A
S315080004200548C06800F0040018B1FFF78DFF0120E9
S31508000430DBE70020D9E70000002002402DE9F74F4E
S3150800044088B0074690464FF000090026002007901E
S31508000450002406904546DDF824A0B7F1006F08D3BE
S315080004604748874205D8B8F1000F02D0BAF1000F05
S3150800047003D100200BB0BDE8F08F00F097FBA7F181
S31508000480006006900698860A0698C0F3480007900A
S315080004900798C0F50074A54200D82C4666E0202EC1
S315080004A000D365E04FF000090CE03649079801EBE8
S315080004B0400030F819004FF6FF71884200D003E07B
S315080004C009F10109A145F0D300BFA14532D20020A8
S315080004D005908346049000904FF0006000EB86205C
S315080004E0029001200190039004A9684600F0A4FA3E
S315080004F000B13DE04FF0000B09E03AF81B10214A25
S31508000500079802EB400020F81B100BF1010BA345DE
S31508000510F3D34FF0006101EB86208A14194900F0E5
S3150800052033F805900598B0F5007F02D005982D1A86
S315080005301EE00BE022465146384600F025F8834671
S31508000540A34502D0A5EB0B0512E000BF0AEB440A4F
S3150800055007EB44072D1B761C00200790B5F5007F96
S3150800056002D34FF4007000E028460446002D96D1C9
S3150800057000BF00F0B9FAA8EB050040007AE70000D2
S31508000580FE7F00085A0000202DE9F04104460D467A
S3150800059016463746DFF8348012E0444500D911E0A4
S315080005A0B5F800C0624600232146012000F0A6FAED
S315080005B020882988884200D004E07F1EAD1CA41C30
S315080005C0002FEAD100BFF01BBDE8F081FE7F0008CE
S315080005D010B5014646480078012811D145480078EB
S315080005E059280DD14B290BD10220414A1070414898
S315080005F00078414A126810703F480068417072E0FE
S315080006003B480078022806D13B48006881700320E1
S31508000610374A107067E036480078032806D136480E
S315080006200068C1700420324A10705CE030480078D7
S31508000630042806D130480068017105202C4A10703C
S3150800064051E02B480078052806D12B4800684171EF
S315080006500620274A107046E02548007806280DD15E
S315080006602548006881712548018019B90820204A63
S31508000670107038E007201E4A107034E01C480078D5
S31508000680072817D11D48008868B11B480068827979
S315080006901A4803880088401E184C2080D21A16482B
S315080006A00068C01D815415480088E0B90820104A22
S315080006B0107018E00E480078082807D10E48006820
S315080006C080F8071109200A4A10700CE008480078DB
S315080006D0092808D10848006880F808110120084A46
S315080006E01070034A107003480170002010BD000006
S315080006F032000020330000201800002030000020BF
S31508000700200000200146002291F82100022808D086
S315080007100420886300BF002081F8200000BF012064
S3150800072070470868006820F00E000B6818600868B3
S31508000730006820F001000B68186091F8403001202D
S315080007409840CB6B5860012081F8210000BF00203B
S3150800075081F8200000BF1046E2E7000070B50446A5
S31508000760002594F82100022803D00420A06301255F
S3150800077048E02068006820F00E00216808602068BC
S31508000780006820F00100216808601F492068884237
S3150800079001D1012026E01C4914312068884201D184
S315080007A010201FE0184928312068884201D1801599
S315080007B018E015493C312068884201D1801411E0BF
S315080007C0114950312068884202D14FF4803009E03F
S315080007D00D4964312068884202D14FF4801001E047
S315080007E04FF08070084908394860012084F82100D4
S315080007F000BF002084F8200000BF606B10B12046BF
S31508000800616B8847284670BD0800024070B50446EB
S31508000810E06B05682068066894F840100420884054
S315080008202840002846D006F00400002842D0206858
S31508000830006800F0200028B92068006820F004004D
S315080008402168086057492068884201D1042027E0BA
S31508000850544914312068884201D1402020E051498A
S3150800086028312068884201D1001519E04D493C31EC
S315080008702068884202D14FF4804011E0494950313E
S315080008802068884202D14FF4802009E04549643146
S315080008902068884202D14FF4800001E04FF0806062
S315080008A0404908394860E06A00287AD02046E16A5B
S315080008B0884776E094F84010022088402840A0B384
S315080008C006F0020088B32068006800F0200040B9EE
S315080008D02068006820F00A0021680860012084F872
S315080008E0210030492068884201D1022028E02D499C
S315080008F014312068884201D1202021E02949283175
S315080009002068884201D140151AE026493C31206802
S31508000910884202D14FF4005012E022495031206833
S31508000920884203D14FF400300AE017E01D496431CC
S315080009302068884202D14FF4001001E04FF00070A1
S3150800094018490839486000BF002084F8200000BF15
S31508000950A06A30B32046A16A884722E094F840107E
S31508000960082088402840E0B106F00800C8B1206891
S31508000970006820F00E002168086094F840100120F5
S315080009808840E16B48600120A06384F8210000BF1D
S31508000990002084F8200000BF206B10B12046216B90
S315080009A0884770BD080002400146002209B90120A7
S315080009B07047164B0868C01A1423B0FBF3F0800082
S315080009C0086412480838C863022081F821000868BC
S315080009D0026843F6F0708243D1E901031843CB68F5
S315080009E018430B6918434B6918438B691843CB693D
S315080009F0184302430868026000208863012081F8D2
S31508000A002100002081F8200000BFD1E7080002403D
S31508000A1070B5044600F080FA06462546681C10B1F3
S31508000A2004480078054400BF00F076FA801BA84207
S31508000A30FAD370BD440000202DE9F04104460E4665
S31508000A400127002500BF2648007E012802D1022082
S31508000A50BDE8F08101202249087600BF20680228F7
S31508000A6013D14CF25030FFF7B1FC90BB0120FFF7D1
S31508000A7009FC4CF25030FFF7A9FC074619480069F3
S31508000A8020F004001749086123E04CF25030FFF7C4
S31508000A909DFCF0B94FF0FF303060A56812E028469B
S31508000AA0FFF704FC4CF25030FFF790FC07460D4860
S31508000AB0006920F002000B4908610FB1356007E0B4
S31508000AC005F58065D4E9021001EB8020A842E6D836
S31508000AD000BF00BF00200249087600BF3846B7E7C6
S31508000AE040060020002002400348006940F08000CC
S31508000AF00149086100207047002002402DE9FE4F99
S31508000B0005468B4617469846012600240020029083
S31508000B1000BF2448007E012802D10220BDE8FE8FCE
S31508000B2001202049087600BF4CF25030FFF74EFCF2
S31508000B30064686BB012D02D10120029006E0022D51
S31508000B4002D10220029001E00420029000241EE057
S31508000B502201B946C24648465146FFF7E5FA80B231
S31508000B600190022000FB04B000900199FFF7B2FB48
S31508000B704CF25030FFF72AFC06460B48006920F075
S31508000B8001000949086106B104E0601CC4B2029874
S31508000B908442DDDB00BF00BF00200249087600BFA3
S31508000BA03046BBE7400600200020024000200849E6
S31508000BB0096901F0800151B10649054A51600649A3
S31508000BC051601146096901F0800101B101207047A1
S31508000BD00020024023016745AB89EFCD2DE9F84790
S31508000BE003460022944666E14FF0010808FA02F42B
S31508000BF0D1F8008008EA0400A0427DD1DFF8CCA233
S31508000C00D1F80480A8EB0A09D0453AD014DCB8F12B
S31508000C10030F50D009DCB8F1000F31D0B8F1010F3D
S31508000C201CD0B8F1020F49D120E0B8F1110F18D045
S31508000C30B8F1120F42D11EE0B9F5881F25D006DC9F
S31508000C40B9F5803F20D0B9F5801F37D11AE0B9F53C
S31508000C50001F18D0B9F5041F30D117E0D1F80CC021
S31508000C602DE0D1F80C8008F1040C28E0D1F80C80AE
S31508000C7008F1080C23E0D1F80C8008F10C0C1EE0F2
S31508000C8000BF00BF00BF00BF00BF00BFD1F808808B
S31508000C90B8F1000F02D14FF0040C0BE0D1F8088030
S31508000CA0B8F1010F03D14FF0080C1C6102E04FF0B8
S31508000CB0080C5C6103E04FF0000C00E000BF00BFC9
S31508000CC0FF2801D8984601E003F104084646FF28A4
S31508000CD002D84FEA820803E0A2F108084FEA88081A
S31508000CE04746D6F800804FF00F0909FA07F928EAAF
S31508000CF009080CFA07F900E085E048EA0908C6F889
S31508000D000080D1F8048008F08058B8F1805F7AD165
S31508000D1000BFDFF8BC81D8F8188048F00108DFF872
S31508000D20B091C9F81880C846D8F8188008F00108A4
S31508000D30CDF8008000BF00BF4FEAB9384FEA9209E4
S31508000D4058F829504FEA82784FEA18794FF00F0879
S31508000D5008FA09F825EA0805DFF87881434502D13B
S31508000D604FF000080FE0DFF87081434502D14FF0DD
S31508000D70010808E0DFF86481434502D14FF0020814
S31508000D8001E04FF003084FEA82794FEA197908FA29
S31508000D9009F848EA0505DFF848814FEA920948F854
S31508000DA02950D1F8048008F48038B8F5803F0AD174
S31508000DB0DFF83081D8F8008048EA0008DFF8249187
S31508000DC0C9F8008009E0DFF81C81D8F8008028EA15
S31508000DD00008DFF81091C9F80080D1F8048008F4FB
S31508000DE00038B8F5003F0FD1DFF8F88008F104089D
S31508000DF0D8F8008048EA0008DFF8E89009F1040905
S31508000E00C9F800800EE055E0DFF8D88008F104083C
S31508000E10D8F8008028EA0008DFF8C89009F1040924
S31508000E20C9F80080D1F8048008F48018B8F5801F46
S31508000E300ED1DFF8B08008F10808D8F8008048EA33
S31508000E400008DFF8A09009F10809C9F800800DE04C
S31508000E50DFF8908008F10808D8F8008028EA00082A
S31508000E60DFF8809009F10809C9F80080D1F80480F4
S31508000E7008F40018B8F5001F0ED1DFF8688008F1ED
S31508000E800C08D8F8008048EA0008DFF8589009F1FD
S31508000E900C09C9F800800DE0DFF8488008F10C0855
S31508000EA0D8F8008028EA0008DFF8389009F10C091C
S31508000EB0C9F80080521CD1F8008028FA02F8B8F167
S31508000EC0000F7FF491AEBDE8F8870000000011100E
S31508000ED00010024000080140000C014000100140CB
S31508000EE00800014000040140024693680B400BB11C
S31508000EF0012000E00020704710B5C26821EA02030D
S31508000F0002EA010443EA0443036110BD0AB1016120
S31508000F1001E00B0403617047014800687047000050
S31508000F203C00002003480068034909780844014941
S31508000F30086070473C0000204400002010B50848AF
S31508000F40006840F0100006490860032000F0A8F881
S31508000F50002000F007F800F02BF8002010BD000074
S31508000F600020024070B504460E4800784FF47A71A6
S31508000F70B1FBF0F00C490968B1FBF0F5284600F022
S31508000F800BFC08B1012070BD102C07D200222146A7
S31508000F90501E00F047F80548046001E00120F2E71A
S31508000FA00020F0E744000020340000204000002024
S31508000FB008B500BF1148806940F001000F498861F3
S31508000FC00846806900F00100009000BF00BF00BF1E
S31508000FD00846C06940F08050C8610846C06900F0FC
S31508000FE08050009000BF00BF00BF0549486820F048
S31508000FF0E06040F00070486000BF08BD0010024085
S315080010000000014001460846002809DB00F01F03DE
S3150800101001229A4043099B0003F1E023C3F800210B
S3150800102000BF70472DE9F05F80460D46164600273B
S3150800103001F0ECFC074639462A46334601F007001C
S31508001040C0F1070ABAF1040F02D94FF0040A01E009
S31508001050C0F1070AD14600F1040ABAF1070F02D215
S315080010604FF0000A01E0A0F1030AD4464FF0010A46
S315080010700AFA09FAAAF1010A0AEA020A0AFA0CFAAB
S315080010804FF0010B0BFA0CFBABF1010B0BEA030B50
S315080010904AEA0B042146404601F0C0FCBDE8F09F31
S315080010A000BF00F00702064B19684FF6FF03194008
S315080010B0044B0B4343EA0221014B196000BF7047FA
S315080010C00CED00E00000FA0570B504460D460CB9B3
S315080010D0012070BD5A48006800F00700A8420ED2E9
S315080010E05748006820F00700284355490860084615
S315080010F0006800F00700A84201D00120E9E720783F
S3150800110000F0020002281DD1207800F0040004280F
S3150800111005D14C48406840F4E0604A494860207868
S3150800112000F00800082805D14648406840F4605099
S31508001130444948604348406820F0F000A1680843E5
S3150800114040494860207800F0010078B360680128BB
S3150800115006D13C48006800F4003090B90120B8E791
S315080011606068022806D13748006800F0007040B968
S315080011700120AEE73348006800F0020008B90120F4
S31508001180A7E73048406820F00300616808432D4906
S315080011904860FFF7C1FE064609E0FFF7BDFE801B63
S315080011A041F28831884202D9032092E707E02548B0
S315080011B0406800F00C006168B0EB810FEDD1204863
S315080011C0006800F00700A8420ED91D48006820F004
S315080011D0070028431A4908600846006800F0070017
S315080011E0A84201D0012074E7207800F00400042802
S315080011F007D11448406820F4E060E16808431149C3
S315080012004860207800F00800082808D10D48406892
S3150800121020F46050216940EAC1000A49486000F09C
S315080012203FF808494968C1F30311074A515CC840A9
S315080012300649086006480068FFF794FE002048E75C
S315080012400020024000100240003A00083400002046
S315080012504000002001480068704700003400002064
S3150800126000B5FFF7F7FF04494968C1F30221034AAD
S31508001270515CC84000BD000000100240103A00084A
S3150800128000B5FFF7E7FF04494968C1F3C221034ADD
S31508001290515CC84000BD000000100240103A00082A
S315080012A0F0B585B00FF26C0C9CE8E01001A8A0E838
S315080012B0E0101CA52D6800950021002200230024BB
S315080012C00020194D696801F00C05F5B1042D02D00E
S315080012D0082D19D101E0154819E001ADC1F383467F
S315080012E0AC5D01F4803555B10F4D6D68C5F34045C9
S315080012F01DF805200D4D6543B5FBF2F302E00C4DD4
S3150800130004FB05F3184602E000BF084800BF00BF0B
S3150800131005B0F0BD02030405060708090A0B0C0D03
S315080013200E0F1010010200000010024000127A0091
S3150800133000093D00F8B504460CB90120F8BD20782F
S3150800134000F00100002878D0F848406800F00C004A
S3150800135004280CD0F548406800F00C00082811D184
S31508001360F248406800F48030B0F5803F0AD1EF4873
S31508001370006800F4003000285FD0606800285CD15F
S315080013800120DBE700BF6068B0F5803F06D1E7487B
S31508001390006840F48030E549086028E0606858B97C
S315080013A0E248006820F48030E04908600846006892
S315080013B020F4802008601AE06068B0F5A02F0BD1F1
S315080013C0DA48006840F48020D84908600846006872
S315080013D040F4803008600AE0D448006820F4803081
S315080013E0D24908600846006820F48020086000BFDB
S315080013F0606888B1FFF790FD054606E0FFF78CFDAB
S31508001400401B642801D9032098E7C848006800F4FF
S3150800141000300028F2D010E0FFF77EFD054606E012
S31508001420FFF77AFD401B642801D9032086E7BF48E9
S31508001430006800F400300028F2D1207800F002009D
S31508001440022857D1B948406800F00C0050B1B74897
S31508001450406800F00C00082818D1B448406800F429
S31508001460803098B9B148006800F0020020B12069C0
S31508001470012801D0012061E7AC48006820F0F80097
S31508001480616940EAC100A949086033E02069E8B10A
S315080014900120A7490860FFF73FFD054606E0FFF76C
S315080014A03BFD401B022801D9032047E79F480068F7
S315080014B000F002000028F2D09C48006820F0F800EE
S315080014C0616940EAC1009949086013E0002098491B
S315080014D00860FFF721FD054606E0FFF71DFD401BE6
S315080014E0022801D9032029E79048006800F0020085
S315080014F00028F2D1207800F0080008282DD1A0692C
S31508001500B8B101208B490860FFF706FD054606E0DD
S31508001510FFF702FD401B022801D903200EE7834886
S31508001520406A00F002000028F2D0012000F0DAFF3D
S3150800153013E000207F490860FFF7EEFC054606E049
S31508001540FFF7EAFC401B022801D90320F6E6774894
S31508001550406A00F002000028F2D1207800F004006A
S31508001560042873D100277148C06900F0805070B90B
S3150800157000BF6E48C06940F080506C49C861084693
S31508001580C06900F08050009000BF00BF01276A487C
S31508001590006800F48070B0B96748006840F480704D
S315080015A065490860FFF7B8FC054606E0FFF7B4FC96
S315080015B0401B642801D90320C0E65F48006800F490
S315080015C080700028F2D000BFE068012806D157488D
S315080015D0006A40F001005549086227E0E06858B9FA
S315080015E05248006A20F00100504908620846006A1D
S315080015F020F00400086219E0E06805280BD14B4882
S31508001600006A40F00400494908620846006A40F04A
S31508001610010008620AE04548006A20F001004349D3
S3150800162008620846006A20F00400086200BFE06805
S31508001630A0B1FFF771FC054609E0FFF76DFC401BFA
S3150800164041F28831884202D9032077E622E03748FA
S31508001650006A00F002000028EFD012E0FFF75CFCF9
S31508001660054608E0FFF758FC401B41F288318842DE
S3150800167001D9032062E62D48006A00F0020000281E
S31508001680F0D1012F05D12948C06920F0805027499B
S31508001690C86100BFE069C8B32448406800F00C0080
S315080016A0082860D0E069022848D100202049086649
S315080016B0FFF732FC054606E0FFF72EFC401B022822
S315080016C001D903203AE61948006800F0007000289E
S315080016D0F2D1206AB0F5803F07D11448406820F45B
S315080016E00030A168084311494860D4E90801084355
S315080016F00E49496821F4741108430C4948600120D1
S315080017000B490866FFF708FC054607E03DE0FFF7CA
S3150800171003FC401B022801D903200FE60348006892
S3150800172000F000700028F2D02FE000000010024000
S3150800173000004242800442420070004000201449E2
S315080017400866FFF7E9FB054606E0FFF7E5FB401BE1
S31508001750022801D90320F1E50E48006800F0007060
S315080017600028F2D111E0E069012800D1E6E5094830
S31508001770466806F48031206A814204D106F4701165
S31508001780606A814201D00120D8E50020D6E5000034
S31508001790000042420010024070B504462546681E05
S315080017A0B0F1807F01D301200FE0681E4FF0E021E1
S315080017B048610F214FF0FF3001F030F900204FF05B
S315080017C0E021886107200861002070BD70477047D6
S315080017D030B502460B4600BF92F83C00012801D1FD
S315080017E0022030BD012082F83C0000BF022082F8AA
S315080017F03D00106844681068816824F07004186811
S315080018000443106844600E4D1068A84207D010685B
S31508001810B0F1804F03D00B4D1068A84205D121F0D6
S3150800182080015868014310688160012082F83D00F4
S3150800183000BF002082F83C0000BF00BFD1E70000CF
S31508001840002C01400004004010B504460CB90120E4
S3150800185010BD94F83D0028B9002084F83C002046C5
S3150800186000F026F8022084F83D00211D206800F0CB
S315080018708FFE012084F8460000BF84F83E0001214F
S315080018803F200155402001554120015500BF00BFAA
S31508001890012084F842004320015544200155452083
S315080018A0015500BF012084F83D000020D0E7000064
S315080018B038B504460D492068884215D100BF0C4842
S315080018C0C06940F002000A49C8610846C06900F0CC
S315080018D00200009000BF00BF002211461D20FFF73E
S315080018E0A1FB1D20FFF78EFB38BD00000004004059
S315080018F000100240014691F83D00012801D0012060
S315080019007047022081F83D000868C06840F0010071
S315080019100B68D860104B0868984207D00868B0F181
S31508001920804F03D00D4B086898420CD10868806830
S3150800193000F00702062A0CD00868006840F001008B
S315080019400B68186005E00868006840F001000B683D
S3150800195018600020D4E70000002C01400004004075
S315080019602DE9F04104460D4600BF94F83C000128D5
S3150800197002D10220BDE8F081012084F83C0000BFB6
S31508001980022084F83D002068866826F0770626F44B
S315080019907F46206886602868502833D00CDC2028CB
S315080019A050D004DC00284BD0102851D149E030280B
S315080019B049D040284CD139E060282DD0702807D06E
S315080019C0B0F5805F03D0B0F5005F41D10DE040E08F
S315080019D0D5E902136A68206800F00CFE206886685C
S315080019E046F077062068866033E0D5E902136A6810
S315080019F0206800F0FFFD2068806840F48040216878
S31508001A00886026E0EA686968206800F007FE5021C9
S31508001A10206800F0FAFD1CE0EA686968206800F0B2
S31508001A2010FE6021206800F0F0FD12E0EA6869689F
S31508001A30206800F0F3FD4021206800F0E6FD08E08C
S31508001A4000BF00BF00BF2968206800F0DEFD00E087
S31508001A5000BF00BF012084F83D0000BF002084F8C5
S31508001A603C0000BF00BF85E7704710B504462068F4
S31508001A700069C0F34000D8B12068C068C0F34000D0
S31508001A80B0B16FF002002168086101202077206854
S31508001A90806900F0030018B12046FFF7E5FF05E06E
S31508001AA0204600F0ADF8204600F0ABF8002020777D
S31508001AB020680069C0F38000D8B12068C068C0F308
S31508001AC08000B0B16FF00400216808610220207719
S31508001AD02068806900F4407018B12046FFF7C4FFFB
S31508001AE005E0204600F08CF8204600F08AF8002031
S31508001AF0207720680069C0F3C000D8B12068C068A4
S31508001B00C0F3C000B0B16FF0080021680861042076
S31508001B1020772068C06900F0030018B12046FFF757
S31508001B20A3FF05E0204600F06BF8204600F069F8B0
S31508001B300020207720680069C0F30010D8B120681B
S31508001B40C068C0F30010B0B16FF0100021680861DA
S31508001B50082020772068C06900F4407018B1204634
S31508001B60FFF782FF05E0204600F04AF8204600F01D
S31508001B7048F8002020772068006900F0010058B175
S31508001B802068C06800F0010030B16FF001002168DC
S31508001B900861204600F036F820680069C0F3C010D6
S31508001BA058B12068C068C0F3C01030B16FF080002B
S31508001BB0216808612046FFF709FE20680069C0F31E
S31508001BC0801058B12068C068C0F3801030B16FF03B
S31508001BD0400021680861204600F052F82068006934
S31508001BE0C0F3401058B12068C068C0F3401030B147
S31508001BF06FF02000216808612046FFF7E8FD10BD58
S31508001C0070477047194A0168126891422DD11849E0
S31508001C100988642291FBF2F302FB131101BB1549F3
S31508001C200978C943134A117013490968491C124AAD
S31508001C3011600F49098842F21072914209D10021B8
S31508001C400B4A11800D490978012902D102210B4A54
S31508001C5011700A490978012902D00021044A118025
S31508001C6003490988491C024A118070475C04002010
S31508001C70160000200E000020100000200F00002093
S31508001C8070477047704700002DE9F84F04462068F2
S31508001C9005682068C668206847694FF00009CA4683
S31508001CA005F00F09B9F1000F0AD105F0200038B187
S31508001CB006F0200020B1204600F00CFDBDE8F88FA4
S31508001CC0B9F1000F71D007F0010018B906F4907049
S31508001CD000286AD005F0010030B106F4807018B10A
S31508001CE0206C40F00100206405F0040030B107F0D4
S31508001CF0010018B1206C40F00200206405F00200D3
S31508001D0030B107F0010018B1206C40F004002064DF
S31508001D1005F0080048B106F0200010B907F00100E8
S31508001D2018B1206C40F008002064206C68B305F0F8
S31508001D30200028B106F0200010B1204600F0CAFCA9
S31508001D4020684069C0F3801A206C00F0080010B9BA
S31508001D50BAF1000F22D0204600F091FC20684069B5
S31508001D6000F04000B0B12068406920F040002168CA
S31508001D704861A06B50B15648A16B4863A06BFEF74B
S31508001D80EDFC10B1A06B416B88470CE02046FFF7CD
S31508001D9079FF08E02046FFF775FF04E02046FFF7C5
S31508001DA071FF0020206489E7FFE7206B012878D1BE
S31508001DB005F01000002874D006F01000002870D036
S31508001DC000BF0020009020680068009020684068E6
S31508001DD0009000BF00BF2068406900F04000C0B313
S31508001DE0A06B006840681FFA80F8B8F1000F2FD082
S31508001DF0A08D40452CDDA4F82E80A06B8069202894
S31508001E001FD02068C06820F480702168C8602068E8
S31508001E10406920F00100216848612068406920F087
S31508001E20400021684861202084F83E000020206395
S31508001E302068C06820F010002168C860A06BFEF713
S31508001E4061FCA08DE28D801A81B22046FFF719FF4A
S31508001E5034E7FFE7A08DE18D401A1FFA80F8E08D80
S31508001E60E8B1B8F1000F1AD02068C06820F4907065
S31508001E702168C8602068406920F00100216848612F
S31508001E80202084F83E00002020632068C06820F0E7
S31508001E9010002168C86041462046FFF7F2FE0DE7AC
S31508001EA0FFE705F0800030B106F0800018B1204643
S31508001EB000F023FD02E705F0400030B106F04000CF
S31508001EC018B1204600F0F6FBF8E600BFF6E600007B
S31508001ED06B26000810B504460CB9012010BDA06990
S31508001EE000B100E000BF94F83D0028B9002084F84E
S31508001EF03C00204600F028F8242084F83D0020689D
S31508001F00C06820F400502168C860204600F054FCE0
S31508001F102068006920F490402168086120684069BB
S31508001F2020F02A00216848612068C06840F4005003
S31508001F302168C86000202064202084F83D0084F8C9
S31508001F403E000020CAE7000010B586B0044600200F
S31508001F5002900390049005907349206888426FD1D7
S31508001F6000BF7248806940F480407049886108461D
S31508001F70806900F48040019000BF00BF00BF08469A
S31508001F80806940F0040088610846806900F0040012
S31508001F90019000BF00BF481502900220039003205D
S31508001FA0059002A96248FEF719FE4FF48060029078
S31508001FB000200390049002A95D48FEF70FFE5D48D5
S31508001FC05D4908600020486000215B4881608021E7
S31508001FD0C160002101614161202181610902C1615D
S31508001FE0FEF7E2FC08B1FEF74AF900BF5248A063C3
S31508001FF0446200BF4F4814385049086010204860B2
S3150800200000214E4881608021C16000210161416143
S3150800201081614FF40051C161FEF7C6FC08B1FEF7B5
S315080020202EF900BF45486063446200BF002211468E
S315080020302520FEF7F7FF2520FEF7E4FF72E0FFE70D
S315080020403F49206888426DD100BF3848C06940F4CE
S3150800205000303649C8610846C06900F4003001906E
S3150800206000BF00BF00BF0846806940F004008861D1
S315080020700846806900F00400019000BF00BF0420F4
S315080020800290022003900320059002A92848FEF733
S31508002090A5FD0820029000200390049002A9244878
S315080020A0FEF79CFD23481430264908600020486046
S315080020B00021244881608021C160002101614161BD
S315080020C0202181610902C161FEF76EFC08B1FEF7A5
S315080020D0D6F800BF1B48A063446200BF15482830E5
S315080020E0194908601020486000211748816080213E
S315080020F0C16000210161416181614FF40051C161F4
S31508002100FEF752FC08B1FEF7BAF800BF0E48606346
S31508002110446200BF002211462620FEF783FF2620D0
S31508002120FEF770FF06B010BD0038014000100240EF
S3150800213000080140580002402C05002070050020C8
S3150800214000440040B4050020F805002070B5044698
S315080021500D46164694F83E00202816D105B10EB94C
S31508002160012070BD00BF94F83C00012801D102206F
S31508002170F7E7012084F83C0000BF002020633246C0
S315080021802946204600F096FBEBE70220E9E7000027
S3150800219010B504460D492068884208D10C490878CC
S315080021A0FEF716FA01220A490A48FFF7CFFF0A493D
S315080021B02068884209D106494878FEF709FA0122BB
S315080021C00349491C0548FFF7C1FF10BD0038014007
S315080021D00C000020A404002000440040E80400206D
S315080021E02DE9F84F04460E46174699464FF0000A61
S315080021F094F83D0020285AD106B117B90120BDE848
S31508002200F88F00BF94F83C00012801D10220F6E7B8
S31508002210012084F83C0000BF00202064212084F8B7
S315080022203D00FEF779FE8246A784E784A068B0F5EC
S31508002230805F04D1206910B90025B04602E0354612
S315080022404FF0000800BF002084F83C0000BF1BE0E8
S315080022505346002280212046CDF8009000F07DFBF1
S3150800226008B10320CBE745B9B8F80000C0F3080069
S315080022702168486008F1020803E028782168486068
S315080022806D1CE08C401EE084E08C0028E0D15346AB
S31508002290002240212046CDF8009000F05EFB08B1F0
S315080022A00320ACE7202084F83D000020A7E70220A1
S315080022B0A5E7704700BFFEE708B500BF16484069A6
S315080022C040F00100144948610846406900F00100E1
S315080022D0009000BF00BF002211460E20FEF7A2FEA6
S315080022E00E20FEF78FFE002211460F20FEF79AFEFB
S315080022F00F20FEF787FE002211461020FEF792FEF9
S315080023001020FEF77FFE002211461120FEF78AFEF6
S315080023101120FEF777FE08BD0010024000B585B013
S315080023200020019002900390049000BF3048806915
S3150800233040F020002E4988610846806900F0200098
S31508002340009000BF00BF00BF0846806940F0040047
S3150800235088610846806900F00400009000BF00BF4D
S3150800236000BF0846806940F0080088610846806911
S3150800237000F00800009000BF00BF00224FF418418B
S315080023801C48FEF7C3FD00224FF47E711A48FEF77B
S31508002390BDFDF020019000200290039001A9154888
S315080023A0FEF71CFC4FF47C4001900020029003903D
S315080023B001A91148FEF712FC4FF4184001900120BC
S315080023C00290002003900320049001A90948FEF713
S315080023D005FC4FF47E7001900120029000200390C6
S315080023E00320049001A90448FEF7F8FB05B000BDD8
S315080023F00010024000080140000C014000B587B0FB
S3150800240000200390049005900690019002901448CD
S31508002410144908604720486000211248816040F24C
S31508002420E731C160002101618161FFF70DFA08B14A
S31508002430FDF725FF4FF48050039003A90948FFF7DD
S315080024408FFA08B1FDF71BFF00200190029001A941
S315080024500448FFF7BDF908B1FDF711FF07B000BD45
S31508002460000400405C04002010B50B480B490860C6
S315080024704FF4E1304860002108488160C16001617D
S315080024800C21416100218161C161FFF723FD08B17B
S31508002490FDF7F5FE10BD000000380140A404002039
S315080024A010B50B480B4908604FF4E130486000212D
S315080024B008488160C16001610C2141610021816188
S315080024C0C161FFF707FD08B1FDF7D9FE10BD000091
S315080024D000440040E804002000BFFEE700BFFEE716
S315080024E07047000008B508490968C9084FF47A72A8
S315080024F0B1FBF2F14143009100BF00BF00994A1EAB
S3150800250000920029F9D108BD34000020704710B5A3
S31508002510FEF708FD10BD00B58FB0282105A8FDF708
S315080025202CFE14216846FDF728FE012005900004BC
S315080025300690002007900120099002200C90C10304
S315080025400D914FF4E0110E9105A8FEF7F3FE08B1C0
S31508002550FDF795FE0F2000900220019000200290C2
S315080025604FF4806003900020049002216846FEF72D
S31508002570ABFD08B1FDF783FE0FB000BD7047000044
S3150800258010B50248FFF771FA10BD00005C04002080
S3150800259010B50268154B984205D0B0F1804F02D0AD
S315080025A0134B984203D122F070024B681A430F4B23
S315080025B0984205D0B0F1804F02D00D4B984203D116
S315080025C022F44072CB681A4322F080034C6943EA2E
S315080025D0040202608B68C3620B688362034B9842ED
S315080025E001D10B6903630123436110BD002C01402F
S315080025F00004004030B50C46816821F47F4142EA68
S31508002600032525432943816030BD0A46816821F0A8
S31508002610700142F0070319438160704730B50B46D5
S315080026201446026A056A25F001050562816921F0EA
S31508002630F00141EA041122F00A021A43816102629A
S3150800264030BD30B50B461446056A25F010050562FF
S315080026508169026A21F4704141EA043122F0A0023C
S3150800266042EA03128161026230BD70B505466C6AA2
S315080026700020E085E0842046FFF704FB70BD016872
S31508002680C96821F490710268D1600168496921F02E
S31508002690010102685161016B012905D10168C96808
S315080026A021F010010268D160202180F83E10002137
S315080026B00163704710B504462068C06820F04000E2
S315080026C02168C860202084F83D002046FFF7F1FD08
S315080026D0002010BDF8B5044694F83E00222869D1BA
S315080026E0A068B0F5805F0CD1206950B90025A66AAC
S315080026F020684068C0F308003080A06A801CA06289
S3150800270015E0A56A0026A068B0F5805F03D0A0682A
S3150800271028B9206918B920684068287004E020683C
S31508002720406800F07F002870A06A401CA062E08D17
S31508002730401E80B2E085A8BB2068C06820F0200053
S315080027402168C8602068C06820F480702168C86065
S315080027502068406920F0010021684861202084F83B
S315080027603E00206B01281ED1002020632068C06827
S3150800277020F010002168C8602068006800F010008A
S3150800278010280AD100BF0020009020680068009039
S3150800279020684068009000BF00BFA18D2046FFF763
S315080027A070FA03E004E02046FFF7F2FC0020F8BDCB
S315080027B00020FCE70220FAE770B50446216809699B
S315080027C021F44051E2681143226811612269A16827
S315080027D01143626941EA02052168C96841F20C623F
S315080027E0914329432268D1602168496921F44071DF
S315080027F0A2691143226851612D4A2168914202D18A
S31508002800FEF73EFD01E0FEF72BFD00EBC00101EBF4
S31508002810001162689200B1FBF2F100EBC00202EB14
S31508002820001263689B00B2FBF3F26423B2FBF3F277
S3150800283002EBC20303EB0212A1EB8201322202EB86
S3150800284001116422B1FBF2F101F0F00100EBC002C4
S3150800285002EB001263689B00B2FBF3F26423B2FB3F
S31508002860F3F201EB021200EBC00101EB0011636801
S315080028709B00B1FBF3F100EBC00303EB00136668A2
S31508002880B600B3FBF6F36426B3FBF6F303EBC30615
S3150800289006EB0313A1EB8301322303EB0111642337
S315080028A0B1FBF3F101F00F0111442268916070BD8C
S315080028B00038014010B5034699629A85DA850020EA
S315080028C01864222083F83E0000BF002083F83C00ED
S315080028D000BF1868C06840F480701C68E06018681B
S315080028E0406940F001001C6860611868C06840F0E3
S315080028F020001C68E060002010BD014691F83D00EC
S31508002900212828D18868B0F5805F0BD1086948B9B5
S315080029100A6A1088C0F308000B685860086A801CA9
S31508002920086205E00B6A581C086218780B6858603C
S31508002930C88C401E80B2C88458B90868C06820F0A0
S3150800294080000B68D8600868C06840F040000B68D3
S31508002950D860002070470220FCE72DE9F0410446C4
S315080029600D4617469846069E21E0701CF8B12EB112
S31508002970FEF7D2FAA0EB0800B04218D92068C06862
S3150800298020F4D0702168C8602068406920F00100F2
S3150800299021684861202084F83D0084F83E0000BF85
S315080029A0002084F83C0000BF0320BDE8F0812068C1
S315080029B000682840A84201D1012000E00020B84262
S315080029C0D3D00020F1E7000010B50248FFF75CF904
S315080029D010BD0000A404002010B50248FFF754F902
S315080029E010BD0000E804002000BFFEE70FB4054B49
S315080029F010B503A9044A029800F034F810BC5DF833
S31508002A0014FB000011300008380000200248006856
S31508002A10C0F30220704700000CED00E010B5002856
S31508002A2004DB0A07130E054A135406E00A07140EB8
S31508002A30034A00F00F031B1FD45410BD00E400E046
S31508002A4018ED00E002E008C8121F08C1002AFAD1F2
S31508002A5070477047002001E001C1121F002AFBD110
S31508002A60704700002DE9FF4F8DB09B460F46044680
S31508002A70002606E025280BD05A460F999047641C75
S31508002A80761C20780028F5D111B03046BDE8F08FC5
S31508002A900025A8460122984900E0054314F8013F9D
S31508002AA0203B02FA03F00842F7D120782E2817D1E6
S31508002AB014F8010F45F004052A280ED06FF02F02EE
S31508002AC02078A0F1300109290AD808EB880102EB21
S31508002AD0410100EB0108641CF2E757F8048B641CFB
S31508002AE020786C280DD004DC4C2812D06A2811D125
S31508002AF004E074280DD07A280CD10AE045F40015B4
S31508002B0007E0617845F48015814202D1641C05F519
S31508002B108015641C2078692844D008DC0028B3D0C6
S31508002B20582867D063280FD0642808D13AE070285F
S31508002B3065D0732812D075285AD078285AD05A46A4
S31508002B400F999047761CD5E017F8040B8DF800000E
S31508002B5000208DF80100E946012003E057F8049BA0
S31508002B604FF0FF3069074FF0000501D40AE06D1CED
S31508002B7045450DDA8542FADB19F805100029F6D124
S31508002B8006E06D1C8542FCDB19F805100029F8D112
S31508002B902E4404E019F8010B5A460F9990476D1E0A
S31508002BA0F8D2A7E00A200021CDE90801C5F30250B2
S31508002BB002280CD001CFC117021E71F100020CDAEF
S31508002BC00023D0EB030063EB01012D2208E0FF1D73
S31508002BD027F00707F7E80201EEE72A0504D52B22B6
S31508002BE08DF8282001223CE0EA073AD02022F7E7B0
S31508002BF00A2000E010200021CDE9080107E0102096
S31508002C00002145F00405CDE908014FF00808C5F391
S31508002C100250022810D001CF00214FF0000A2A07DF
S31508002C2020D52278702A0DD0DDE908C38CF0100C67
S31508002C305CEA030C0CD015E0FF1D27F00707F7E840
S31508002C400201EAE740228DF828204FF0010A0CE03D
S31508002C5050EA010306D030238DF828308DF8292054
S31508002C60022292462278582A04D024A20DF120097D
S31508002C700B9209E026A2F9E7DDE90823FDF788FAB1
S31508002C800B9B9B5C09F8013D50EA0102F4D1ADEBC0
S31508002C90090020300890680701D44FF00108089908
S31508002CA0884503DD0898A8EB000000E00020804670
S31508002CB0002506E00AA85A46405D0F9990476D1C04
S31508002CC0761C5545F6DB04E030205A460F999047A6
S31508002CD0761CB8F10001A8F10108F5DC05E019F841
S31508002CE0010B5A460F999047761C0899481E08907A
S31508002CF00029F4DC641CC4E60928010030313233AB
S31508002D003435363738396162636465660000000019
S31508002D103031323334353637383941424344454603
S31508002D200000000013B50446012C1DD19DF80400CF
S31508002D30052814DC9DF80400002810DD012201A9ED
S31508002D402648FDF77BFB9DF804002549096848706D
S31508002D509DF8041023A0FFF749FE00201CBD28A0FB
S31508002D60FFF744FE0220F9E7022C35D19DF804004E
S31508002D70052817DA9DF80400002813DD012201A9A9
S31508002D801648FDF75BFB9DF804001549096848706D
S31508002D909DF804101FA0FFF729FE01202749087097
S31508002DA00620DBE79DF80400052810D1012201A9B9
S31508002DB00A48FDF743FB9DF804000949096848706D
S31508002DC09DF804101EA0FFF711FE0020C6E70CA010
S31508002DD0FFF70CFE0220C1E70220BFE7007C0008CF
S31508002DE0040000206368616E676520696420746F5B
S31508002DF0203078257820737563636573730D0A0030
S31508002E006368616E6765206964206661696C200D78
S31508002E100A0000006368616E676520616C6C206F4C
S31508002E2066206D6520696420746F203078257820C7
S31508002E30737563636573730D0A0000000F00002045
S31508002E406368616E676520696420746F2030782531
S31508002E5078207375636365737320616E6420636895
S31508002E60616E676520616C6C207375636365737347
S31508002E700D0A000070B5044600250026002006E06D
S31508002E80215C2944CDB27119CEB2411C88B2A17910
S31508002E90C91D8142F4DC6079012802D060790228D4
S31508002EA004D1E1796079FFF73DFF70BD207900F024
S31508002EB00F00144909680978884205D1E078114954
S31508002EC009684978884201DA0820EEE7E07805289B
S31508002ED001DD0320E9E7E0780A490968497888426C
S31508002EE001DD0720E1E76079552802D0AA2801D13B
S31508002EF005E004E004A0FFF779FD0220D5E700BF4E
S31508002F000020D2E704000020CEDED0A7C3FCC1EE25
S31508002F100D0A000000B59FB02F480078022859D145
S31508002F2000202D4908702D48006840782C4909680A
S31508002F30887001202A490968C870284800680078FE
S31508002F40012101EB0010264909680871012024496E
S31508002F5009688871022022490968C871AA2020498F
S31508002F600968487126221F490EA8FDF7EDF81D4885
S31508002F70C08CADF85E001B48816A1891808DADF84B
S31508002F8064001848C08DADF866001648006B1A90A4
S31508002F900922144934311BA8FDF7D6F8114890F8D0
S31508002FA03D008DF875000F4890F83E008DF87600C4
S31508002FB00C48006C1E90342212A96846FDF7C4F826
S31508002FC00EA80FC800F0ACFC04480068417806A0BB
S31508002FD0FFF70CFD1FB000BD0F0000200400002005
S31508002FE01C000020A40400206368616E67652061E8
S31508002FF06C6C206661696C20616E64206368616E22
S31508003000676520656E64206973206D6520256400F8
S3150800301013B50C464FF47A73012269460248FFF746
S31508003020DFF801201CBD0000A404002010B500280C
S3150800303021D0114B0022001F196803E0814203D8F2
S315080030400A4649680029F9D152B11368841A9C4284
S3150800305004D1006818441060104602E0506000E091
S31508003060186039B102680B1A934203D10B681A44E7
S3150800307002604968416010BD4800002001480068A8
S31508003080704700001000002038B50122694618482C
S31508003090FDF730F92C2000F031FA164908600024B3
S315080030A016E0022000F02AFA12490968091D41F8BB
S315080030B0240000210F480068001D50F824004170C4
S315080030C00C480068001D50F824000170601CC4B24A
S315080030D00A2CE6DB03200749096808709DF80000FA
S315080030E0044909684870052002490968887038BD8E
S315080030F0007C00080400002010B59EB05748006800
S315080031004078574909688870544800680078012152
S3150800311001EB0010524909680871002499E04F48EC
S315080031200068001D50F824000078022845D1204682
S3150800313000F09AF801204A490968C870D120484920
S31508003140096848710120464909688871601C444924
S315080031500968C871262243490DA8FCF7F5FF4148BE
S31508003160C08CADF85A003F48816A1791808DADF83A
S3150800317060003C48C08DADF862003A48006B199073
S315080031800922384934311AA8FCF7DEFF354890F889
S315080031903D008DF87100334890F83E008DF87200B6
S315080031A03048006C1D90342211A96846FCF7CCFF04
S315080031B00DA80FC800F0B4FB49E028480068001DB8
S315080031C050F824000078042841D1012024490968D0
S315080031D0C870D12022490968487101202049096828
S315080031E08871601C1E490968C87126221D490DA8E8
S315080031F0FCF7AAFF1B48C08CADF85A001948816A2B
S315080032001791808DADF860001648C08DADF8620044
S315080032101448006B19900922124934311AA8FCF790
S3150800322093FF104890F83D008DF871000D4890F80E
S315080032303E008DF872000B48006C1D90342211A9CF
S315080032406846FCF781FF0DA80FC800F069FB601CF3
S31508003250C4B20A2CFFF663AF1EB010BD04000020EE
S315080032601C000020A404002010B504460A2C3DD2F8
S31508003270DFE804F0050B11161B20252A30364FF41B
S3150800328000711B48FDF738FE00BF4FF480711848DF
S31508003290FDF732FE00BF80211548FDF72DFE00BF61
S315080032A040211348FDF728FE00BF20211048FDF7EE
S315080032B023FE00BF10210E48FDF71EFE00BF0821A1
S315080032C00B48FDF719FE00BF4FF400410948FDF70A
S315080032D013FE00BF4FF480510648FDF70DFE00BFF0
S315080032E04FF400610348FDF707FE00BF00BF10BD9D
S315080032F0000C01400008014010B500246CE020468F
S3150800330000F07AF8D8B30A20FDF782FB3648006841
S31508003310001D50F82400007830B9012132480068B1
S31508003320001D50F8240001702F480068001D50F851
S315080033302400007801280ED12C48005D08280ADAF6
S315080033402B4800782B490978884204D02748005D25
S31508003350401C2649085524480068001D50F82400DA
S315080033600078012836D12148005D082832DB032180
S315080033701D480068001D50F8240001702AE0FFE788
S3150800338019480068001D50F824000078012807D164
S31508003390022115480068001D50F82400017016E047
S315080033A011480068001D50F824000078032807D14A
S315080033B004210D480068001D50F82400017006E03D
S315080033C0002109480068001D50F8240001700020FB
S315080033D006490855601CC4B20A2C90DB05480078DB
S315080033E00349087010BD00000400002050000020AA
S315080033F0090000200E00002010B504460A2C3ED213
S31508003400DFE804F0050B11171D23292E33384FF476
S3150800341000411C48FDF768FD10BD4FF4804119486E
S31508003420FDF762FDF8E74FF400511648FDF75CFD1D
S31508003430F2E74FF480511348FDF756FDECE74FF4D9
S3150800344000611048FDF750FDE6E74FF480610D482E
S31508003450FDF74AFDE0E780210B48FDF745FDDBE770
S3150800346040210948FDF740FDD6E720210648FDF72B
S315080034703BFDD1E710210448FDF736FDCCE70020D7
S31508003480CAE70000000C014000080140FDF756FDA0
S31508003490FFF741F8FEF742FFFEF70EFFFEF7E4FFDF
S315080034A0FEF7FEFFFEF7AAFF6420FDF7B1FA0F4804
S315080034B0FEF720FA01220E490E48FCF7BFFF01224B
S315080034C011020D48FDF722FD00F04EF8FFF7DCFD6E
S315080034D000F082FA09E0FFF70FFFFFF70DFE00F094
S315080034E05DF8FFF717FD00F08DF9F4E75C0400209E
S315080034F014000020007C0008000C0140F0B50B30D9
S31508003500154D20F007010024144A0FE003688B428A
S315080035100BD38B4205D95E1A43184768C3E900677F
S3150800352000E04368136002C004E0021D106800282A
S31508003530ECD12046002802D1286808B10020F0BD49
S31508003540064A07481060074A121A22F00702C0E91D
S31508003550002401202860D7E74C00002048000020FE
S31508003560640600206015002010B540F20910FFF728
S31508003570C5FF0849086040F20910FFF7BFFF064972
S31508003580086059200349096808704B2001490968F1
S31508003590487010BD1C0000201800002030B59FB0F0
S315080035A0002592480078012876D140F20910FFF7E5
S315080035B0A5FF04468E4800688079C21D8C480168BC
S315080035C02046FCF7C1FD8A48006890F8070184F890
S315080035D007018748006890F8080184F80801204622
S315080035E0FFF748FC0546072D65D2DFE805F004110C
S315080035F022334464560001207E490968887160793F
S315080036007C490968C871AA207A490968487152E054
S315080036100220784909688871607976490968C8710D
S315080036200121744800680172552072490968487179
S3150800363041E002206F490968887160796D49096817
S31508003640C87102216B4800680172552069490968EA
S31508003650487130E0022067490968887160796549D0
S315080036600968C871032163480068017255206149D9
S31508003670096848711FE002205E4909688871607907
S315080036805C490968C87104215A48006801725520C6
S315080036905849096848710EE0A4E0012055490968AF
S315080036A08871E079401C53490968C87160795149A5
S315080036B00968487100BF00BF072D17D0082D15D01F
S315080036C0062D13D04C48006840784A490968887026
S315080036D0A07848490968C8704748006800780121F9
S315080036E001EB00104349096808710BE0A0784149CD
S315080036F009688870E0783F490968C87020793D49AB
S3150800370009680871072D01D0062D32D126223B49BA
S315080037100EA8FCF719FD3948C08CADF85E0037488D
S31508003720816A1891808DADF864003448C08DADF873
S3150800373066003248006B1A900922304934311BA8BA
S31508003740FCF702FD2D4890F83D008DF875002B48D2
S3150800375090F83E008DF876002848006C1E903422BA
S3150800376012A96846FCF7F0FC0EA80FC800F0D8F8B6
S3150800377031E0262222490EA8FCF7E6FC2048C08C38
S31508003780ADF85E001E48816A1891808DADF8640018
S315080037901B48C08DADF866001948006B1A900922BF
S315080037A0174934311BA8FCF7CFFC154890F83D00A3
S315080037B08DF87500124890F83E008DF8760010488E
S315080037C0006C1E90342212A96846FCF7BDFC0EA8B0
S315080037D00FC800F0A5F80020044908702046FFF736
S315080037E025FC00BF00201FB030BD000020000020CF
S315080037F0180000201C00002004000020E804002017
S31508003800A404002010B59EB00024FFF737FC6421FD
S31508003810B0FBF1F40620B4FBF0F100FB114028B927
S315080038203A48007810B90120394908700620B4FBD7
S31508003830F0F100FB114030B934480078012802D174
S315080038400020324908703248007801285BD10620EA
S31508003850B4FBF0F100FB11402E490968497888420B
S3150800386051D12C48006840782B4909688870012096
S3150800387029490968C870274800680078012101EBC2
S315080038800010254909680871032023490968487109
S315080038900020214909688871262220490DA8FCF7CD
S315080038A053FC1E48C08CADF85A001C48816A179113
S315080038B0808DADF860001948C08DADF862001748D4
S315080038C0006B19900922154934311AA8FCF73CFCFB
S315080038D0124890F83D008DF87100104890F83E00A7
S315080038E08DF872000D48006C1D90342211A96846A7
S315080038F0FCF72AFC0DA80FC800F012F800200449AE
S315080039000870024908701EB010BD000000000020B3
S3150800391008000020040000201C000020A404002049
S315080039200FB470B50024002559202A490968087083
S315080039304B20284909684870002008E0254909688D
S31508003940095C2144CCB22919CDB2411C88B221495F
S3150800395009688979C91D8142F0DC1E4800688079AA
S31508003960FF280FDA1B48006881791A480068C01DCD
S315080039704454184800688079401C16490968C91DCE
S315080039800D5418E0134800688079FF280BD11148B8
S31508003990006881790F480068C01D44540D480068C6
S315080039A080F8075107E00B48006880F80741094886
S315080039B0006880F8085107480068807900F1090214
S315080039C010230448016804A8FEF70AFC70BC5DF8D9
S315080039D014FB00001C00002010B50122054906480A
S315080039E0FEF7B4FB01220349491C0448FEF7AEFB67
S315080039F010BD00000C000020A4040020E8040020EC
S31508003A000000000000000000010203040607080980
S31508003A100000000001020304383A000800000020F4
S31508003A2050000000442A0008883A00085000002088
S31508003A3010240000542A00080000000000000000BE
S31508003A400000000000000000000000000101000066
S31508003A500000000000000000000000000000000058
S31508003A600000000000000000000001000024F4002F
S31508003A700000000000000000100000000100000027
S30D08003A80000000000000000030
S705080000ED05
