:020000040800F2
:100000000824002001010008D31C0008BD1A0008C4
:10001000D11C000833020008712000080000000015
:10002000000000000000000000000000D71C0008D5
:100030004D02000800000000D51C0008D91C000873
:100040001B0100081B0100081B0100081B01000820
:100050001B0100081B0100081B0100081B01000810
:100060001B0100081B0100081B0100081B01000800
:100070001B0100081B0100081B01000835020008D5
:10008000410200081B0100081B0100081B010008B9
:100090001B0100081B0100081B0100081B010008D0
:1000A0001B0100081B0100081B0100081B010008C0
:1000B0001B0100083D1D0008000000001B01000896
:1000C0001B01000800000000000000001B010008E8
:1000D0000000000059200008652000080000000012
:1000E0001B0100081B0100081B010008DFF80CD0F1
:1000F00000F07EF800480047D126000808240020C0
:100100000648804706480047FEE7FEE7FEE7FEE7B1
:10011000FEE7FEE7FEE7FEE7FEE7FEE73B1D000821
:10012000ED000008202A04DB203A21FA02F0002129
:10013000704721FA02F3D040C2F1200291400843F7
:100140001946704740EA01039B0703D009E008C93C
:10015000121F08C0042AFAD203E011F8013B00F88C
:10016000013B521EF9D27047D2B201E000F8012BD8
:10017000491EFBD270470022F6E710B513460A4627
:1001800004461946FFF7F0FF204610BD2DE9F05F49
:100190000546002092469B468846064681464024F6
:1001A0001BE02846414647462246FFF7BBFF534621
:1001B0005A46C01A914110D311461846224600F003
:1001C00029F82D1A67EB01084F462246012000212D
:1001D00000F020F817EB00094E41201EA4F10104A5
:1001E000DFDC484631462A464346BDE8F09F000022
:1001F000064C074D06E0E06840F0010394E8070074
:1002000098471034AC42F6D3FFF774FF702B000808
:10021000902B0008202A04DB203A00FA02F100208B
:1002200070479140C2F1200320FA03F31943904034
:100230007047FEE7014800F013BA00005C0500209B
:10024000014800F00DBA0000A0050020704772B60A
:10025000FEE7000006490020C8610648016941F038
:1002600004010161016941F0400101617047000032
:10027000E805002000200240064A0021D16106491D
:100280000A6942F002020A614861086940F04000D0
:1002900008617047E805002000200240044B00225E
:1002A000DA61044A136943F0010313610180704766
:1002B000E80500200020024070B5134629B1B0F1D6
:1002C000006F02D30C4CA04205D3002070BD40C883
:1002D0001B1F40C101E0084D2D1F042B07D3A8426E
:1002E000F5D904E010F8015B01F8015B5B1E0BB16E
:1002F000A042F7D3D01A70BD008000081448002235
:10030000C168CB06134904D5CA6942F00202CA612A
:100310001022C3685B0705D5CB6943F00103CB61AD
:1003200042F00402C369DB0707D0CB6943F0040342
:10033000CB61C16921F00101C161A2F58071013970
:1003400001D0C2607047C16921F00101C1617047ED
:1003500000200240E805002070B5054600F00AFCC8
:100360000646114C09E0681C07D025B100F002FCDC
:10037000801BA84201D9032070BDE068C007F2D1FC
:10038000E068800601D52020E060E068C00605D462
:10039000E069C00702D1E068400703D5FFF7AEFF70
:1003A000012070BD002070BD002002402DE9F04FFB
:1003B0008346A0F1006447F6FF7087B0914615466A
:1003C0000E4684420CD25DB156B100F0D1FA4FEA2C
:1003D000942AC4F34807C7F50074A54255D955E0DF
:1003E000002007B0BDE8F08FBAF1200F50D24FF0D7
:1003F000006000EB8A204FF4806228490590FFF7E7
:100400005BFF264900204FF6FF7201EB470804E02E
:1004100038F81010914202D1401CA042F8D3A042FB
:1004200020D20027009705980290012001900390A8
:10043000049704A9684600F0FDF948BB05E000BF39
:1004400036F8171028F817107F1CA742F8D34FF47E
:1004500000773A461149059800F022F8B84208D0D2
:100460002D1A15E022463146584600F019F8A042F0
:10047000F6D106EB44060BEB440B2D1B00274FF483
:1004800000740AF1010AA54200D22C46002DABD11E
:1004900000F024FAA9EB05004000A2E74400002088
:1004A0002DE9F04188460546164614460C4F11E0EA
:1004B000BD4211D8B8F8002000232946012000F0E1
:1004C00017FA2988B8F80000814205D1641E08F1A6
:1004D0000208AD1C002CEBD1301BBDE8F081000000
:1004E000FE7F0008254B10B519465A788968012A05
:1004F00010D0022A18D0032A19D0042A1AD0052AAB
:100500001BD0062A1CD0072A1ED0082A29D0092A67
:100510002BD02FE09A78592A2CD14B282AD10224AB
:100520005C700A70487025E08870032121E0C87073
:1005300004211EE0087105211BE04871062118E026
:1005400088719880072114E09A8842B18C79A41AA6
:100550002144521EC8711104090C99800AD1082146
:1005600007E081F80701092103E081F80801012172
:10057000197059709870002010BD00000000002014
:1005800010B590F821100022022905D004218163C2
:1005900080F82020012010BD01680B6823F00E03B5
:1005A0000B6001680B6823F001030B6090F840308A
:1005B000C46B012101FA03F3636080F8211080F815
:1005C0002020104610BD000010B590F82110002426
:1005D000022903D00421816301243DE001680A68F7
:1005E00022F00E020A6001680A6822F001020A6025
:1005F0001A4A0168914201D1012121E0174A1432BF
:10060000914201D110211BE0144A2832914201D1BC
:10061000891515E0114A3C32914201D189140FE04D
:100620000E4A5032914202D14FF4803108E00B4A19
:100630006432914202D14FF4801101E04FF0807199
:10064000064A083A5160012180F82110002180F803
:100650002010416B01B18847204610BD08000240C0
:100660002DE9F05FC16B0C6801680B68D0F840C0E1
:10067000042202FA0CF2494DDFF824A1494E4A4FF8
:10068000DFF828B1DFF828E122422CD05A072AD51A
:100690000A68920603D40A6822F004020A6001681C
:1006A000A94201D1042219E0514501D1402215E0AF
:1006B000B14202D14FF4806210E0B94202D14FF44E
:1006C00080420BE0594502D14FF4802206E071458B
:1006D00002D14FF4800201E04FF080622F490839C7
:1006E0004A60C16A3BE04FF0020808FA0CF818EAC9
:1006F000040F4FF000094FF0010235D05FEA837814
:1007000032D50B689B0605D40B6823F00A030B60F7
:1007100080F821200168A94201D1022219E0514547
:1007200001D1202215E0B14202D14FF4007210E055
:10073000B94202D14FF400520BE0594502D14FF4B7
:10074000003206E0714502D14FF4001201E04FF093
:100750000072124908394A6080F82090816A0029A5
:100760001AD0BDE8F05F0847082505FA0CF52542C8
:1007700012D01B0710D50B6823F00E030B6090F806
:100780004010C36B02FA01F15960826380F82120A6
:1007900080F82090016BE2E7BDE8F09F080002407E
:1007A0001C00024030000240440002405800024059
:1007B0006C00024030B528B308C81349142219440C
:1007C000B1FBF2F18900C1631049816302214177D5
:1007D0001A6843F6F0718A43D0E900142143D0E946
:1007E00002452C4321430469214344692143846920
:1007F00021431143196000214163012242770177AF
:10080000084630BD012030BDF8FFFDBF00000240AA
:1008100070B5044600F0AEF90546601C02D00448ED
:100820000078044400F0A6F9401BA042FAD370BD42
:100830002C0000202DE9F047054626480F460126EA
:10084000017E01290FD00121814601762868DFF859
:1008500088804CF25034022808D0A2462046FFF788
:100860007BFDA8B131E00220BDE8F0872046FFF70C
:1008700073FD08BB0120FFF7EDFC2046FFF76CFD80
:10088000D8F81010064621F00401C8F810101CE03A
:100890004FF0FF303860AC6811E02046FFF7ECFC09
:1008A0005046FFF759FDD8F81010060021F002015C
:1008B000C8F8101001D03C6007E004F58064D5E969
:1008C000020100EB8120A042E7D8002189F818102E
:1008D0003046C9E7E80500200020024003480169CE
:1008E00041F08001016100207047000000200240BB
:1008F0002DE9F05F07461C4888460024017E154616
:100900001E46012909D00121814601764CF2503A58
:100910005046FFF721FD18B122E00220BDE8F09F0C
:10092000012F02D0022F00D00427D346DFF83CA0CD
:10093000220128463146FFF7F5FB81B208EB44005F
:10094000FFF7ACFC5846FFF707FDDAF8102022F05D
:100950000102CAF8102018B9641CE4B2BC42E7D303
:10096000002289F81820D9E7E8050020002002407D
:10097000064900200A69120607D5054A4A60054A59
:100980004A600969090600D501207047002002402D
:1009900023016745AB89EFCD2DE9F84FDFF89C9136
:1009A000002409F1040A0AF1040B23460F270BF176
:1009B000040EBBE00125A5402A40AA4276D1DFF80B
:1009C00080C14E68A6EB0C0866452BD00DDC032ECB
:1009D00034D005DC36B3012E19D0022E2FD11BE006
:1009E000112E16D0122E2AD119E0B8F5881F19D071
:1009F00006DCB8F5803F15D0B8F5801F1FD111E097
:100A0000B8F5001F0ED0B8F5041F18D10AE0CB6866
:100A100015E0CB681B1D12E0CB6808330FE0CB68F4
:100A20000C330CE08B682BB1012B4FF0080303D083
:100A3000456104E0042302E0056100E00023FF2A91
:100A400001D8064601E000F104064FEA840501D909
:100A5000A5F12005D6F8008007FA05FC28EA0C0865
:100A600003FA05F548EA0508C6F800804D68ED0070
:100A70005BD5344DAE6946F00106AE61AD6924F038
:100A8000030605F0010500952F4D06EB050CDCF87B
:100A90000850A607360F07FA06F825EA0805DFF81A
:100AA000AC80404503D14FF0000810E03DE0DFF896
:100AB000A080404502D14FF0010808E0DFF89480A3
:100AC000404502D14FF0020801E04FF0030808FA58
:100AD00006F848EA0508CCF808804D68D9F80060A7
:100AE000ED034D4601D5164300E096432E604D6858
:100AF000DAF80060AD03554601D5164300E0964391
:100B00002E604D68DBF80060ED025D4601D51643AE
:100B100000E096432E604D68DEF80060AD02754639
:100B200001D5164300E096432E60641C0A6832FA31
:100B300004F57FF43FAFBDE8F88F000000040140EA
:100B400000001110001002400000014000080140A8
:100B5000000C014000100140C26821EA02030A4073
:100B600043EA0241016170470AB10161704709041B
:100B7000FBE7000001488068704700002C0000205F
:100B80000248816802781144816070472C0000207F
:100B9000074810B5016841F010010160032000F022
:100BA00075F8002000F006F800F024F8002010BDD1
:100BB0000020024070B50D4D04464FF47A7128783C
:100BC000B1FBF0F00A490968B1FBF0F000F0ECFA73
:100BD00048B9102C07D200222146501E00F036F8EA
:100BE00000206C6070BD012070BD00002C00002052
:100BF000380000200C4808B5816941F0010181618D
:100C0000816901F001010091C16941F08051C16128
:100C1000C06900F0805000900448416821F0E06114
:100C200041F00071416008BD001002400000014029
:100C3000002809DB00F01F020121914040098000DB
:100C400000F1E020C0F8001170470000F0B40E4B36
:100C50001B680C46C3F30223C3F10705042D00D91A
:100C60000425191D072901D2002300E0DB1E0126FF
:100C700006FA05F1491E214099409E40761E164015
:100C80003143F0BC01F006BA0CED00E0064900F07B
:100C9000070208684FF6FF03184040EA0220034AA3
:100CA00010430860704700000CED00E00000FA05FA
:100CB0002DE9F0470F46050061D0434E306800F043
:100CC0000700B84209D2306820F00700384330608E
:100CD000306800F00700B84251D128683B4C8107CA
:100CE00012D5400703D5606840F4E0606060287862
:100CF000000703D5606840F4605060606068A968D0
:100D000020F0F000084360602878C00728D06868A9
:100D1000012810D02168022810D0890700292EDA76
:100D2000616821F0030101436160FFF723FF804602
:100D300041F288390DE021688903EFE78901EDE789
:100D4000FFF718FFA0EB0801494502D90320BDE8D1
:100D5000F0876068696800F00C00B0EB810FEFD19C
:100D6000306800F00700B8420BD9306820F0070067
:100D700038433060306800F00700B84201D00120ED
:100D8000E5E72878400705D56068E96820F4E06069
:100D9000084360602878000706D56068296920F458
:100DA000605040EAC100606000F038F86168084AAD
:100DB000C1F30311515CC840064908600648006849
:100DC000FFF7F8FE0020C2E70020024000100240BA
:100DD000582B000838000020300000200448054946
:100DE00000684968044AC1F30221515CC840704759
:100DF0003800002000100240682B00080448054914
:100E000000684968044AC1F3C221515CC840704778
:100E10003800002000100240682B000812A185B0A5
:100E20000FC98DE80F0014A0144A0068049051689F
:100E3000134801F00C03042B10D0082B0ED1C1F382
:100E40008343C9031DF803000AD5516804AAC1F3FE
:100E50004041515C0A4A5043B0FBF1F005B0704785
:100E600008494843FAE70000020304050607080999
:100E70000A0B0C0D0E0F10100102000000100240B2
:100E800000127A0000093D002DE9F84F040070D0EF
:100E90002078C04DC00749D06868C0F381000128A0
:100EA00007D06868C0F38100022809D16868C003D0
:100EB00006D52868800339D560680028E7D035E07A
:100EC0006068B0F5803F0BD010B1B0F5A02F11D005
:100ED000286820F480302860286820F4802002E010
:100EE000286840F480302860606890B1FFF742FEC7
:100EF00006460AE0286840F480202860F0E700BF3A
:100F0000FFF738FE801B642873D828688003F7D564
:100F10000CE0FFF72FFE064605E000BFFFF72AFEB4
:100F2000801B6428F0D828688003F7D420789A4E74
:100F300080074FF001094FF0000839D5686810F0BC
:100F40000C0F07D06868C0F38100022809D16868D7
:100F5000C00306D42868800714D52069012808D169
:100F600010E02069B0B1C6F80090FFF703FE074615
:100F700005E00AE1FFF7FEFDC01B0228C4D828687F
:100F80008007F7D52868616920F0F80040EAC100C1
:100F900028600DE0C6F80080FFF7ECFD074604E08E
:100FA000FFF7E8FDC01B022823D828688007F7D484
:100FB000207800072CD57948A169D9B1C0F80090F4
:100FC000FFF7D8FD074604E0FFF7D4FDC01B022859
:100FD0000FD8686A8007F7D571484FF4FA51006856
:100FE000B0FBF1F0009000BF0098411E0091FAD2D2
:100FF0000EE080E0C0F80080FFF7BCFD074604E08B
:10100000FFF7B8FDC01B022875D8686A8007F7D4BF
:101010002078400760D5E8690027C00008D4E86957
:1010200040F08050E861E869012700F080500090AE
:101030005C480168C90513D40168834641F4807196
:101040000160FFF797FD824606E000BFFFF792FDC3
:10105000A0EB0A0064284ED8DBF80000C005F5D5E7
:10106000E06801280AD008B1052813D0286A20F0CA
:1010700001002862286A20F0040002E0286A40F09B
:1010800001002862E06841F2883B98B1FFF772FDE9
:1010900082460BE0286A40F004002862EEE700BFB9
:1010A000FFF768FDA0EB0A0159455AD8286A800766
:1010B000F6D50CE0FFF75EFD824605E0FFF75AFD2E
:1010C000A0EB0A0159454CD8286A8007F6D41FB115
:1010D000E86920F08050E861E06988B36968C1F38D
:1010E0008101022944D00228C6F8608004D0FFF7AD
:1010F00041FD044638E034E0FFF73CFD074604E0DC
:10110000FFF738FDC01B02282BD828688001F7D4D0
:10111000206AB0F5803F05D16868A16820F40030EE
:1011200008436860D4E908010843696821F4741130
:1011300008436860C6F86090FFF71CFD044606E0AF
:1011400025E000BFFFF716FD001B022809D828681C
:101150008001F7D51BE000BFFFF70CFD001B022844
:1011600002D90320BDE8F88F28688001F4D40EE08E
:101170000128F7D06868226A00F48031914204D1D6
:10118000616A00F47010884201D00120EAE7002073
:10119000E8E70000001002400000424280044242A2
:1011A000380000200070004010B5401EB0F1807F74
:1011B00001D3012010BD4FF0E02460610F216017C2
:1011C00000F068FF0020A06107202061002010BD12
:1011D0007047704770B590F83C20012A23D0012455
:1011E00080F83C40022280F83D2003685A689D68E0
:1011F00022F070060A6832435A600C4B02689A4229
:1012000005D0B2F1804F02D0094B9A4204D149680F
:1012100025F080031943916080F83D40002180F85B
:101220003C10084670BD022070BD0000002C01403B
:101230000004004010B5040003D094F83D0010B144
:1012400007E0012010BD002084F83C00204600F09B
:101250001FF8022084F83D00211D206800F074FD75
:10126000012084F8460084F83E0084F83F0084F8AA
:10127000400084F8410084F8420084F8430084F878
:10128000440084F8450084F83D00002010BD0000B3
:1012900008B501681048B1F1804F14D00F4A91424F
:1012A00019D1C16941F00201C161C069002200F099
:1012B0000200009011461D20FFF7C8FCBDE8084061
:1012C0001D20FFF7B5BCC16941F00101C161C069D2
:1012D00000F00100009008BD001002400004004032
:1012E00090F83D10012901D001207047022180F8BB
:1012F0003D100168CA6842F00102CA6000680A49EC
:10130000884205D0B0F1804F02D00849884204D10C
:10131000816801F00701062903D0016841F001014D
:101320000160002070470000002C014000040040D4
:1013300070B5044690F83C00012817D0012584F8C8
:101340003C50022084F83D002068826822F0770239
:1013500022F47F4282600868502830D00DDC2028BB
:101360004DD005DC98B310283BD148E0022070BD79
:10137000302844D0402834D139E0602828D0702863
:1013800006D0B0F5805F2CD0B0F5005F29D10AE01F
:10139000CB68D1E90121206800F004FD2068816854
:1013A00041F0770109E0CB68D1E90121206800F024
:1013B000F9FC2068816841F48041816011E0CA68CD
:1013C0004968206800F000FD5021206807E016E021
:1013D000CA684968206800F008FD6021206800F0B4
:1013E000EBFC84F83D50002084F83C0070BDCA68D6
:1013F0004968206800F0E8FC40212068EFE7226897
:1014000001461046EBE7704770B504460068016975
:101410004FF00005C943890715D4C168C94389073E
:1014200011D4E91E016101202077206880698007BE
:10143000204602D0FFF7E7FF04E000F098F82046CE
:1014400000F096F8257720680169C943490717D449
:10145000C168C943490713D46FF004010161022038
:1014600020772068806910F4407F204602D0FFF783
:10147000CAFF04E000F07BF8204600F079F82577F9
:1014800020680169C943090716D4C168C94309071F
:1014900012D46FF008010161042020772068C06930
:1014A0008007204602D0FFF7AEFF04E000F05FF8AF
:1014B000204600F05DF8257720680169C943C90618
:1014C00017D4C168C943C90613D46FF01001016174
:1014D000082020772068C06910F4407F204602D0A1
:1014E000FFF791FF04E000F042F8204600F040F8DA
:1014F000257720680169C943C90708D1C168C94374
:10150000C90704D1891E0161204600F033F8206824
:101510000169C943090609D4C168C943090605D44C
:101520006FF0800101612046FFF752FE20680169DB
:10153000C943490609D4C168C943490605D46FF0B7
:1015400040010161204600F041F820680169C9436B
:1015500089060BD4C168C943890607D46FF02001FE
:1015600001612046BDE87040FFF733BE70BD704793
:101570007047000010B513490068096888421AD105
:10158000114864214288B2FBF1F301FB132179B9C0
:1015900001780023C94301704168A2F51C54491C1D
:1015A00041600146103C497806D0012900D04380B3
:1015B0004188491C418010BD43800129F7D1022197
:1015C0004170F4E78C040020180000207047704739
:1015D00070470000F8B5026804461068D168536986
:1015E00010F00F0F4FF0000553D003F0010601F487
:1015F000907737435FD0C20705D0CA0503D5226C68
:1016000042F001022264420705D5DA0703D0226CBA
:1016100042F002022264820705D5DA0703D0226C69
:1016200042F004022264020707D501F0200232438F
:1016300003D0226C42F008022264226C002A34D0CB
:10164000800604D5880602D5204600F000FC2068FC
:101650004069216CC0F38010090700D430B32046E4
:1016600000F0DDFB2068416949061BD5416921F086
:1016700040014161A06BA8B158494163A06BFEF7DE
:10168000A3FF002811D0A06B416B01B0BDE8F04072
:10169000084783060FD58B060DD52046BDE8F840D8
:1016A00000F0D5BB2046FFF793FFF8BD2046FFF7BB
:1016B0008FFF2564F8BD266B2023012E52D1C6066C
:1016C00050D5CE064ED5106850680090506940063F
:1016D0002AD5A16B086840680004000CEAD0A68DEA
:1016E0008642E7D9E0858869202818D0D06820F4A0
:1016F0008070D0602068416921F00101416120685B
:10170000416921F04001416184F83E302563206841
:10171000C16821F01001C160A06BFEF731FFA08D00
:10172000E18D401A81B219E0A08DE18D401A81B29D
:10173000E08D0028BED00029BCD0D06820F4907085
:10174000D0602068426922F00102426184F83E3094
:1017500025632068C26822F01002C2602046FFF7AD
:1017600036FFF8BD05062BD50D0629D594F83D00AA
:101770002128F6D1A068B0F5805F01D12069B0B111
:10178000206A411C2162216800784860E08C401E7C
:101790000004000CE084E4D12068C16821F08001DD
:1017A000C1602068C16841F04001C160F8BD206A95
:1017B0000088C0F308005060206A801C2062E5E7C2
:1017C0004006F3D54806F1D5D168204621F0400106
:1017D000D16084F83D3000F070F9F8BD0F1E0008AC
:1017E00070B5040004D094F83D00002510B106E067
:1017F000012070BD84F83C50204600F023F82420DE
:1018000084F83D002068C16821F40051C160204681
:1018100000F078FB2068016921F4904101612068A3
:10182000416921F02A0141612068C16841F40051F9
:10183000C1602564202084F83D0084F83E0000202B
:1018400070BD00002DE9F04385B0002400940194A0
:10185000029403940646DFF818C103684548022243
:101860000321454D80274FF020084FF40059634570
:1018700039D1836943F480438361836903F48043EE
:101880000493836943F0040383618069039100F04A
:10189000040004901002CDE9000269462846FFF7D3
:1018A0007BF82815CDE90004694628460294FFF725
:1018B00073F8334D314805F11403C5E90004C5E957
:1018C00002472C6183E810032846FEF773FF08B136
:1018D000FEF7BDFCB5630022114625206E62FFF7BE
:1018E000B5F925203EE0DFF89CC063453CD1C369D3
:1018F00043F40033C361C36903F400330493836981
:1019000043F0040383618069039100F004000490B4
:101910000420CDE9000269462846FFF73DF808207B
:10192000CDE90004694628460294FFF735F8144DC6
:10193000124844351430C5E90004C5E9024705F1F1
:1019400014032C6183E810032846FEF733FF08B127
:10195000FEF77DFCB5630022114626206E62FFF77C
:1019600075F92620FFF764F905B0BDE8F0830000A3
:1019700000380140001002400008014058000240B9
:101980005C0500200044004090F83E30202B0ED132
:1019900059B152B190F83C30012B08D0012380F8A6
:1019A0003C300023036300F009BB01207047022094
:1019B0007047000070B5054600680E490E4C88421D
:1019C00008D120680078FEF78DFD01220B482168C0
:1019D000FFF7DAFF0A49286888420AD16068007870
:1019E000FEF780FD6168BDE8704001220548FFF701
:1019F000CBBF70BD0038014020000020D40400207F
:101A000000440040180500202DE9F843044690F8F2
:101A10003D001F4616460D4620284CD1C5B1BEB12B
:101A200094F83C00012846D0012084F83C004FF097
:101A30000008C4F84080212084F83D00FFF79AF8A0
:101A4000A6848146E684A068B0F5805F03D004E0F8
:101A50000120BDE8F883206928B12E465FF000051B
:101A600084F83C800EE00026FAE78021204600F052
:101A7000C0FAA0B9AEB116F8010B21684860E08C3D
:101A8000401EE084E08C4B464FF000020097002897
:101A9000EBD14FF04001204600F0ABFA30B103200B
:101AA000D7E735F8020BC0F30800E6E7202084F8FA
:101AB0003D000020CDE70220CBE77047FEE70000A5
:101AC0000D4808B5416941F00101416140690022BA
:101AD00000F00100009011460F20FFF7B7F80F202B
:101AE000FFF7A6F8002211461020FFF7AFF8BDE877
:101AF00008401020FFF79CB8001002402DE9F04389
:101B000085B0002000900190029003901E488169EA
:101B100041F020018161816901F020010491816916
:101B200041F004018161816901F00401049181693E
:101B300041F0080181618069DFF8508000F0080001
:101B400004900022F0214046FFF70EF8DFF84090A5
:101B50004FF47C47002239464846FFF705F8F0204D
:101B60000124022503268DE8710069464046FEF7F0
:101B700013FF01AA009782E8700069464846FEF705
:101B80000BFF05B0BDE8F0830010024000080140E3
:101B9000000C014010B586B0002416480094019452
:101BA0000294039404944FF080410594016047210E
:101BB000C0E9011440F2E731C0E903148461FFF782
:101BC00039FB08B1FEF743FB4FF4805000906946A3
:101BD0000848FFF7ADFB08B1FEF739FB049404A9F0
:101BE00004480594FFF7F6FA002801D0FEF72FFB12
:101BF00006B010BD4404002010B586B0002417487C
:101C00000094019402940394049413490594016090
:101C10004721C0E9011440F2E731C0E903148461AF
:101C2000FFF708FB08B1FEF712FB4FF4805000905D
:101C300069460A48FFF77CFB08B1FEF708FB0494ED
:101C400004A906480594FFF7C5FA002801D0FEF75D
:101C5000FEFA06B010BD0000000400408C04002015
:101C60000C4810B50A4901604FF4E1314160002190
:101C700081600C22C160C0E904128161C161FFF77B
:101C8000AFFD002803D0BDE81040FEF7E0BA10BD5C
:101C900000380140D40400200C4810B50A49016006
:101CA0004FF4E1314160002181600C22C160C0E944
:101CB00004128161C161FFF793FD002803D0BDE8E4
:101CC0001040FEF7C4BA10BD0044004018050020C3
:101CD000FEE7FEE770477047FEF752BF30B58FB0A2
:101CE00028216846FEF747FA14210AA8FEF743FAAE
:101CF00001210804CDE9001000240294022504917A
:101D0000CDE907504FF4E01009906846FFF7BCF8A2
:101D100008B172B6FEE70F20CDE90A054FF48060E6
:101D2000CDE90C4002210AA80E94FEF7C1FF00285D
:101D300001D072B6FEE70FB030BD70470148FFF723
:101D400063BB00008C04002070B50268134B144C78
:101D50004FF08046984203D0B04201D0A04203D158
:101D600022F070054A682A43984203D0B04201D05D
:101D7000A04203D122F44074CA6822434C6922F085
:101D80008002224302608A68C2620A6882629842C4
:101D900001D1096901630121416170BD002C01403D
:101DA0000004004010B5846842EA032224F47F4412
:101DB0000A432243826010BD826822F070020A4307
:101DC00042F007018160704710B5036A046A24F08D
:101DD00001040462846924F0F00444EA021423F04C
:101DE0000A020A438461026210BD10B5036A23F03F
:101DF000100303628369046A23F4704343EA0232E6
:101E000024F0A00343EA01118261016210BD10B504
:101E1000406A0021C185C184FFF7DAFB10BD01686B
:101E2000CA6822F49072CA6001684A6922F001020D
:101E30004A61016B012904D10168CA6822F01002CD
:101E4000CA60202180F83E1000210163704708B568
:101E500090F83E10222901D0022008BD82684FF47C
:101E600080539A4201D1016921B1816A9A421BD003
:101E70004AB10AE00268816A5268C2F308020A8025
:101E8000816A891C08E0026972B10268526802F036
:101E90007F020A70816A491C8162C18D491E090452
:101EA000090CC18503D019E002685268F1E70168A6
:101EB000CA6822F02002CA600168CA6822F48072EF
:101EC000CA6001684A6922F001024A61202180F853
:101ED0003E10016B012903D0FFF76CFD002008BD07
:101EE000002101630168CA6822F01002CA6001681B
:101EF0000A68D20602D50A6849680091818DFFF709
:101F000066FBEBE770B5044600680169E26821F4FE
:101F10004051114301612169A06808436169084388
:101F20002168CA6841F20C639A430243CA60206880
:101F30004169A26921F44071114341611E49206841
:101F4000884202D1FEF75AFF01E0FEF747FF00EB9F
:101F5000C00101EB0012606864218000B2FBF0F365
:101F6000B3FBF1F36FF018067343B2FBF0F5B2FB6D
:101F7000F0F605EB8305322303EB0515B5FBF1F510
:101F8000B6FBF1F605F0F00505EB0615B2FBF0F631
:101F9000B2FBF0F0B0FBF1F06FF01802504306EB2B
:101FA000800003EB0010B0FBF1F0216800F00F009F
:101FB0002844886070BD000000380140816282853D
:101FC000C28500210164222280F83E2080F83C1066
:101FD0000168CA6842F48072CA6001684A6942F0C6
:101FE00001024A610068C16841F02001C16000201F
:101FF00070472DE9F041984617460E460446069D67
:102000001DE0681C1BD02DB1FEF7B4FDA0EB08004D
:10201000A84214D92068C16821F4D071C160206839
:10202000416921F001014161202084F83D0084F8DC
:102030003E00002084F83C000320BDE8F0812068C9
:10204000006836EA000004D00020B842D9D0002051
:10205000F3E70120F9E700000148FFF7BBBA0000F1
:10206000D40400200148FFF7B5BA0000180500208D
:10207000FEE700000FB4054B10B503A9044A02980F
:1020800000F028F810BC5DF814FB000005260008DD
:10209000280000200907090E002804DB00F1E020D9
:1020A00080F80014704700F00F0000F1E02080F885
:1020B000141D704702E008C8121F08C1002AFAD197
:1020C00070477047002001E001C1121F002AFBD1B8
:1020D000704700002DE9FF4F8DB09B460F46044628
:1020E000002606E025280BD05A460F999047641C1D
:1020F000761C20780028F5D111B03046BDE8F08F6D
:102100000025A8460122984900E0054314F8013F44
:10211000203B02FA03F00842F7D120782E2817D18D
:1021200014F8010F45F004052A280ED06FF02F0295
:102130002078A0F1300109290AD808EB880102EBC8
:10214000410100EB0108641CF2E757F8048B641CA2
:1021500020786C280DD004DC4C2812D06A2811D1CC
:1021600004E074280DD07A280CD10AE045F400155B
:1021700007E0617845F48015814202D1641C05F5C1
:102180008015641C2278692A45D008DC002AB3D067
:10219000582A69D0632A10D0642A08D13BE0702AFB
:1021A00067D0732A13D0752A5CD0782A5CD0104689
:1021B0005A460F999047761CD3E017F8040B8DF818
:1021C000000000208DF80100E946012003E057F8E7
:1021D000049B4FF0FF3069074FF0000501D40AE07F
:1021E0006D1C45450DDA8542FADB19F8051000290A
:1021F000F6D106E06D1C8542FCDB19F805100029BC
:10220000F8D12E4404E019F8010B5A460F99904773
:102210006D1EF8D2A5E00A200021CDE90801C5F322
:10222000025002280DD001CFC117031E71F1000327
:102230000DDA4FF0000CD0EB0C006CEB01012D23FC
:1022400008E0FF1D27F00707F7E80201EDE72B057F
:1022500004D52B238DF8283001233BE0EB0739D040
:102260002023F7E70A2000E010200021CDE9080133
:1022700007E01020002145F00405CDE908014FF0EA
:102280000808C5F3025002280FD001CF00214FF0FB
:10229000000A2B071FD5702A0DD0DDE908C38CF08A
:1022A000100C5CEA030C0CD015E0FF1D27F00707AB
:1022B000F7E80201EBE740228DF828204FF0010AF1
:1022C0000BE050EA010306D030238DF828308DF85A
:1022D000292002239A46582A04D024A20DF120096D
:1022E0000B9209E026A2F9E7DDE90823FDF74EFF8E
:1022F0000B9B9B5C09F8013D50EA0102F4D1ADEB68
:10230000090020300890680701D44FF001080899AF
:10231000884502DDA8EB010000E000208046002592
:1023200006E00AA85A46405D0F9990476D1C761C3E
:102330005545F6DB04E030205A460F999047761C4D
:10234000B8F10001A8F10108F5DC05E019F8010B6E
:102350005A460F999047761C0899481E0890002904
:10236000F4DC641CC5E6000009280100303132337A
:1023700034353637383961626364656600000000C1
:1023800030313233343536373839414243444546AB
:102390000000000013B59DF804101F4B0A461F4CA7
:1023A000491E012802D0022812D00FE004290AD8C1
:1023B000012201A91846FDF7F9FF60689DF8041095
:1023C000417017A023E01DA0FFF754FE02201CBDA2
:1023D000042910D2012201A91846FDF7E7FF606821
:1023E0009DF8041041701AA0FFF744FE2249012015
:1023F000087006201CBD052AE5D1012201A9184656
:10240000FDF7D4FF60689DF8041041701BA0FFF732
:1024100031FE00201CBD0000007C000810000020E0
:102420006368616E676520696420746F2030782569
:102430007820737563636573730D0A006368616E5A
:102440006765206964206661696C200D0A000000E0
:102450006368616E676520616C6C206F66206D65D6
:1024600020696420746F2030782578207375636349
:102470006573730D0A000000190000206368616E27
:10248000676520696420746F203078257820737523
:10249000636365737320616E64206368616E676552
:1024A00020616C6C20737563636573730D0A0000A3
:1024B00010B54279012A0FD0022A0DD0017901F01E
:1024C0000F03174909680C78A34203D1C3784C78ED
:1024D000A34207D2082010BDC179BDE810401046C4
:1024E000FFF758BF052B01D9022010BDA34201D927
:1024F000072010BDE12A0DD004DC552A0ED0AA2AEF
:1025000004D10BE0E22A05D0E32A03D005A0FFF7AF
:10251000B1FDE9E74B68811D10469847002010BDCA
:1025200014000020CEDED0A7C3FCC1EE0D0A0000CF
:1025300070B52848A0B00178022949D10021017066
:1025400025490120254E0C6802212622A071E17147
:10255000AA21617171684978A170E0707168097889
:1025600000EB011020711E490EA8FDF7EBFD1C4D7C
:10257000E88CADF85E00A86A1890A88DADF86400EC
:10258000E88DADF86600286B1A90092205F1340138
:102590001BA8FDF7D7FD95F83D008DF8750095F85F
:1025A0003E008DF87600286C1E90382211A96846EE
:1025B000FDF7C8FD20460EAC94E80E0000F0A2FA2C
:1025C0007068417820B007A0BDE87040FFF752BDA9
:1025D00020B070BD190000200C0000201000002069
:1025E000D40400206368616E676520616C6C2066AE
:1025F00061696C206368616E676520746F206D652A
:102600002025640013B54FF47A730122694602480D
:10261000FFF7FAF901201CBDD404002010B50028F2
:1026200021D0114B0022001F196803E0814203D81A
:102630000A4649680029F9D152B11368841A9C42AC
:1026400004D1006818441060104602E0506000E0B9
:10265000186039B102680B1A934203D10B681A440F
:1026600002604968416010BD3C000020014840689C
:10267000704700001800002008B5012269460A488A
:10268000FDF71AFE082000F073F80849084A486070
:10269000022101709DF80010417042600522827095
:1026A00004A0FFF7E7FC08BD007C00081000002034
:1026B000052800084920616D20612072656C6179F0
:1026C000206D792069642069732025640D0A00005B
:1026D000FEF75EFAFFF702FBFFF710FAFFF7F0F9DB
:1026E000FFF758FAFFF7BCFAFFF7D6FAFFF784FABC
:1026F000C820FEF78DF81848FEF7F2FDFFF7BCFF83
:1027000000F06CF84FF49275284600F031F8134C45
:102710002060284600F02CF860602168104AC1F85B
:102720001C21104AC1F820210F4AC0F81C210F4A71
:10273000C0F8202101220A48FFF726F901220A48A1
:102740006168FFF721F900BF00F0F4F8FFF7F0FE31
:1027500000F064F9F8E700008C040020200000205D
:10276000D40400205C05002018050020A0050020EE
:10277000F0B50B30154D20F007010024144A0FE08E
:1027800003688B420BD38B4205D95E1A4318476806
:10279000C3E9006700E04368136002C004E0021D63
:1027A00010680028ECD12046002802D1286808B122
:1027B0000020F0BD064A07481060074A121A22F0AE
:1027C0000702C0E9002401202860D7E7400000206C
:1027D0003C0000200C0600200815002070B540F2D7
:1027E00009152846FFF7C4FF054CE0602846FFF7AF
:1027F000BFFFA060E068592101704B21417070BD9E
:10280000000000202DE9F05F0D46064600244FF43D
:1028100000474FF480484FF400594FF4805A4FF46A
:10282000006B7DE0E12E04D0E22E28D0E32E75D19E
:1028300050E0281940780B2870D2DFE800F06F06CE
:10284000080C0E101214161C1E00012224E0012296
:1028500025E036480CE0012224E0012225E0012297
:1028600026E0012227E0012229E001222AE0304867
:10287000FEF77AF952E0012227E0012228E0281928
:1028800040780B284AD2DFE800F04906090C0F1205
:1028900015191C1F220000223946DAE700224146A2
:1028A000D7E700224946D4E700225146D1E700226B
:1028B0005946CEE700224FF48061CAE7002280210A
:1028C000D5E700224021D2E700222021CFE70022D5
:1028D0001021CCE7281940780B281FD2DFE800F040
:1028E0001E06080B0D0F111416181A00394600E0C9
:1028F00041460E4810E04946FBE75146F9E7594684
:10290000F7E74FF48061F4E7802104E0402102E022
:10291000202100E010210648FEF71EF9641CE4B2F5
:102920002878A0423FF67EAFBDE8F09F000C014042
:102930000008014070B5374C2078012867D140F27B
:1029400009163046FFF714FF05463246A168FDF729
:10295000F9FBA16891F8070185F8070191F80801D2
:1029600085F808012846FFF7A3FD0221552301221F
:1029700007282ED2DFE800F0040B11181E2D2500C9
:10298000E06882716979C171AA21417127E0E0682C
:1029900081716979C171027204E0E06881716E79B8
:1029A000C6710CE043711AE0E06881716979C17108
:1029B000032104E0E06881716979C1710421017229
:1029C000F0E7E0688271E979491CC1716979417168
:1029D00011E007280FD008280DD006280BD00E498B
:1029E00008684378E0688370AB78C3700968097839
:1029F00002EB011105E0E068A9788170E978C17007
:102A000029790171002020702846FFF707FE002079
:102A100070BD00000000002014000020F0B59FB041
:102A2000FFF724FE6421B0FBF1F10622B1FBF2F0C6
:102A30002E4C02FB101523784FF001001D4300D1EE
:102A40006070B1FBF2F502FB1515002615B9012BDC
:102A500000D126706378012B46D1B1FBF2F302FB63
:102A60001312616849788A423ED1214A17682622AA
:102A7000B970F8706168097800EB011038710320B3
:102A80007871BE711B490EA8FDF75CFB194DE88CEF
:102A9000ADF85E00A86A1890A88DADF86400E88DC6
:102AA000ADF86600286B1A90092205F134011BA8C5
:102AB000FDF748FB95F83D008DF8750095F83E0050
:102AC0008DF87600286C1E90382211A96846FDF713
:102AD00039FB0EAD384695E80E0000F013F806A05D
:102AE000FFF7C8FA667026701FB0F0BD1000002016
:102AF0000C000020D4040020C9CFB1A8D0C4CCF869
:102B00000D0A00000FB4002170B58279D21D06E0D5
:102B1000455C491C2B44DBB21C44E4B289B28A42B6
:102B2000F6D80C4D05A8E96881F8073181F808410D
:102B30008A794FF480742346D21DFEF765FFE96859
:102B40002346022205A801F20711FEF75DFF70BCC3
:102B50005DF814FB000000200000000000000000F1
:102B60000102030406070809000000000102030433
:102B7000902B00080000002044000000B420000852
:102B8000D42B000844000020C4230000C420000807
:102B90000001000000000000000000000000000034
:102BA0000000000000000000000000000000000025
:102BB0000000000000000000000000000100000014
:102BC00010000000000000000024F40000000000DD
:042BD0000000000001
:04000005080000ED02
:00000001FF
